{
  "contractName": "Game",
  "abi": [
    {
      "inputs": [
        {
          "internalType": "address",
          "name": "_owner",
          "type": "address"
        },
        {
          "internalType": "bool",
          "name": "_small",
          "type": "bool"
        }
      ],
      "stateMutability": "nonpayable",
      "type": "constructor"
    },
    {
      "anonymous": false,
      "inputs": [
        {
          "indexed": false,
          "internalType": "uint256",
          "name": "amount",
          "type": "uint256"
        }
      ],
      "name": "BetAgreed",
      "type": "event"
    },
    {
      "anonymous": false,
      "inputs": [
        {
          "indexed": true,
          "internalType": "address",
          "name": "player",
          "type": "address"
        },
        {
          "indexed": false,
          "internalType": "uint256",
          "name": "amount",
          "type": "uint256"
        }
      ],
      "name": "BetProposal",
      "type": "event"
    },
    {
      "anonymous": false,
      "inputs": [],
      "name": "BoardsCommitted",
      "type": "event"
    },
    {
      "anonymous": false,
      "inputs": [],
      "name": "FundsDeposited",
      "type": "event"
    },
    {
      "anonymous": false,
      "inputs": [
        {
          "indexed": false,
          "internalType": "address",
          "name": "player",
          "type": "address"
        }
      ],
      "name": "PlayerAFK",
      "type": "event"
    },
    {
      "anonymous": false,
      "inputs": [
        {
          "indexed": true,
          "internalType": "address",
          "name": "player",
          "type": "address"
        },
        {
          "indexed": false,
          "internalType": "uint8",
          "name": "cell",
          "type": "uint8"
        }
      ],
      "name": "ShotTaken",
      "type": "event"
    },
    {
      "anonymous": false,
      "inputs": [
        {
          "indexed": false,
          "internalType": "address",
          "name": "player",
          "type": "address"
        }
      ],
      "name": "Winner",
      "type": "event"
    },
    {
      "anonymous": false,
      "inputs": [
        {
          "indexed": false,
          "internalType": "address",
          "name": "player",
          "type": "address"
        }
      ],
      "name": "WinnerVerified",
      "type": "event"
    },
    {
      "inputs": [],
      "name": "BOARD_Normal",
      "outputs": [
        {
          "internalType": "uint8",
          "name": "",
          "type": "uint8"
        }
      ],
      "stateMutability": "view",
      "type": "function"
    },
    {
      "inputs": [],
      "name": "BOARD_Small",
      "outputs": [
        {
          "internalType": "uint8",
          "name": "",
          "type": "uint8"
        }
      ],
      "stateMutability": "view",
      "type": "function"
    },
    {
      "inputs": [],
      "name": "FLEET_Normal",
      "outputs": [
        {
          "internalType": "uint8",
          "name": "",
          "type": "uint8"
        }
      ],
      "stateMutability": "view",
      "type": "function"
    },
    {
      "inputs": [],
      "name": "FLEET_Small",
      "outputs": [
        {
          "internalType": "uint8",
          "name": "",
          "type": "uint8"
        }
      ],
      "stateMutability": "view",
      "type": "function"
    },
    {
      "inputs": [],
      "name": "adversary",
      "outputs": [
        {
          "internalType": "address",
          "name": "",
          "type": "address"
        }
      ],
      "stateMutability": "view",
      "type": "function"
    },
    {
      "inputs": [],
      "name": "afk_timeout",
      "outputs": [
        {
          "internalType": "uint256",
          "name": "",
          "type": "uint256"
        }
      ],
      "stateMutability": "view",
      "type": "function"
    },
    {
      "inputs": [],
      "name": "bet",
      "outputs": [
        {
          "internalType": "uint256",
          "name": "",
          "type": "uint256"
        }
      ],
      "stateMutability": "view",
      "type": "function"
    },
    {
      "inputs": [
        {
          "internalType": "address",
          "name": "",
          "type": "address"
        }
      ],
      "name": "betsQueue",
      "outputs": [
        {
          "internalType": "uint256",
          "name": "",
          "type": "uint256"
        }
      ],
      "stateMutability": "view",
      "type": "function"
    },
    {
      "inputs": [],
      "name": "boardSize",
      "outputs": [
        {
          "internalType": "uint8",
          "name": "",
          "type": "uint8"
        }
      ],
      "stateMutability": "view",
      "type": "function"
    },
    {
      "inputs": [],
      "name": "fleetSize",
      "outputs": [
        {
          "internalType": "uint8",
          "name": "",
          "type": "uint8"
        }
      ],
      "stateMutability": "view",
      "type": "function"
    },
    {
      "inputs": [],
      "name": "gamePhase",
      "outputs": [
        {
          "internalType": "enum Game.Phase",
          "name": "",
          "type": "uint8"
        }
      ],
      "stateMutability": "view",
      "type": "function"
    },
    {
      "inputs": [],
      "name": "owner",
      "outputs": [
        {
          "internalType": "address",
          "name": "",
          "type": "address"
        }
      ],
      "stateMutability": "view",
      "type": "function"
    },
    {
      "inputs": [
        {
          "internalType": "address",
          "name": "",
          "type": "address"
        }
      ],
      "name": "players",
      "outputs": [
        {
          "internalType": "bool",
          "name": "afk",
          "type": "bool"
        },
        {
          "internalType": "bool",
          "name": "hasPaid",
          "type": "bool"
        },
        {
          "internalType": "bytes32",
          "name": "board",
          "type": "bytes32"
        },
        {
          "internalType": "uint8",
          "name": "hits",
          "type": "uint8"
        }
      ],
      "stateMutability": "view",
      "type": "function"
    },
    {
      "inputs": [],
      "name": "turn",
      "outputs": [
        {
          "internalType": "address",
          "name": "",
          "type": "address"
        }
      ],
      "stateMutability": "view",
      "type": "function"
    },
    {
      "inputs": [],
      "name": "winner",
      "outputs": [
        {
          "internalType": "address",
          "name": "",
          "type": "address"
        }
      ],
      "stateMutability": "view",
      "type": "function"
    },
    {
      "inputs": [
        {
          "internalType": "address",
          "name": "_adversary",
          "type": "address"
        }
      ],
      "name": "matchJoin",
      "outputs": [],
      "stateMutability": "nonpayable",
      "type": "function"
    },
    {
      "inputs": [
        {
          "internalType": "uint256",
          "name": "_amount",
          "type": "uint256"
        }
      ],
      "name": "proposeBet",
      "outputs": [],
      "stateMutability": "nonpayable",
      "type": "function"
    },
    {
      "inputs": [],
      "name": "acceptBet",
      "outputs": [],
      "stateMutability": "nonpayable",
      "type": "function"
    },
    {
      "inputs": [],
      "name": "betFunds",
      "outputs": [],
      "stateMutability": "payable",
      "type": "function"
    },
    {
      "inputs": [],
      "name": "forfeit",
      "outputs": [],
      "stateMutability": "nonpayable",
      "type": "function"
    },
    {
      "inputs": [
        {
          "internalType": "bytes32",
          "name": "_board",
          "type": "bytes32"
        }
      ],
      "name": "commitBoard",
      "outputs": [],
      "stateMutability": "nonpayable",
      "type": "function"
    },
    {
      "inputs": [
        {
          "internalType": "address",
          "name": "_player",
          "type": "address"
        }
      ],
      "name": "getShotsTaken",
      "outputs": [
        {
          "components": [
            {
              "internalType": "uint8",
              "name": "index",
              "type": "uint8"
            },
            {
              "internalType": "enum Game.ShotState",
              "name": "state",
              "type": "uint8"
            }
          ],
          "internalType": "struct Game.Shot[]",
          "name": "",
          "type": "tuple[]"
        }
      ],
      "stateMutability": "view",
      "type": "function"
    },
    {
      "inputs": [
        {
          "internalType": "uint8",
          "name": "_index",
          "type": "uint8"
        }
      ],
      "name": "attack",
      "outputs": [],
      "stateMutability": "nonpayable",
      "type": "function"
    },
    {
      "inputs": [
        {
          "internalType": "bool",
          "name": "_isShip",
          "type": "bool"
        },
        {
          "internalType": "uint256",
          "name": "_salt",
          "type": "uint256"
        },
        {
          "internalType": "uint8",
          "name": "_index",
          "type": "uint8"
        },
        {
          "internalType": "bytes32[]",
          "name": "_proof",
          "type": "bytes32[]"
        },
        {
          "internalType": "uint8",
          "name": "_attackIndex",
          "type": "uint8"
        }
      ],
      "name": "checkAndAttack",
      "outputs": [],
      "stateMutability": "nonpayable",
      "type": "function"
    },
    {
      "inputs": [
        {
          "internalType": "bytes32[]",
          "name": "_proof",
          "type": "bytes32[]"
        },
        {
          "internalType": "bool[]",
          "name": "_proofFlags",
          "type": "bool[]"
        },
        {
          "internalType": "bool[]",
          "name": "_cells",
          "type": "bool[]"
        },
        {
          "internalType": "uint256[]",
          "name": "_salts",
          "type": "uint256[]"
        },
        {
          "internalType": "uint8[]",
          "name": "_indexes",
          "type": "uint8[]"
        }
      ],
      "name": "checkWinnerBoard",
      "outputs": [],
      "stateMutability": "nonpayable",
      "type": "function"
    },
    {
      "inputs": [],
      "name": "withdraw",
      "outputs": [],
      "stateMutability": "nonpayable",
      "type": "function"
    },
    {
      "inputs": [],
      "name": "reportAFK",
      "outputs": [],
      "stateMutability": "nonpayable",
      "type": "function"
    },
    {
      "inputs": [],
      "name": "verifyAFK",
      "outputs": [],
      "stateMutability": "nonpayable",
      "type": "function"
    }
  ],
  "bytecode": "0x60806040523480156200001157600080fd5b5060405162004550380380620045508339818101604052810190620000379190620001db565b81600160026101000a81548173ffffffffffffffffffffffffffffffffffffffff021916908373ffffffffffffffffffffffffffffffffffffffff160217905550806200009f576040600160006101000a81548160ff021916908360ff1602179055620000bb565b6010600160006101000a81548160ff021916908360ff16021790555b5080620000e257600a6001806101000a81548160ff021916908360ff1602179055620000fd565b60056001806101000a81548160ff021916908360ff16021790555b506000600760146101000a81548160ff0219169083600581111562000127576200012662000222565b5b0217905550505062000251565b600080fd5b600073ffffffffffffffffffffffffffffffffffffffff82169050919050565b6000620001668262000139565b9050919050565b620001788162000159565b81146200018457600080fd5b50565b60008151905062000198816200016d565b92915050565b60008115159050919050565b620001b5816200019e565b8114620001c157600080fd5b50565b600081519050620001d581620001aa565b92915050565b60008060408385031215620001f557620001f462000134565b5b6000620002058582860162000187565b92505060206200021885828601620001c4565b9150509250929050565b7f4e487b7100000000000000000000000000000000000000000000000000000000600052602160045260246000fd5b6142ef80620002616000396000f3fe6080604052600436106101b75760003560e01c8063c51d69f4116100ec578063e65e84921161008a578063f3d86e4a11610064578063f3d86e4a14610582578063f5126b6b14610599578063f87a6300146105c4578063fadca01e146105ef576101b7565b8063e65e8492146104f3578063e75e0e5b14610530578063ea66144a14610559576101b7565b8063dfbf53ae116100c6578063dfbf53ae14610446578063e25387e414610471578063e2eb41ff14610488578063e35d284b146104c8576101b7565b8063c51d69f4146103c7578063cc12f58e146103f2578063d43faafd1461041d576101b7565b80633ccfd60b116101595780638b80aac4116101335780638b80aac4146103315780638da5cb5b1461035c578063a562ea3b14610387578063bcc9f3e61461039e576101b7565b80633ccfd60b146102c4578063577c87cb146102db5780638b29990314610306576101b7565b80631c253fd2116101955780631c253fd21461023b5780631e20ddab1461027857806330bfcb5f146102825780633951be8714610299576101b7565b806311610c25146101bc5780631999eca8146101e75780631bb565d614610210575b600080fd5b3480156101c857600080fd5b506101d1610618565b6040516101de919061331a565b60405180910390f35b3480156101f357600080fd5b5061020e60048036038101906102099190613382565b61061e565b005b34801561021c57600080fd5b506102256106c4565b604051610232919061331a565b60405180910390f35b34801561024757600080fd5b50610262600480360381019061025d919061340d565b6106ca565b60405161026f919061331a565b60405180910390f35b6102806106e2565b005b34801561028e57600080fd5b506102976109e8565b005b3480156102a557600080fd5b506102ae610dc5565b6040516102bb91906134b1565b60405180910390f35b3480156102d057600080fd5b506102d9610dd8565b005b3480156102e757600080fd5b506102f0610ee5565b6040516102fd91906134db565b60405180910390f35b34801561031257600080fd5b5061031b610eea565b6040516103289190613505565b60405180910390f35b34801561033d57600080fd5b50610346610f10565b6040516103539190613505565b60405180910390f35b34801561036857600080fd5b50610371610f36565b60405161037e9190613505565b60405180910390f35b34801561039357600080fd5b5061039c610f5c565b005b3480156103aa57600080fd5b506103c560048036038101906103c0919061395c565b611400565b005b3480156103d357600080fd5b506103dc611657565b6040516103e991906134db565b60405180910390f35b3480156103fe57600080fd5b5061040761166a565b60405161041491906134db565b60405180910390f35b34801561042957600080fd5b50610444600480360381019061043f9190613a63565b61166f565b005b34801561045257600080fd5b5061045b6117f6565b6040516104689190613505565b60405180910390f35b34801561047d57600080fd5b5061048661181c565b005b34801561049457600080fd5b506104af60048036038101906104aa919061340d565b611aa2565b6040516104bf9493929190613aae565b60405180910390f35b3480156104d457600080fd5b506104dd611af9565b6040516104ea91906134db565b60405180910390f35b3480156104ff57600080fd5b5061051a6004803603810190610515919061340d565b611afe565b6040516105279190613c28565b60405180910390f35b34801561053c57600080fd5b5061055760048036038101906105529190613c4a565b611bf3565b005b34801561056557600080fd5b50610580600480360381019061057b9190613ce1565b6122b7565b005b34801561058e57600080fd5b50610597612660565b005b3480156105a557600080fd5b506105ae612823565b6040516105bb91906134db565b60405180910390f35b3480156105d057600080fd5b506105d9612828565b6040516105e691906134db565b60405180910390f35b3480156105fb57600080fd5b506106166004803603810190610611919061340d565b612839565b005b60055481565b600360058111156106325761063161343a565b5b600760149054906101000a900460ff1660058111156106545761065361343a565b5b1461065e57600080fd5b600660009054906101000a900473ffffffffffffffffffffffffffffffffffffffff1673ffffffffffffffffffffffffffffffffffffffff163373ffffffffffffffffffffffffffffffffffffffff16146106b857600080fd5b6106c181612979565b50565b60005481565b60046020528060005260406000206000915090505481565b600160029054906101000a900473ffffffffffffffffffffffffffffffffffffffff1673ffffffffffffffffffffffffffffffffffffffff163373ffffffffffffffffffffffffffffffffffffffff16148061078b5750600260009054906101000a900473ffffffffffffffffffffffffffffffffffffffff1673ffffffffffffffffffffffffffffffffffffffff163373ffffffffffffffffffffffffffffffffffffffff16145b61079457600080fd5b60011515600360003373ffffffffffffffffffffffffffffffffffffffff1673ffffffffffffffffffffffffffffffffffffffff16815260200190815260200160002060000160019054906101000a900460ff161515036107f457600080fd5b600160058111156108085761080761343a565b5b600760149054906101000a900460ff16600581111561082a5761082961343a565b5b1461083457600080fd5b600554341461084257600080fd5b6001600360003373ffffffffffffffffffffffffffffffffffffffff1673ffffffffffffffffffffffffffffffffffffffff16815260200190815260200160002060000160016101000a81548160ff02191690831515021790555060036000600160029054906101000a900473ffffffffffffffffffffffffffffffffffffffff1673ffffffffffffffffffffffffffffffffffffffff1673ffffffffffffffffffffffffffffffffffffffff16815260200190815260200160002060000160019054906101000a900460ff168015610989575060036000600260009054906101000a900473ffffffffffffffffffffffffffffffffffffffff1673ffffffffffffffffffffffffffffffffffffffff1673ffffffffffffffffffffffffffffffffffffffff16815260200190815260200160002060000160019054906101000a900460ff165b156109e6577fd2d72fde7537c550b5e85eabb70a65949c78bb66328f56c78ddc8251950a994160405160405180910390a16002600760146101000a81548160ff021916908360058111156109e0576109df61343a565b5b02179055505b565b600160029054906101000a900473ffffffffffffffffffffffffffffffffffffffff1673ffffffffffffffffffffffffffffffffffffffff163373ffffffffffffffffffffffffffffffffffffffff161480610a915750600260009054906101000a900473ffffffffffffffffffffffffffffffffffffffff1673ffffffffffffffffffffffffffffffffffffffff163373ffffffffffffffffffffffffffffffffffffffff16145b610a9a57600080fd5b60016005811115610aae57610aad61343a565b5b600760149054906101000a900460ff166005811115610ad057610acf61343a565b5b14610ada57600080fd5b600160029054906101000a900473ffffffffffffffffffffffffffffffffffffffff1673ffffffffffffffffffffffffffffffffffffffff163373ffffffffffffffffffffffffffffffffffffffff16148015610b995750600060046000600260009054906101000a900473ffffffffffffffffffffffffffffffffffffffff1673ffffffffffffffffffffffffffffffffffffffff1673ffffffffffffffffffffffffffffffffffffffff1681526020019081526020016000205414155b80610c5f5750600260009054906101000a900473ffffffffffffffffffffffffffffffffffffffff1673ffffffffffffffffffffffffffffffffffffffff163373ffffffffffffffffffffffffffffffffffffffff16148015610c5e5750600060046000600160029054906101000a900473ffffffffffffffffffffffffffffffffffffffff1673ffffffffffffffffffffffffffffffffffffffff1673ffffffffffffffffffffffffffffffffffffffff1681526020019081526020016000205414155b5b610c9e576040517f08c379a0000000000000000000000000000000000000000000000000000000008152600401610c9590613d91565b60405180910390fd5b6000600160029054906101000a900473ffffffffffffffffffffffffffffffffffffffff1673ffffffffffffffffffffffffffffffffffffffff163373ffffffffffffffffffffffffffffffffffffffff1614610d1d57600160029054906101000a900473ffffffffffffffffffffffffffffffffffffffff16610d41565b600260009054906101000a900473ffffffffffffffffffffffffffffffffffffffff165b9050600460008273ffffffffffffffffffffffffffffffffffffffff1673ffffffffffffffffffffffffffffffffffffffff168152602001908152602001600020546005819055507f50ac8120affab45c80b99be15eba8c23598651f799d4ad1c2e0c91f92e7e23b1600554604051610dba919061331a565b60405180910390a150565b600760149054906101000a900460ff1681565b600580811115610deb57610dea61343a565b5b600760149054906101000a900460ff166005811115610e0d57610e0c61343a565b5b14610e1757600080fd5b600760009054906101000a900473ffffffffffffffffffffffffffffffffffffffff1673ffffffffffffffffffffffffffffffffffffffff163373ffffffffffffffffffffffffffffffffffffffff1614610e7157600080fd5b6005600760146101000a81548160ff02191690836005811115610e9757610e9661343a565b5b02179055503373ffffffffffffffffffffffffffffffffffffffff166108fc479081150290604051600060405180830381858888f19350505050158015610ee2573d6000803e3d6000fd5b50565b601081565b600660009054906101000a900473ffffffffffffffffffffffffffffffffffffffff1681565b600260009054906101000a900473ffffffffffffffffffffffffffffffffffffffff1681565b600160029054906101000a900473ffffffffffffffffffffffffffffffffffffffff1681565b600160029054906101000a900473ffffffffffffffffffffffffffffffffffffffff1673ffffffffffffffffffffffffffffffffffffffff163373ffffffffffffffffffffffffffffffffffffffff1614806110055750600260009054906101000a900473ffffffffffffffffffffffffffffffffffffffff1673ffffffffffffffffffffffffffffffffffffffff163373ffffffffffffffffffffffffffffffffffffffff16145b61100e57600080fd5b600260058111156110225761102161343a565b5b600760149054906101000a900460ff1660058111156110445761104361343a565b5b148061108357506003600581111561105f5761105e61343a565b5b600760149054906101000a900460ff1660058111156110815761108061343a565b5b145b806110c157506002600581111561109d5761109c61343a565b5b600760149054906101000a900460ff1660058111156110bf576110be61343a565b5b145b6110ca57600080fd5b6000600160029054906101000a900473ffffffffffffffffffffffffffffffffffffffff1673ffffffffffffffffffffffffffffffffffffffff163373ffffffffffffffffffffffffffffffffffffffff161461114957600160029054906101000a900473ffffffffffffffffffffffffffffffffffffffff1661116d565b600260009054906101000a900473ffffffffffffffffffffffffffffffffffffffff165b9050600360008273ffffffffffffffffffffffffffffffffffffffff1673ffffffffffffffffffffffffffffffffffffffff16815260200190815260200160002060000160009054906101000a900460ff16156111c957600080fd5b600260058111156111dd576111dc61343a565b5b600760149054906101000a900460ff1660058111156111ff576111fe61343a565b5b0361128c576000801b600360008373ffffffffffffffffffffffffffffffffffffffff1673ffffffffffffffffffffffffffffffffffffffff168152602001908152602001600020600101541461128b576040517f08c379a000000000000000000000000000000000000000000000000000000000815260040161128290613e23565b60405180910390fd5b5b600360058111156112a05761129f61343a565b5b600760149054906101000a900460ff1660058111156112c2576112c161343a565b5b03611358578073ffffffffffffffffffffffffffffffffffffffff16600660009054906101000a900473ffffffffffffffffffffffffffffffffffffffff1673ffffffffffffffffffffffffffffffffffffffff1614611357576040517f08c379a000000000000000000000000000000000000000000000000000000000815260040161134e90613eb5565b60405180910390fd5b5b7f1a57b5e70fad11389febe9938025db4c3ee52d0bde2fcf22527149b81444c2ca816040516113879190613505565b60405180910390a16001600360008373ffffffffffffffffffffffffffffffffffffffff1673ffffffffffffffffffffffffffffffffffffffff16815260200190815260200160002060000160006101000a81548160ff0219169083151502179055506005436113f79190613f04565b60008190555050565b600460058111156114145761141361343a565b5b600760149054906101000a900460ff1660058111156114365761143561343a565b5b1461144057600080fd5b600760009054906101000a900473ffffffffffffffffffffffffffffffffffffffff1673ffffffffffffffffffffffffffffffffffffffff163373ffffffffffffffffffffffffffffffffffffffff161461149a57600080fd5b81518351146114a857600080fd5b80518351146114b657600080fd5b6000600160029054906101000a900473ffffffffffffffffffffffffffffffffffffffff1673ffffffffffffffffffffffffffffffffffffffff163373ffffffffffffffffffffffffffffffffffffffff161461153557600160029054906101000a900473ffffffffffffffffffffffffffffffffffffffff16611559565b600260009054906101000a900473ffffffffffffffffffffffffffffffffffffffff165b905060006115ad8787878787600360003373ffffffffffffffffffffffffffffffffffffffff1673ffffffffffffffffffffffffffffffffffffffff16815260200190815260200160002060010154612d28565b6115c1576115ba82612e28565b5050611650565b60018054906101000a900460ff1660ff16600360008473ffffffffffffffffffffffffffffffffffffffff1673ffffffffffffffffffffffffffffffffffffffff16815260200190815260200160002060020160009054906101000a900460ff168261162d9190613f38565b60ff16036116435761163e33612e28565b61164d565b61164c82612e28565b5b50505b5050505050565b600160009054906101000a900460ff1681565b604081565b600160029054906101000a900473ffffffffffffffffffffffffffffffffffffffff1673ffffffffffffffffffffffffffffffffffffffff163373ffffffffffffffffffffffffffffffffffffffff1614806117185750600260009054906101000a900473ffffffffffffffffffffffffffffffffffffffff1673ffffffffffffffffffffffffffffffffffffffff163373ffffffffffffffffffffffffffffffffffffffff16145b61172157600080fd5b600160058111156117355761173461343a565b5b600760149054906101000a900460ff1660058111156117575761175661343a565b5b1461176157600080fd5b80600460003373ffffffffffffffffffffffffffffffffffffffff1673ffffffffffffffffffffffffffffffffffffffff168152602001908152602001600020819055503373ffffffffffffffffffffffffffffffffffffffff167f4a8a2c0cf89add878b8fd9d1a4868d4b9536b6cbedec55c1b1eb3a5fa4cfdca2826040516117eb919061331a565b60405180910390a250565b600760009054906101000a900473ffffffffffffffffffffffffffffffffffffffff1681565b600160029054906101000a900473ffffffffffffffffffffffffffffffffffffffff1673ffffffffffffffffffffffffffffffffffffffff163373ffffffffffffffffffffffffffffffffffffffff1614806118c55750600260009054906101000a900473ffffffffffffffffffffffffffffffffffffffff1673ffffffffffffffffffffffffffffffffffffffff163373ffffffffffffffffffffffffffffffffffffffff16145b6118ce57600080fd5b600260058111156118e2576118e161343a565b5b600760149054906101000a900460ff1660058111156119045761190361343a565b5b148061194357506003600581111561191f5761191e61343a565b5b600760149054906101000a900460ff1660058111156119415761194061343a565b5b145b8061198157506002600581111561195d5761195c61343a565b5b600760149054906101000a900460ff16600581111561197f5761197e61343a565b5b145b61198a57600080fd5b6000600160029054906101000a900473ffffffffffffffffffffffffffffffffffffffff1673ffffffffffffffffffffffffffffffffffffffff163373ffffffffffffffffffffffffffffffffffffffff1614611a0957600160029054906101000a900473ffffffffffffffffffffffffffffffffffffffff16611a2d565b600260009054906101000a900473ffffffffffffffffffffffffffffffffffffffff165b9050600360008273ffffffffffffffffffffffffffffffffffffffff1673ffffffffffffffffffffffffffffffffffffffff16815260200190815260200160002060000160009054906101000a900460ff168015611a8d57506000544310155b611a9657600080fd5b611a9f33612e28565b50565b60036020528060005260406000206000915090508060000160009054906101000a900460ff16908060000160019054906101000a900460ff16908060010154908060020160009054906101000a900460ff16905084565b600a81565b6060600360008373ffffffffffffffffffffffffffffffffffffffff1673ffffffffffffffffffffffffffffffffffffffff168152602001908152602001600020600301805480602002602001604051908101604052809291908181526020016000905b82821015611be8578382906000526020600020016040518060400160405290816000820160009054906101000a900460ff1660ff1660ff1681526020016000820160019054906101000a900460ff166002811115611bc357611bc261343a565b5b6002811115611bd557611bd461343a565b5b8152505081526020019060010190611b62565b505050509050919050565b60036005811115611c0757611c0661343a565b5b600760149054906101000a900460ff166005811115611c2957611c2861343a565b5b14611c3357600080fd5b600660009054906101000a900473ffffffffffffffffffffffffffffffffffffffff1673ffffffffffffffffffffffffffffffffffffffff163373ffffffffffffffffffffffffffffffffffffffff1614611c8d57600080fd5b6000600160029054906101000a900473ffffffffffffffffffffffffffffffffffffffff1673ffffffffffffffffffffffffffffffffffffffff163373ffffffffffffffffffffffffffffffffffffffff1614611d0c57600160029054906101000a900473ffffffffffffffffffffffffffffffffffffffff16611d30565b600260009054906101000a900473ffffffffffffffffffffffffffffffffffffffff165b905060006002811115611d4657611d4561343a565b5b600360008373ffffffffffffffffffffffffffffffffffffffff1673ffffffffffffffffffffffffffffffffffffffff1681526020019081526020016000206003016001600360008573ffffffffffffffffffffffffffffffffffffffff1673ffffffffffffffffffffffffffffffffffffffff16815260200190815260200160002060030180549050611dda9190613f6d565b81548110611deb57611dea613fa1565b5b9060005260206000200160000160019054906101000a900460ff166002811115611e1857611e1761343a565b5b14611e2657611e25613fd0565b5b8360ff16600360008373ffffffffffffffffffffffffffffffffffffffff1673ffffffffffffffffffffffffffffffffffffffff1681526020019081526020016000206003016001600360008573ffffffffffffffffffffffffffffffffffffffff1673ffffffffffffffffffffffffffffffffffffffff16815260200190815260200160002060030180549050611ebe9190613f6d565b81548110611ecf57611ece613fa1565b5b9060005260206000200160000160009054906101000a900460ff1660ff1614611ef757600080fd5b611f4686868686600360003373ffffffffffffffffffffffffffffffffffffffff1673ffffffffffffffffffffffffffffffffffffffff16815260200190815260200160002060010154612ece565b611f5957611f5381612e28565b506122b0565b85156121c9576001600360008373ffffffffffffffffffffffffffffffffffffffff1673ffffffffffffffffffffffffffffffffffffffff1681526020019081526020016000206003016001600360008573ffffffffffffffffffffffffffffffffffffffff1673ffffffffffffffffffffffffffffffffffffffff16815260200190815260200160002060030180549050611ff59190613f6d565b8154811061200657612005613fa1565b5b9060005260206000200160000160016101000a81548160ff021916908360028111156120355761203461343a565b5b0217905550600360003373ffffffffffffffffffffffffffffffffffffffff1673ffffffffffffffffffffffffffffffffffffffff168152602001908152602001600020600201600081819054906101000a900460ff168092919061209990613fff565b91906101000a81548160ff021916908360ff1602179055505060018054906101000a900460ff1660ff16600360003373ffffffffffffffffffffffffffffffffffffffff1673ffffffffffffffffffffffffffffffffffffffff16815260200190815260200160002060020160009054906101000a900460ff1660ff16036121c45780600760006101000a81548173ffffffffffffffffffffffffffffffffffffffff021916908373ffffffffffffffffffffffffffffffffffffffff1602179055506004600760146101000a81548160ff021916908360058111156121825761218161343a565b5b02179055507f745c90b656b4aafe296c8ca35aeacfe56cb96c90e1d320e5da643fff1051b6c0816040516121b69190613505565b60405180910390a1506122b0565b6122a5565b6002600360008373ffffffffffffffffffffffffffffffffffffffff1673ffffffffffffffffffffffffffffffffffffffff1681526020019081526020016000206003016001600360008573ffffffffffffffffffffffffffffffffffffffff1673ffffffffffffffffffffffffffffffffffffffff1681526020019081526020016000206003018054905061225f9190613f6d565b815481106122705761226f613fa1565b5b9060005260206000200160000160016101000a81548160ff0219169083600281111561229f5761229e61343a565b5b02179055505b6122ae82612979565b505b5050505050565b600160029054906101000a900473ffffffffffffffffffffffffffffffffffffffff1673ffffffffffffffffffffffffffffffffffffffff163373ffffffffffffffffffffffffffffffffffffffff1614806123605750600260009054906101000a900473ffffffffffffffffffffffffffffffffffffffff1673ffffffffffffffffffffffffffffffffffffffff163373ffffffffffffffffffffffffffffffffffffffff16145b61236957600080fd5b6002600581111561237d5761237c61343a565b5b600760149054906101000a900460ff16600581111561239f5761239e61343a565b5b146123a957600080fd5b6000801b600360003373ffffffffffffffffffffffffffffffffffffffff1673ffffffffffffffffffffffffffffffffffffffff16815260200190815260200160002060010154146123fa57600080fd5b80600360003373ffffffffffffffffffffffffffffffffffffffff1673ffffffffffffffffffffffffffffffffffffffff168152602001908152602001600020600101819055506000801b60036000600160029054906101000a900473ffffffffffffffffffffffffffffffffffffffff1673ffffffffffffffffffffffffffffffffffffffff1673ffffffffffffffffffffffffffffffffffffffff168152602001908152602001600020600101541415801561251f57506000801b60036000600260009054906101000a900473ffffffffffffffffffffffffffffffffffffffff1673ffffffffffffffffffffffffffffffffffffffff1673ffffffffffffffffffffffffffffffffffffffff1681526020019081526020016000206001015414155b1561265d57600060036000600160029054906101000a900473ffffffffffffffffffffffffffffffffffffffff1673ffffffffffffffffffffffffffffffffffffffff1673ffffffffffffffffffffffffffffffffffffffff16815260200190815260200160002060020160006101000a81548160ff021916908360ff1602179055506003600760146101000a81548160ff021916908360058111156125c8576125c761343a565b5b02179055507f48c0ac148c6adb019cea448b4b78c69778a7b6abdfadce9a6acdc8b983e94bee60405160405180910390a1600260009054906101000a900473ffffffffffffffffffffffffffffffffffffffff16600660006101000a81548173ffffffffffffffffffffffffffffffffffffffff021916908373ffffffffffffffffffffffffffffffffffffffff1602179055505b50565b600160029054906101000a900473ffffffffffffffffffffffffffffffffffffffff1673ffffffffffffffffffffffffffffffffffffffff163373ffffffffffffffffffffffffffffffffffffffff1614806127095750600260009054906101000a900473ffffffffffffffffffffffffffffffffffffffff1673ffffffffffffffffffffffffffffffffffffffff163373ffffffffffffffffffffffffffffffffffffffff16145b61271257600080fd5b60011515600360003373ffffffffffffffffffffffffffffffffffffffff1673ffffffffffffffffffffffffffffffffffffffff16815260200190815260200160002060000160019054906101000a900460ff1615151461277257600080fd5b6000600160029054906101000a900473ffffffffffffffffffffffffffffffffffffffff1673ffffffffffffffffffffffffffffffffffffffff163373ffffffffffffffffffffffffffffffffffffffff16146127f157600160029054906101000a900473ffffffffffffffffffffffffffffffffffffffff16612815565b600260009054906101000a900473ffffffffffffffffffffffffffffffffffffffff165b905061282081612e28565b50565b600581565b60018054906101000a900460ff1681565b6000600581111561284d5761284c61343a565b5b600760149054906101000a900460ff16600581111561286f5761286e61343a565b5b1461287957600080fd5b600073ffffffffffffffffffffffffffffffffffffffff16600260009054906101000a900473ffffffffffffffffffffffffffffffffffffffff1673ffffffffffffffffffffffffffffffffffffffff161461290a576040517f08c379a000000000000000000000000000000000000000000000000000000000815260040161290190614074565b60405180910390fd5b80600260006101000a81548173ffffffffffffffffffffffffffffffffffffffff021916908373ffffffffffffffffffffffffffffffffffffffff1602179055506001600760146101000a81548160ff021916908360058111156129715761297061343a565b5b021790555050565b60001515600360003373ffffffffffffffffffffffffffffffffffffffff1673ffffffffffffffffffffffffffffffffffffffff16815260200190815260200160002060040160008360ff1660ff16815260200190815260200160002060009054906101000a900460ff16151514612a26576040517f08c379a0000000000000000000000000000000000000000000000000000000008152600401612a1d906140e0565b60405180910390fd5b600160009054906101000a900460ff1660ff168160ff1610612a7d576040517f08c379a0000000000000000000000000000000000000000000000000000000008152600401612a7490614172565b60405180910390fd5b6001600360003373ffffffffffffffffffffffffffffffffffffffff1673ffffffffffffffffffffffffffffffffffffffff16815260200190815260200160002060040160008360ff1660ff16815260200190815260200160002060006101000a81548160ff021916908315150217905550600360003373ffffffffffffffffffffffffffffffffffffffff1673ffffffffffffffffffffffffffffffffffffffff16815260200190815260200160002060030160405180604001604052808360ff16815260200160006002811115612b5957612b5861343a565b5b8152509080600181540180825580915050600190039060005260206000200160009091909190915060008201518160000160006101000a81548160ff021916908360ff16021790555060208201518160000160016101000a81548160ff02191690836002811115612bcd57612bcc61343a565b5b021790555050503373ffffffffffffffffffffffffffffffffffffffff167f665e09da1c684bb4ada2b5c04fe0bb20328ca455aae1928734e0a40dcf0e099e82604051612c1a91906134db565b60405180910390a2600160029054906101000a900473ffffffffffffffffffffffffffffffffffffffff1673ffffffffffffffffffffffffffffffffffffffff16600660009054906101000a900473ffffffffffffffffffffffffffffffffffffffff1673ffffffffffffffffffffffffffffffffffffffff1614612cc157600160029054906101000a900473ffffffffffffffffffffffffffffffffffffffff16612ce5565b600260009054906101000a900473ffffffffffffffffffffffffffffffffffffffff165b600660006101000a81548173ffffffffffffffffffffffffffffffffffffffff021916908373ffffffffffffffffffffffffffffffffffffffff16021790555050565b600080855167ffffffffffffffff811115612d4657612d45613536565b5b604051908082528060200260200182016040528015612d745781602001602082028036833780820191505090505b50905060005b8651811015612e0e57612ddc878281518110612d9957612d98613fa1565b5b6020026020010151878381518110612db457612db3613fa1565b5b6020026020010151878481518110612dcf57612dce613fa1565b5b6020026020010151612ef5565b828281518110612def57612dee613fa1565b5b6020026020010181815250508080612e0690614192565b915050612d7a565b50612e1b88888584612f51565b9150509695505050505050565b7fe48a335438ec9cf1059d7b134553ca861398a18d023bd34b9e4d956f5f7ba00481604051612e579190613505565b60405180910390a180600760006101000a81548173ffffffffffffffffffffffffffffffffffffffff021916908373ffffffffffffffffffffffffffffffffffffffff1602179055506005600760146101000a81548160ff02191690836005811115612ec657612ec561343a565b5b021790555050565b600080612edc878787612ef5565b9050612ee9848483612f6a565b91505095945050505050565b6000838383604051602001612f0c939291906141da565b60405160208183030381529060405280519060200120604051602001612f329190614232565b6040516020818303038152906040528051906020012090509392505050565b600082612f5f868685612f81565b149050949350505050565b600082612f778584613269565b1490509392505050565b600080825190506000855190506000855190508060018385612fa39190613f04565b612fad9190613f6d565b14612fed576040517f08c379a0000000000000000000000000000000000000000000000000000000008152600401612fe490614299565b60405180910390fd5b60008167ffffffffffffffff81111561300957613008613536565b5b6040519080825280602002602001820160405280156130375781602001602082028036833780820191505090505b5090506000806000805b8581101561319157600088851061307e5785848061305e90614192565b95508151811061307157613070613fa1565b5b60200260200101516130a6565b8a858061308a90614192565b96508151811061309d5761309c613fa1565b5b60200260200101515b905060008c83815181106130bd576130bc613fa1565b5b60200260200101516130f5578d84806130d590614192565b9550815181106130e8576130e7613fa1565b5b6020026020010151613151565b8986106131285786858061310890614192565b96508151811061311b5761311a613fa1565b5b6020026020010151613150565b8b868061313490614192565b97508151811061314757613146613fa1565b5b60200260200101515b5b905061315d82826132bf565b8784815181106131705761316f613fa1565b5b6020026020010181815250505050808061318990614192565b915050613041565b506000851115613209578581146131dd576040517f08c379a00000000000000000000000000000000000000000000000000000000081526004016131d490614299565b60405180910390fd5b8360018603815181106131f3576131f2613fa1565b5b6020026020010151975050505050505050613262565b600087111561323c578860008151811061322657613225613fa1565b5b6020026020010151975050505050505050613262565b8a6000815181106132505761324f613fa1565b5b60200260200101519750505050505050505b9392505050565b60008082905060005b84518110156132b45761329f8286838151811061329257613291613fa1565b5b60200260200101516132bf565b915080806132ac90614192565b915050613272565b508091505092915050565b60008183106132d7576132d282846132ea565b6132e2565b6132e183836132ea565b5b905092915050565b600082600052816020526040600020905092915050565b6000819050919050565b61331481613301565b82525050565b600060208201905061332f600083018461330b565b92915050565b6000604051905090565b600080fd5b600080fd5b600060ff82169050919050565b61335f81613349565b811461336a57600080fd5b50565b60008135905061337c81613356565b92915050565b6000602082840312156133985761339761333f565b5b60006133a68482850161336d565b91505092915050565b600073ffffffffffffffffffffffffffffffffffffffff82169050919050565b60006133da826133af565b9050919050565b6133ea816133cf565b81146133f557600080fd5b50565b600081359050613407816133e1565b92915050565b6000602082840312156134235761342261333f565b5b6000613431848285016133f8565b91505092915050565b7f4e487b7100000000000000000000000000000000000000000000000000000000600052602160045260246000fd5b6006811061347a5761347961343a565b5b50565b600081905061348b82613469565b919050565b600061349b8261347d565b9050919050565b6134ab81613490565b82525050565b60006020820190506134c660008301846134a2565b92915050565b6134d581613349565b82525050565b60006020820190506134f060008301846134cc565b92915050565b6134ff816133cf565b82525050565b600060208201905061351a60008301846134f6565b92915050565b600080fd5b6000601f19601f8301169050919050565b7f4e487b7100000000000000000000000000000000000000000000000000000000600052604160045260246000fd5b61356e82613525565b810181811067ffffffffffffffff8211171561358d5761358c613536565b5b80604052505050565b60006135a0613335565b90506135ac8282613565565b919050565b600067ffffffffffffffff8211156135cc576135cb613536565b5b602082029050602081019050919050565b600080fd5b6000819050919050565b6135f5816135e2565b811461360057600080fd5b50565b600081359050613612816135ec565b92915050565b600061362b613626846135b1565b613596565b9050808382526020820190506020840283018581111561364e5761364d6135dd565b5b835b8181101561367757806136638882613603565b845260208401935050602081019050613650565b5050509392505050565b600082601f83011261369657613695613520565b5b81356136a6848260208601613618565b91505092915050565b600067ffffffffffffffff8211156136ca576136c9613536565b5b602082029050602081019050919050565b60008115159050919050565b6136f0816136db565b81146136fb57600080fd5b50565b60008135905061370d816136e7565b92915050565b6000613726613721846136af565b613596565b90508083825260208201905060208402830185811115613749576137486135dd565b5b835b81811015613772578061375e88826136fe565b84526020840193505060208101905061374b565b5050509392505050565b600082601f83011261379157613790613520565b5b81356137a1848260208601613713565b91505092915050565b600067ffffffffffffffff8211156137c5576137c4613536565b5b602082029050602081019050919050565b6137df81613301565b81146137ea57600080fd5b50565b6000813590506137fc816137d6565b92915050565b6000613815613810846137aa565b613596565b90508083825260208201905060208402830185811115613838576138376135dd565b5b835b81811015613861578061384d88826137ed565b84526020840193505060208101905061383a565b5050509392505050565b600082601f8301126138805761387f613520565b5b8135613890848260208601613802565b91505092915050565b600067ffffffffffffffff8211156138b4576138b3613536565b5b602082029050602081019050919050565b60006138d86138d384613899565b613596565b905080838252602082019050602084028301858111156138fb576138fa6135dd565b5b835b818110156139245780613910888261336d565b8452602084019350506020810190506138fd565b5050509392505050565b600082601f83011261394357613942613520565b5b81356139538482602086016138c5565b91505092915050565b600080600080600060a086880312156139785761397761333f565b5b600086013567ffffffffffffffff81111561399657613995613344565b5b6139a288828901613681565b955050602086013567ffffffffffffffff8111156139c3576139c2613344565b5b6139cf8882890161377c565b945050604086013567ffffffffffffffff8111156139f0576139ef613344565b5b6139fc8882890161377c565b935050606086013567ffffffffffffffff811115613a1d57613a1c613344565b5b613a298882890161386b565b925050608086013567ffffffffffffffff811115613a4a57613a49613344565b5b613a568882890161392e565b9150509295509295909350565b600060208284031215613a7957613a7861333f565b5b6000613a87848285016137ed565b91505092915050565b613a99816136db565b82525050565b613aa8816135e2565b82525050565b6000608082019050613ac36000830187613a90565b613ad06020830186613a90565b613add6040830185613a9f565b613aea60608301846134cc565b95945050505050565b600081519050919050565b600082825260208201905092915050565b6000819050602082019050919050565b613b2881613349565b82525050565b60038110613b3f57613b3e61343a565b5b50565b6000819050613b5082613b2e565b919050565b6000613b6082613b42565b9050919050565b613b7081613b55565b82525050565b604082016000820151613b8c6000850182613b1f565b506020820151613b9f6020850182613b67565b50505050565b6000613bb18383613b76565b60408301905092915050565b6000602082019050919050565b6000613bd582613af3565b613bdf8185613afe565b9350613bea83613b0f565b8060005b83811015613c1b578151613c028882613ba5565b9750613c0d83613bbd565b925050600181019050613bee565b5085935050505092915050565b60006020820190508181036000830152613c428184613bca565b905092915050565b600080600080600060a08688031215613c6657613c6561333f565b5b6000613c74888289016136fe565b9550506020613c85888289016137ed565b9450506040613c968882890161336d565b935050606086013567ffffffffffffffff811115613cb757613cb6613344565b5b613cc388828901613681565b9250506080613cd48882890161336d565b9150509295509295909350565b600060208284031215613cf757613cf661333f565b5b6000613d0584828501613603565b91505092915050565b600082825260208201905092915050565b7f54686520616d6f756e742070726f706f736564206973206e6f742076616c696460008201527f2100000000000000000000000000000000000000000000000000000000000000602082015250565b6000613d7b602183613d0e565b9150613d8682613d1f565b604082019050919050565b60006020820190508181036000830152613daa81613d6e565b9050919050565b7f5468652067616d652069732077616974696e6720666f7220796f757220626f6160008201527f72642120596f752063616e2774207265706f7274206e6f772e00000000000000602082015250565b6000613e0d603983613d0e565b9150613e1882613db1565b604082019050919050565b60006020820190508181036000830152613e3c81613e00565b9050919050565b7f497420697320796f7572207475726e2120596f752063616e2774207265706f7260008201527f74206e6f772e0000000000000000000000000000000000000000000000000000602082015250565b6000613e9f602683613d0e565b9150613eaa82613e43565b604082019050919050565b60006020820190508181036000830152613ece81613e92565b9050919050565b7f4e487b7100000000000000000000000000000000000000000000000000000000600052601160045260246000fd5b6000613f0f82613301565b9150613f1a83613301565b9250828201905080821115613f3257613f31613ed5565b5b92915050565b6000613f4382613349565b9150613f4e83613349565b9250828201905060ff811115613f6757613f66613ed5565b5b92915050565b6000613f7882613301565b9150613f8383613301565b9250828203905081811115613f9b57613f9a613ed5565b5b92915050565b7f4e487b7100000000000000000000000000000000000000000000000000000000600052603260045260246000fd5b7f4e487b7100000000000000000000000000000000000000000000000000000000600052600160045260246000fd5b600061400a82613349565b915060ff820361401d5761401c613ed5565b5b600182019050919050565b7f546869732067616d65206973206e6f7420617661696c61626c65210000000000600082015250565b600061405e601b83613d0e565b915061406982614028565b602082019050919050565b6000602082019050818103600083015261408d81614051565b9050919050565b7f596f75206861766520616c72656164792073686f7420746861742063656c6c00600082015250565b60006140ca601f83613d0e565b91506140d582614094565b602082019050919050565b600060208201905081810360008301526140f9816140bd565b9050919050565b7f5468652073686f7420697320696e76616c696420666f7220746865206375727260008201527f656e74206d61702073697a652100000000000000000000000000000000000000602082015250565b600061415c602d83613d0e565b915061416782614100565b604082019050919050565b6000602082019050818103600083015261418b8161414f565b9050919050565b600061419d82613301565b91507fffffffffffffffffffffffffffffffffffffffffffffffffffffffffffffffff82036141cf576141ce613ed5565b5b600182019050919050565b60006060820190506141ef6000830186613a90565b6141fc602083018561330b565b61420960408301846134cc565b949350505050565b6000819050919050565b61422c614227826135e2565b614211565b82525050565b600061423e828461421b565b60208201915081905092915050565b7f4d65726b6c6550726f6f663a20696e76616c6964206d756c746970726f6f6600600082015250565b6000614283601f83613d0e565b915061428e8261424d565b602082019050919050565b600060208201905081810360008301526142b281614276565b905091905056fea2646970667358221220fcc7ac22dc12f90e5029a5ad0447506cb1207a356efb68dd276ffdd3893bc99564736f6c63430008130033",
  "immutableReferences": {},
  "source": "// SPDX-License-Identifier: MIT\npragma solidity >=0.4.22 <0.9.0;\nimport \"@openzeppelin/contracts/utils/cryptography/MerkleProof.sol\";\n\ncontract Game {\n    // Field size, the game owner can choose to generate a normal or small (faster) match.\n    uint8 public constant BOARD_Small = 4 * 4;\n    uint8 public constant BOARD_Normal = 8 * 8;\n\n    // Fleet size, it is proportional to the game size.\n    uint8 public constant FLEET_Small = 5;\n    uint8 public constant FLEET_Normal = 10;\n\n    // Is the block number after which the player can be considered AFK.\n    uint public afk_timeout;\n\n    // Actual size of the game.\n    uint8 public boardSize;\n    uint8 public fleetSize;\n\n    /*\n     * Different shot state:\n     * Taken represent a shot which result is still not checked.\n     * Hit represent a shot that has hit a ship.\n     * Miss represent a shot that missed.\n     */\n    enum ShotState {\n        Taken,\n        Hit,\n        Miss\n    }\n\n    /*\n     * Shot structure:\n     * index represent the position on the board.\n     * state is the ShotState.\n     */\n    struct Shot {\n        uint8 index;\n        ShotState state;\n    }\n\n    /*\n     * afk is a boolean value that represent if the player is reported as afk.\n     * Player structure:\n     * hasPaid represent if the player has funded.\n     * board is the merkle tree root of the merkle tree representing the board.\n     * hits is the number of ship the player has hit.\n     * shotsTaken and shotsTakenMap maps the shots taken so far by the player.\n     */\n    struct Player {\n        bool afk;\n        bool hasPaid;\n        bytes32 board;\n        uint8 hits;\n        Shot[] shotsTaken;\n        mapping(uint8 => bool) shotsTakenMap;\n    }\n\n    // Addresses of the two Players.\n    address public owner;\n    address public adversary;\n\n    // Mapping used to store all the information about the Players.\n    mapping(address => Player) public players;\n\n    // Queue of all the proposed bets.\n    mapping(address => uint256) public betsQueue;\n\n    // Final agreement on the bet amount.\n    uint256 public bet;\n\n    // Current turn.\n    address public turn;\n\n    // Winner of the game.\n    address public winner;\n\n    /*Different phases of the game\n     * Waiting: game  successfully created and waiting for a second player to join.\n     * Betting: waiting for the two players to reach an agreement on the bet.\n     * Funding: waiting for the two player to deposit the bet amount.\n     * Placement: waiting for the two players to commit their board.\n     * Attack: the players shot a torpedo per turn .\n     * Winner: one of the player has hit all the opponent ships and is declared as winner.\n     * End: the game is terminated and the winner can withdraw the amount he has won.\n     */\n    enum Phase {\n        Waiting,\n        Betting,\n        Placement,\n        Attack,\n        Winner,\n        End\n    }\n\n    // Current game phase\n    Phase public gamePhase;\n\n    ////////////\n    ///EVENTS///\n    ////////////\n\n    // Emitted when a player propos an amount as bet.\n    event BetProposal(address indexed player, uint256 amount);\n\n    // Emitted when players have agreed on the bet.\n    event BetAgreed(uint256 amount);\n\n    // Emitted when both players have deposited the agreed amount.\n    event FundsDeposited();\n\n    // Emitted when both players have committed their boards.\n    event BoardsCommitted();\n\n    // Informs the opponent that cell indexed by `cell` has been shot.\n    event ShotTaken(address indexed player, uint8 cell);\n\n    // Informs that the game has a winner.\n    event Winner(address player);\n\n    // Winner board has been correctly verified.\n    event WinnerVerified(address player);\n\n    // A player is reported as AFK\n    event PlayerAFK(address player);\n\n    ///////////////\n    ///MODIFIERS///\n    ///////////////\n\n    // Modifiers used to check if a function is called by a legit actor.\n    modifier onlyOwner() {\n        require(msg.sender == owner);\n        _;\n    }\n\n    modifier onlyPlayer() {\n        require(msg.sender == owner || msg.sender == adversary);\n        _;\n    }\n\n    modifier onlyWinner() {\n        require(msg.sender == winner);\n        _;\n    }\n\n    modifier isPlayerTurn() {\n        require(msg.sender == turn);\n        _;\n    }\n\n    modifier noFund() {\n        require(players[msg.sender].hasPaid != true);\n        _;\n    }\n\n    modifier Fund() {\n        require(players[msg.sender].hasPaid == true);\n        _;\n    }\n\n    // Modifiers used to check if a function is called in a legit game phase.\n    modifier phaseWaiting() {\n        require(gamePhase == Phase.Waiting);\n        _;\n    }\n\n    modifier phaseBetting() {\n        require(gamePhase == Phase.Betting);\n        _;\n    }\n\n    modifier phasePlacement() {\n        require(gamePhase == Phase.Placement);\n        _;\n    }\n\n    modifier phaseAttack() {\n        require(gamePhase == Phase.Attack);\n        _;\n    }\n\n    modifier phaseWinner() {\n        require(gamePhase == Phase.Winner);\n        _;\n    }\n\n    modifier phaseEnd() {\n        require(gamePhase == Phase.End);\n        _;\n    }\n\n    // A player can be reported as AFK only during Placement and Attack phases.\n    modifier afkAllowed() {\n        require(\n            gamePhase == Phase.Placement ||\n                gamePhase == Phase.Attack ||\n                gamePhase == Phase.Placement\n        );\n        _;\n    }\n\n    ///////////////\n    ////PUBLIC/////\n    ///FUNCTIONS///\n    ///////////////\n\n    /*Constructor, used to initialize a game*/\n    constructor(address _owner, bool _small) {\n        owner = _owner;\n        // Initialize the board and fleet size\n        _small ? boardSize = BOARD_Small : boardSize = BOARD_Normal;\n        _small ? fleetSize = FLEET_Small : fleetSize = FLEET_Normal;\n        gamePhase = Phase.Waiting;\n    }\n\n    /*Function used to register a player as adversary.*/\n    function matchJoin(address _adversary) external phaseWaiting {\n        require(adversary == address(0), \"This game is not available!\");\n        adversary = _adversary;\n        gamePhase = Phase.Betting;\n    }\n\n    /*Function used to propose a new bet*/\n    function proposeBet(uint256 _amount) external onlyPlayer phaseBetting {\n        betsQueue[msg.sender] = _amount;\n        emit BetProposal(msg.sender, _amount);\n    }\n\n    /*Function used to accept the opponent bet propose.*/\n    function acceptBet() external onlyPlayer phaseBetting {\n        require(\n            ((msg.sender == owner && betsQueue[adversary] != 0) ||\n                (msg.sender == adversary && betsQueue[owner] != 0)),\n            \"The amount proposed is not valid!\"\n        );\n\n        address opponent = msg.sender == owner ? adversary : owner;\n\n        // Set the game bet and emit BetAgreed event.\n        bet = betsQueue[opponent];\n        emit BetAgreed(bet);\n    }\n\n    /*Function callable in Funding phase by a player that has not fund yet\n    to deposit the bet amount.*/\n    function betFunds() external payable onlyPlayer noFund phaseBetting {\n        require(msg.value == bet);\n        players[msg.sender].hasPaid = true;\n\n        // If both have paid, move on to the next phase and emit FundDeposited event.\n        if (players[owner].hasPaid && players[adversary].hasPaid) {\n            emit FundsDeposited();\n            gamePhase = Phase.Placement;\n        }\n    }\n\n    /*Function that can be used to forfeit, the adversary automatically wins.\n     * Can be called only if the player has fund his bet (after Funding phase)*/\n    function forfeit() external onlyPlayer Fund {\n        address opponent = msg.sender == owner ? adversary : owner;\n        _declareWinner(opponent);\n    }\n\n    /*Function callable in Placement phase by a player to commit his board.*/\n    function commitBoard(bytes32 _board) external onlyPlayer phasePlacement {\n        require(players[msg.sender].board == 0);\n        players[msg.sender].board = _board;\n\n        // If both have committed their board move on and emit BoardsCommitted event.\n        if (players[owner].board != 0 && players[adversary].board != 0) {\n            players[owner].hits = 0;\n            gamePhase = Phase.Attack;\n            emit BoardsCommitted();\n            //The first shot is for the adversary.\n            turn = adversary;\n        }\n    }\n\n    /*Function callable to retrieve the shot of a target player.*/\n    function getShotsTaken(\n        address _player\n    ) external view returns (Shot[] memory) {\n        return players[_player].shotsTaken;\n    }\n\n    // Function used only for the first attack (it has not check phase).\n    function attack(uint8 _index) external phaseAttack isPlayerTurn {\n        _attack(_index);\n    }\n\n    /*Function that checks the result of the previous taken shot and perform an attack.\n    this function allows to perform the check and the shot of two attacks in a single \n    transaction, the player first confirms the last shot taken by providing proof \n    of the target node and then fires a shot\n    */\n    function checkAndAttack(\n        bool _isShip,\n        uint256 _salt,\n        uint8 _index,\n        bytes32[] memory _proof,\n        uint8 _attackIndex\n    ) external phaseAttack isPlayerTurn {\n        // Retrieving the last unconfirmed shot of the opponent.\n        address opponent = msg.sender == owner ? adversary : owner;\n\n        assert(\n            players[opponent]\n                .shotsTaken[players[opponent].shotsTaken.length - 1]\n                .state == ShotState.Taken\n        );\n        require(\n            players[opponent]\n                .shotsTaken[players[opponent].shotsTaken.length - 1]\n                .index == _index\n        );\n\n        // check the proof for the node\n        if (\n            !_checkProof(\n                _isShip,\n                _salt,\n                _index,\n                _proof,\n                players[msg.sender].board\n            )\n        ) {\n            //If the player tried to cheat the result the opponent wins.\n            _declareWinner(opponent);\n            return;\n        }\n\n        //If the player hit a ship\n        if (_isShip) {\n            //Update the shot state and the opponent hits.\n            players[opponent]\n                .shotsTaken[players[opponent].shotsTaken.length - 1]\n                .state = ShotState.Hit;\n            players[msg.sender].hits++;\n\n            // If the opponent has hit all of our ships he wins.\n            if (players[msg.sender].hits == fleetSize) {\n                // Move on to the next phase and emit Winner event.\n                winner = opponent;\n                gamePhase = Phase.Winner;\n                emit Winner(opponent);\n                return;\n            }\n        } else {\n            players[opponent]\n                .shotsTaken[players[opponent].shotsTaken.length - 1]\n                .state = ShotState.Miss;\n        }\n\n        //Perform the attack on the board.\n        _attack(_attackIndex);\n    }\n\n    /*Function that checks the validity of the winner board.*/\n    function checkWinnerBoard(\n        bytes32[] memory _proof,\n        bool[] memory _proofFlags,\n        bool[] memory _cells,\n        uint256[] memory _salts,\n        uint8[] memory _indexes\n    ) external phaseWinner onlyWinner {\n        require(_cells.length == _salts.length);\n        require(_cells.length == _indexes.length);\n        address opponent = msg.sender == owner ? adversary : owner;\n        uint8 ships = 0;\n\n        // As first we verify the multiproof of all the leaves of the board.\n        if (\n            !_checkMultiProof(\n                _proof,\n                _proofFlags,\n                _cells,\n                _salts,\n                _indexes,\n                players[msg.sender].board\n            )\n        ) {\n            _declareWinner(opponent);\n            return;\n        }\n\n        // Check that the required number of ships was placed.\n        if (ships + players[opponent].hits == fleetSize) {\n            _declareWinner(msg.sender);\n        } else {\n            // placement is invalid, player cheated!\n            _declareWinner(opponent);\n        }\n    }\n\n    // Function used to withdraw all the the balance of the contract.\n    function withdraw() external phaseEnd onlyWinner {\n        gamePhase = Phase.End;\n        payable(msg.sender).transfer(address(this).balance);\n    }\n\n    // Function used to report a player as AFK. Can be used only in placing,\n    // attacking e winner phase because in the other phases (Betting, End).\n    // If we are in betting there is no reward yet and if we are in the end\n    // phase we have no interest on the amount of time a player takes to withdraw.\n    function reportAFK() external onlyPlayer afkAllowed {\n        address opponent = msg.sender == owner ? adversary : owner;\n\n        // Verify that the opponent has not been reported before.\n        require(!players[opponent].afk);\n\n        if (gamePhase == Phase.Placement) {\n            // Check that the opponent has not committed the board yet.\n            require(\n                players[opponent].board == 0,\n                \"The game is waiting for your board! You can't report now.\"\n            );\n        }\n\n        if (gamePhase == Phase.Attack) {\n            // Check that is the opponent turn.\n            require(turn == opponent, \"It is your turn! You can't report now.\");\n        }\n\n        emit PlayerAFK(opponent);\n        players[opponent].afk = true;\n        afk_timeout = block.number + 5;\n    }\n\n    function verifyAFK() external onlyPlayer afkAllowed {\n        address opponent = msg.sender == owner ? adversary : owner;\n        require(players[opponent].afk && block.number >= afk_timeout);\n        _declareWinner(msg.sender);\n    }\n\n    ///////////////\n    ////HELPERS////\n    ///////////////\n\n    function _attack(uint8 _index) internal {\n        // Check if the cell is in range and was not shot before.\n        require(\n            players[msg.sender].shotsTakenMap[_index] == false,\n            \"You have already shot that cell\"\n        );\n        require(\n            _index < boardSize,\n            \"The shot is invalid for the current map size!\"\n        );\n\n        // Set the shot as taken.\n        players[msg.sender].shotsTakenMap[_index] = true;\n        players[msg.sender].shotsTaken.push(Shot(_index, ShotState.Taken));\n\n        // Emit a ShotTaken event.\n        emit ShotTaken(msg.sender, _index);\n\n        // Change the turn.\n        turn = turn == owner ? adversary : owner;\n    }\n\n    /* Returns true if a leaf can be proved to be a part of a Merkle tree\n     defined by root. \n     */\n    function _checkProof(\n        bool _isShip,\n        uint256 _salt,\n        uint8 _index,\n        bytes32[] memory _proof,\n        bytes32 _root\n    ) internal pure returns (bool) {\n        // Encode the leaf.\n        bytes32 leaf = _encodeLeaf(_isShip, _salt, _index);\n        // Verify the MerkleProof.\n        return MerkleProof.verify(_proof, _root, leaf);\n    }\n\n    /* Returns true if the leaves can be simultaneously proven to be a part of a merkle tree defined by\n     root. To perform multiproof the tree is traversed up from the leaves and this function should help in\n     saving some gas w.r.t. using MerkleProof.verify() for each single node.\n     */\n    function _checkMultiProof(\n        bytes32[] memory _proof,\n        bool[] memory _proofFlags,\n        bool[] memory _cells,\n        uint256[] memory _salts,\n        uint8[] memory _indexes,\n        bytes32 _root\n    ) internal pure returns (bool) {\n        // Encode each leaf\n        bytes32[] memory leaves = new bytes32[](_cells.length);\n        for (uint i = 0; i < _cells.length; i++) {\n            leaves[i] = _encodeLeaf(_cells[i], _salts[i], _indexes[i]);\n        }\n        // Verify the multiProof on all the leaves.\n        return MerkleProof.multiProofVerify(_proof, _proofFlags, _root, leaves);\n    }\n\n    /*Hashes and encodes the leaf parameters into a 32-byte value.*/\n    function _encodeLeaf(\n        bool _isShip,\n        uint256 _salt,\n        uint8 _index\n    ) internal pure returns (bytes32) {\n        return\n            keccak256(\n                bytes.concat(keccak256(abi.encode(_isShip, _salt, _index)))\n            );\n    }\n\n    /*Set the game winner, set the gamePhase and emit WinnerVerified event*/\n    function _declareWinner(address player) internal {\n        emit WinnerVerified(player);\n        winner = player;\n        gamePhase = Phase.End;\n    }\n}\n",
  "sourcePath": "/home/azk/Desktop/merketh-battleship/backend/contracts/Game.sol",
  "compiler": {
    "name": "solc",
    "version": "0.8.19+commit.7dd6d404.Emscripten.clang"
  },
  "schemaVersion": "3.4.13",
  "updatedAt": "2023-07-15T07:46:52.954Z",
  "devdoc": {
    "kind": "dev",
    "methods": {},
    "version": 1
  },
  "userdoc": {
    "events": {
      "BetProposal(address,uint256)": {
        "notice": "EVENTS///"
      }
    },
    "kind": "user",
    "methods": {
      "constructor": {
        "notice": "FUNCTIONS///"
      }
    },
    "version": 1
  }
}