{
  "contractName": "Game",
  "abi": [
    {
      "inputs": [
        {
          "internalType": "address",
          "name": "_owner",
          "type": "address"
        },
        {
          "internalType": "bool",
          "name": "_small",
          "type": "bool"
        }
      ],
      "stateMutability": "nonpayable",
      "type": "constructor"
    },
    {
      "anonymous": false,
      "inputs": [
        {
          "indexed": false,
          "internalType": "uint256",
          "name": "amount",
          "type": "uint256"
        }
      ],
      "name": "BetAgreed",
      "type": "event"
    },
    {
      "anonymous": false,
      "inputs": [
        {
          "indexed": true,
          "internalType": "address",
          "name": "player",
          "type": "address"
        },
        {
          "indexed": false,
          "internalType": "uint256",
          "name": "amount",
          "type": "uint256"
        }
      ],
      "name": "BetProposal",
      "type": "event"
    },
    {
      "anonymous": false,
      "inputs": [],
      "name": "BoardsCommitted",
      "type": "event"
    },
    {
      "anonymous": false,
      "inputs": [],
      "name": "FundsDeposited",
      "type": "event"
    },
    {
      "anonymous": false,
      "inputs": [
        {
          "indexed": false,
          "internalType": "address",
          "name": "player",
          "type": "address"
        }
      ],
      "name": "PlayerAFK",
      "type": "event"
    },
    {
      "anonymous": false,
      "inputs": [
        {
          "indexed": false,
          "internalType": "address",
          "name": "player",
          "type": "address"
        }
      ],
      "name": "PlayerMove",
      "type": "event"
    },
    {
      "anonymous": false,
      "inputs": [
        {
          "indexed": true,
          "internalType": "address",
          "name": "player",
          "type": "address"
        },
        {
          "indexed": false,
          "internalType": "uint8",
          "name": "cell",
          "type": "uint8"
        }
      ],
      "name": "ShotTaken",
      "type": "event"
    },
    {
      "anonymous": false,
      "inputs": [
        {
          "indexed": false,
          "internalType": "address",
          "name": "player",
          "type": "address"
        }
      ],
      "name": "Winner",
      "type": "event"
    },
    {
      "anonymous": false,
      "inputs": [
        {
          "indexed": false,
          "internalType": "address",
          "name": "player",
          "type": "address"
        }
      ],
      "name": "WinnerVerified",
      "type": "event"
    },
    {
      "inputs": [],
      "name": "BOARD_Normal",
      "outputs": [
        {
          "internalType": "uint8",
          "name": "",
          "type": "uint8"
        }
      ],
      "stateMutability": "view",
      "type": "function"
    },
    {
      "inputs": [],
      "name": "BOARD_Small",
      "outputs": [
        {
          "internalType": "uint8",
          "name": "",
          "type": "uint8"
        }
      ],
      "stateMutability": "view",
      "type": "function"
    },
    {
      "inputs": [],
      "name": "FLEET_Normal",
      "outputs": [
        {
          "internalType": "uint8",
          "name": "",
          "type": "uint8"
        }
      ],
      "stateMutability": "view",
      "type": "function"
    },
    {
      "inputs": [],
      "name": "FLEET_Small",
      "outputs": [
        {
          "internalType": "uint8",
          "name": "",
          "type": "uint8"
        }
      ],
      "stateMutability": "view",
      "type": "function"
    },
    {
      "inputs": [],
      "name": "adversary",
      "outputs": [
        {
          "internalType": "address",
          "name": "",
          "type": "address"
        }
      ],
      "stateMutability": "view",
      "type": "function"
    },
    {
      "inputs": [],
      "name": "afk_timeout",
      "outputs": [
        {
          "internalType": "uint256",
          "name": "",
          "type": "uint256"
        }
      ],
      "stateMutability": "view",
      "type": "function"
    },
    {
      "inputs": [],
      "name": "bet",
      "outputs": [
        {
          "internalType": "uint256",
          "name": "",
          "type": "uint256"
        }
      ],
      "stateMutability": "view",
      "type": "function"
    },
    {
      "inputs": [],
      "name": "boardSize",
      "outputs": [
        {
          "internalType": "uint8",
          "name": "",
          "type": "uint8"
        }
      ],
      "stateMutability": "view",
      "type": "function"
    },
    {
      "inputs": [],
      "name": "fleetSize",
      "outputs": [
        {
          "internalType": "uint8",
          "name": "",
          "type": "uint8"
        }
      ],
      "stateMutability": "view",
      "type": "function"
    },
    {
      "inputs": [],
      "name": "gamePhase",
      "outputs": [
        {
          "internalType": "enum Game.Phase",
          "name": "",
          "type": "uint8"
        }
      ],
      "stateMutability": "view",
      "type": "function"
    },
    {
      "inputs": [],
      "name": "owner",
      "outputs": [
        {
          "internalType": "address",
          "name": "",
          "type": "address"
        }
      ],
      "stateMutability": "view",
      "type": "function"
    },
    {
      "inputs": [
        {
          "internalType": "address",
          "name": "",
          "type": "address"
        }
      ],
      "name": "players",
      "outputs": [
        {
          "internalType": "bool",
          "name": "afk",
          "type": "bool"
        },
        {
          "internalType": "uint256",
          "name": "bet",
          "type": "uint256"
        },
        {
          "internalType": "bool",
          "name": "hasPaid",
          "type": "bool"
        },
        {
          "internalType": "bytes32",
          "name": "board",
          "type": "bytes32"
        },
        {
          "internalType": "uint8",
          "name": "hits",
          "type": "uint8"
        }
      ],
      "stateMutability": "view",
      "type": "function"
    },
    {
      "inputs": [],
      "name": "turn",
      "outputs": [
        {
          "internalType": "address",
          "name": "",
          "type": "address"
        }
      ],
      "stateMutability": "view",
      "type": "function"
    },
    {
      "inputs": [],
      "name": "winner",
      "outputs": [
        {
          "internalType": "address",
          "name": "",
          "type": "address"
        }
      ],
      "stateMutability": "view",
      "type": "function"
    },
    {
      "inputs": [
        {
          "internalType": "address",
          "name": "_adversary",
          "type": "address"
        }
      ],
      "name": "matchJoin",
      "outputs": [],
      "stateMutability": "nonpayable",
      "type": "function"
    },
    {
      "inputs": [
        {
          "internalType": "uint256",
          "name": "_amount",
          "type": "uint256"
        }
      ],
      "name": "proposeBet",
      "outputs": [],
      "stateMutability": "nonpayable",
      "type": "function"
    },
    {
      "inputs": [],
      "name": "acceptBet",
      "outputs": [],
      "stateMutability": "nonpayable",
      "type": "function"
    },
    {
      "inputs": [],
      "name": "betFunds",
      "outputs": [],
      "stateMutability": "payable",
      "type": "function"
    },
    {
      "inputs": [],
      "name": "forfeit",
      "outputs": [],
      "stateMutability": "nonpayable",
      "type": "function"
    },
    {
      "inputs": [
        {
          "internalType": "bytes32",
          "name": "_board",
          "type": "bytes32"
        }
      ],
      "name": "commitBoard",
      "outputs": [],
      "stateMutability": "nonpayable",
      "type": "function"
    },
    {
      "inputs": [
        {
          "internalType": "address",
          "name": "_player",
          "type": "address"
        }
      ],
      "name": "getShotsTaken",
      "outputs": [
        {
          "components": [
            {
              "internalType": "uint8",
              "name": "index",
              "type": "uint8"
            },
            {
              "internalType": "enum Game.ShotState",
              "name": "state",
              "type": "uint8"
            }
          ],
          "internalType": "struct Game.Shot[]",
          "name": "",
          "type": "tuple[]"
        }
      ],
      "stateMutability": "view",
      "type": "function"
    },
    {
      "inputs": [
        {
          "internalType": "uint8",
          "name": "_index",
          "type": "uint8"
        }
      ],
      "name": "attack",
      "outputs": [],
      "stateMutability": "nonpayable",
      "type": "function"
    },
    {
      "inputs": [
        {
          "internalType": "bool",
          "name": "_isShip",
          "type": "bool"
        },
        {
          "internalType": "uint256",
          "name": "_salt",
          "type": "uint256"
        },
        {
          "internalType": "uint8",
          "name": "_index",
          "type": "uint8"
        },
        {
          "internalType": "bytes32[]",
          "name": "_proof",
          "type": "bytes32[]"
        },
        {
          "internalType": "uint8",
          "name": "_attackIndex",
          "type": "uint8"
        }
      ],
      "name": "counterattack",
      "outputs": [],
      "stateMutability": "nonpayable",
      "type": "function"
    },
    {
      "inputs": [
        {
          "internalType": "bytes32[]",
          "name": "_proof",
          "type": "bytes32[]"
        },
        {
          "internalType": "bool[]",
          "name": "_proofFlags",
          "type": "bool[]"
        },
        {
          "internalType": "bool[]",
          "name": "_cells",
          "type": "bool[]"
        },
        {
          "internalType": "uint256[]",
          "name": "_salts",
          "type": "uint256[]"
        },
        {
          "internalType": "uint8[]",
          "name": "_indexes",
          "type": "uint8[]"
        }
      ],
      "name": "checkWinnerBoard",
      "outputs": [],
      "stateMutability": "nonpayable",
      "type": "function"
    },
    {
      "inputs": [],
      "name": "withdraw",
      "outputs": [],
      "stateMutability": "nonpayable",
      "type": "function"
    },
    {
      "inputs": [],
      "name": "reportAFK",
      "outputs": [],
      "stateMutability": "nonpayable",
      "type": "function"
    },
    {
      "inputs": [],
      "name": "verifyAFK",
      "outputs": [],
      "stateMutability": "nonpayable",
      "type": "function"
    }
  ],
  "bytecode": "0x60806040523480156200001157600080fd5b5060405162004fd038038062004fd08339818101604052810190620000379190620001db565b81600160026101000a81548173ffffffffffffffffffffffffffffffffffffffff021916908373ffffffffffffffffffffffffffffffffffffffff160217905550806200009f576040600160006101000a81548160ff021916908360ff1602179055620000bb565b6010600160006101000a81548160ff021916908360ff16021790555b5080620000e257600a6001806101000a81548160ff021916908360ff1602179055620000fd565b60056001806101000a81548160ff021916908360ff16021790555b506000600560146101000a81548160ff0219169083600581111562000127576200012662000222565b5b0217905550505062000251565b600080fd5b600073ffffffffffffffffffffffffffffffffffffffff82169050919050565b6000620001668262000139565b9050919050565b620001788162000159565b81146200018457600080fd5b50565b60008151905062000198816200016d565b92915050565b60008115159050919050565b620001b5816200019e565b8114620001c157600080fd5b50565b600081519050620001d581620001aa565b92915050565b60008060408385031215620001f557620001f462000134565b5b6000620002058582860162000187565b92505060206200021885828601620001c4565b9150509250929050565b7f4e487b7100000000000000000000000000000000000000000000000000000000600052602160045260246000fd5b614d6f80620002616000396000f3fe60806040526004361061019c5760003560e01c8063c3006aec116100ec578063e35d284b1161008a578063f3d86e4a11610064578063f3d86e4a1461052b578063f5126b6b14610542578063f87a63001461056d578063fadca01e146105985761019c565b8063e35d284b1461049a578063e65e8492146104c5578063ea66144a146105025761019c565b8063d43faafd116100c6578063d43faafd146103ee578063dfbf53ae14610417578063e25387e414610442578063e2eb41ff146104595761019c565b8063c3006aec1461036f578063c51d69f414610398578063cc12f58e146103c35761019c565b80633ccfd60b116101595780638b80aac4116101335780638b80aac4146102d95780638da5cb5b14610304578063a562ea3b1461032f578063bcc9f3e6146103465761019c565b80633ccfd60b1461026c578063577c87cb146102835780638b299903146102ae5761019c565b806311610c25146101a15780631999eca8146101cc5780631bb565d6146101f55780631e20ddab1461022057806330bfcb5f1461022a5780633951be8714610241575b600080fd5b3480156101ad57600080fd5b506101b66105c1565b6040516101c391906140e1565b60405180910390f35b3480156101d857600080fd5b506101f360048036038101906101ee9190614149565b6105c7565b005b34801561020157600080fd5b5061020a6107e6565b60405161021791906140e1565b60405180910390f35b6102286107ec565b005b34801561023657600080fd5b5061023f610c6b565b005b34801561024d57600080fd5b506102566110f8565b60405161026391906141ed565b60405180910390f35b34801561027857600080fd5b5061028161110b565b005b34801561028f57600080fd5b50610298611217565b6040516102a59190614217565b60405180910390f35b3480156102ba57600080fd5b506102c361121c565b6040516102d09190614273565b60405180910390f35b3480156102e557600080fd5b506102ee611242565b6040516102fb9190614273565b60405180910390f35b34801561031057600080fd5b50610319611268565b6040516103269190614273565b60405180910390f35b34801561033b57600080fd5b5061034461128e565b005b34801561035257600080fd5b5061036d600480360381019061036891906146ca565b6117e8565b005b34801561037b57600080fd5b50610396600480360381019061039191906147d1565b611d38565b005b3480156103a457600080fd5b506103ad612575565b6040516103ba9190614217565b60405180910390f35b3480156103cf57600080fd5b506103d8612588565b6040516103e59190614217565b60405180910390f35b3480156103fa57600080fd5b5061041560048036038101906104109190614868565b61258d565b005b34801561042357600080fd5b5061042c612932565b6040516104399190614273565b60405180910390f35b34801561044e57600080fd5b50610457612958565b005b34801561046557600080fd5b50610480600480360381019061047b91906148c1565b612eb7565b60405161049195949392919061490c565b60405180910390f35b3480156104a657600080fd5b506104af612f14565b6040516104bc9190614217565b60405180910390f35b3480156104d157600080fd5b506104ec60048036038101906104e791906148c1565b612f19565b6040516104f99190614a94565b60405180910390f35b34801561050e57600080fd5b5061052960048036038101906105249190614ab6565b61300e565b005b34801561053757600080fd5b50610540613530565b005b34801561054e57600080fd5b5061055761368d565b6040516105649190614217565b60405180910390f35b34801561057957600080fd5b50610582613692565b60405161058f9190614217565b60405180910390f35b3480156105a457600080fd5b506105bf60048036038101906105ba91906148c1565b6136a3565b005b60045481565b600360058111156105db576105da614176565b5b600560149054906101000a900460ff1660058111156105fd576105fc614176565b5b1461060757600080fd5b600360003373ffffffffffffffffffffffffffffffffffffffff1673ffffffffffffffffffffffffffffffffffffffff16815260200190815260200160002060000160009054906101000a900460ff161561077f576000544310156106c6576000600360003373ffffffffffffffffffffffffffffffffffffffff1673ffffffffffffffffffffffffffffffffffffffff16815260200190815260200160002060000160006101000a81548160ff02191690831515021790555061077e565b600054431061077d57610778600160029054906101000a900473ffffffffffffffffffffffffffffffffffffffff1673ffffffffffffffffffffffffffffffffffffffff163373ffffffffffffffffffffffffffffffffffffffff161461074f57600160029054906101000a900473ffffffffffffffffffffffffffffffffffffffff16610773565b600260009054906101000a900473ffffffffffffffffffffffffffffffffffffffff165b6137ad565b6107e3565b5b5b600560009054906101000a900473ffffffffffffffffffffffffffffffffffffffff1673ffffffffffffffffffffffffffffffffffffffff163373ffffffffffffffffffffffffffffffffffffffff16146107d957600080fd5b6107e281613852565b5b50565b60005481565b600160029054906101000a900473ffffffffffffffffffffffffffffffffffffffff1673ffffffffffffffffffffffffffffffffffffffff163373ffffffffffffffffffffffffffffffffffffffff1614806108955750600260009054906101000a900473ffffffffffffffffffffffffffffffffffffffff1673ffffffffffffffffffffffffffffffffffffffff163373ffffffffffffffffffffffffffffffffffffffff16145b61089e57600080fd5b60011515600360003373ffffffffffffffffffffffffffffffffffffffff1673ffffffffffffffffffffffffffffffffffffffff16815260200190815260200160002060020160009054906101000a900460ff161515036108fe57600080fd5b600360003373ffffffffffffffffffffffffffffffffffffffff1673ffffffffffffffffffffffffffffffffffffffff16815260200190815260200160002060000160009054906101000a900460ff1615610a76576000544310156109bd576000600360003373ffffffffffffffffffffffffffffffffffffffff1673ffffffffffffffffffffffffffffffffffffffff16815260200190815260200160002060000160006101000a81548160ff021916908315150217905550610a75565b6000544310610a7457610a6f600160029054906101000a900473ffffffffffffffffffffffffffffffffffffffff1673ffffffffffffffffffffffffffffffffffffffff163373ffffffffffffffffffffffffffffffffffffffff1614610a4657600160029054906101000a900473ffffffffffffffffffffffffffffffffffffffff16610a6a565b600260009054906101000a900473ffffffffffffffffffffffffffffffffffffffff165b6137ad565b610c69565b5b5b60016005811115610a8a57610a89614176565b5b600560149054906101000a900460ff166005811115610aac57610aab614176565b5b14610ab657600080fd5b6004543414610ac457600080fd5b6001600360003373ffffffffffffffffffffffffffffffffffffffff1673ffffffffffffffffffffffffffffffffffffffff16815260200190815260200160002060020160006101000a81548160ff02191690831515021790555060036000600160029054906101000a900473ffffffffffffffffffffffffffffffffffffffff1673ffffffffffffffffffffffffffffffffffffffff1673ffffffffffffffffffffffffffffffffffffffff16815260200190815260200160002060020160009054906101000a900460ff168015610c0b575060036000600260009054906101000a900473ffffffffffffffffffffffffffffffffffffffff1673ffffffffffffffffffffffffffffffffffffffff1673ffffffffffffffffffffffffffffffffffffffff16815260200190815260200160002060020160009054906101000a900460ff165b15610c68577fd2d72fde7537c550b5e85eabb70a65949c78bb66328f56c78ddc8251950a994160405160405180910390a16002600560146101000a81548160ff02191690836005811115610c6257610c61614176565b5b02179055505b5b565b600160029054906101000a900473ffffffffffffffffffffffffffffffffffffffff1673ffffffffffffffffffffffffffffffffffffffff163373ffffffffffffffffffffffffffffffffffffffff161480610d145750600260009054906101000a900473ffffffffffffffffffffffffffffffffffffffff1673ffffffffffffffffffffffffffffffffffffffff163373ffffffffffffffffffffffffffffffffffffffff16145b610d1d57600080fd5b60011515600360003373ffffffffffffffffffffffffffffffffffffffff1673ffffffffffffffffffffffffffffffffffffffff16815260200190815260200160002060020160009054906101000a900460ff16151503610d7d57600080fd5b600360003373ffffffffffffffffffffffffffffffffffffffff1673ffffffffffffffffffffffffffffffffffffffff16815260200190815260200160002060000160009054906101000a900460ff1615610ef557600054431015610e3c576000600360003373ffffffffffffffffffffffffffffffffffffffff1673ffffffffffffffffffffffffffffffffffffffff16815260200190815260200160002060000160006101000a81548160ff021916908315150217905550610ef4565b6000544310610ef357610eee600160029054906101000a900473ffffffffffffffffffffffffffffffffffffffff1673ffffffffffffffffffffffffffffffffffffffff163373ffffffffffffffffffffffffffffffffffffffff1614610ec557600160029054906101000a900473ffffffffffffffffffffffffffffffffffffffff16610ee9565b600260009054906101000a900473ffffffffffffffffffffffffffffffffffffffff165b6137ad565b6110f6565b5b5b60016005811115610f0957610f08614176565b5b600560149054906101000a900460ff166005811115610f2b57610f2a614176565b5b14610f3557600080fd5b6000600160029054906101000a900473ffffffffffffffffffffffffffffffffffffffff1673ffffffffffffffffffffffffffffffffffffffff163373ffffffffffffffffffffffffffffffffffffffff1614610fb457600160029054906101000a900473ffffffffffffffffffffffffffffffffffffffff16610fd8565b600260009054906101000a900473ffffffffffffffffffffffffffffffffffffffff165b90506000600360008373ffffffffffffffffffffffffffffffffffffffff1673ffffffffffffffffffffffffffffffffffffffff168152602001908152602001600020600101540361102957600080fd5b600360008273ffffffffffffffffffffffffffffffffffffffff1673ffffffffffffffffffffffffffffffffffffffff16815260200190815260200160002060010154600481905550600454600360008373ffffffffffffffffffffffffffffffffffffffff1673ffffffffffffffffffffffffffffffffffffffff168152602001908152602001600020600101819055507f50ac8120affab45c80b99be15eba8c23598651f799d4ad1c2e0c91f92e7e23b16004546040516110ec91906140e1565b60405180910390a1505b565b600560149054906101000a900460ff1681565b60058081111561111e5761111d614176565b5b600560149054906101000a900460ff1660058111156111405761113f614176565b5b1461114a57600080fd5b600660009054906101000a900473ffffffffffffffffffffffffffffffffffffffff1673ffffffffffffffffffffffffffffffffffffffff163373ffffffffffffffffffffffffffffffffffffffff16146111a457600080fd5b60058060146101000a81548160ff021916908360058111156111c9576111c8614176565b5b02179055503373ffffffffffffffffffffffffffffffffffffffff166108fc479081150290604051600060405180830381858888f19350505050158015611214573d6000803e3d6000fd5b50565b601081565b600560009054906101000a900473ffffffffffffffffffffffffffffffffffffffff1681565b600260009054906101000a900473ffffffffffffffffffffffffffffffffffffffff1681565b600160029054906101000a900473ffffffffffffffffffffffffffffffffffffffff1681565b600160029054906101000a900473ffffffffffffffffffffffffffffffffffffffff1673ffffffffffffffffffffffffffffffffffffffff163373ffffffffffffffffffffffffffffffffffffffff1614806113375750600260009054906101000a900473ffffffffffffffffffffffffffffffffffffffff1673ffffffffffffffffffffffffffffffffffffffff163373ffffffffffffffffffffffffffffffffffffffff16145b61134057600080fd5b6000600160029054906101000a900473ffffffffffffffffffffffffffffffffffffffff1673ffffffffffffffffffffffffffffffffffffffff163373ffffffffffffffffffffffffffffffffffffffff16146113bf57600160029054906101000a900473ffffffffffffffffffffffffffffffffffffffff166113e3565b600260009054906101000a900473ffffffffffffffffffffffffffffffffffffffff165b9050600160058111156113f9576113f8614176565b5b600560149054906101000a900460ff16600581111561141b5761141a614176565b5b14801561147b575060001515600360008373ffffffffffffffffffffffffffffffffffffffff1673ffffffffffffffffffffffffffffffffffffffff16815260200190815260200160002060020160009054906101000a900460ff161515145b8061150957506002600581111561149557611494614176565b5b600560149054906101000a900460ff1660058111156114b7576114b6614176565b5b14801561150857506000801b600360008373ffffffffffffffffffffffffffffffffffffffff1673ffffffffffffffffffffffffffffffffffffffff16815260200190815260200160002060030154145b5b806115a057506003600581111561152357611522614176565b5b600560149054906101000a900460ff16600581111561154557611544614176565b5b14801561159f57508073ffffffffffffffffffffffffffffffffffffffff16600560009054906101000a900473ffffffffffffffffffffffffffffffffffffffff1673ffffffffffffffffffffffffffffffffffffffff16145b5b806116375750600460058111156115ba576115b9614176565b5b600560149054906101000a900460ff1660058111156115dc576115db614176565b5b14801561163657508073ffffffffffffffffffffffffffffffffffffffff16600660009054906101000a900473ffffffffffffffffffffffffffffffffffffffff1673ffffffffffffffffffffffffffffffffffffffff16145b5b61164057600080fd5b6000600160029054906101000a900473ffffffffffffffffffffffffffffffffffffffff1673ffffffffffffffffffffffffffffffffffffffff163373ffffffffffffffffffffffffffffffffffffffff16146116bf57600160029054906101000a900473ffffffffffffffffffffffffffffffffffffffff166116e3565b600260009054906101000a900473ffffffffffffffffffffffffffffffffffffffff165b9050600360008273ffffffffffffffffffffffffffffffffffffffff1673ffffffffffffffffffffffffffffffffffffffff16815260200190815260200160002060000160009054906101000a900460ff161561173f57600080fd5b7f1a57b5e70fad11389febe9938025db4c3ee52d0bde2fcf22527149b81444c2ca8160405161176e9190614273565b60405180910390a16001600360008373ffffffffffffffffffffffffffffffffffffffff1673ffffffffffffffffffffffffffffffffffffffff16815260200190815260200160002060000160006101000a81548160ff0219169083151502179055506005436117de9190614b12565b6000819055505050565b600460058111156117fc576117fb614176565b5b600560149054906101000a900460ff16600581111561181e5761181d614176565b5b1461182857600080fd5b600360003373ffffffffffffffffffffffffffffffffffffffff1673ffffffffffffffffffffffffffffffffffffffff16815260200190815260200160002060000160009054906101000a900460ff16156119a0576000544310156118e7576000600360003373ffffffffffffffffffffffffffffffffffffffff1673ffffffffffffffffffffffffffffffffffffffff16815260200190815260200160002060000160006101000a81548160ff02191690831515021790555061199f565b600054431061199e57611999600160029054906101000a900473ffffffffffffffffffffffffffffffffffffffff1673ffffffffffffffffffffffffffffffffffffffff163373ffffffffffffffffffffffffffffffffffffffff161461197057600160029054906101000a900473ffffffffffffffffffffffffffffffffffffffff16611994565b600260009054906101000a900473ffffffffffffffffffffffffffffffffffffffff165b6137ad565b611d31565b5b5b600660009054906101000a900473ffffffffffffffffffffffffffffffffffffffff1673ffffffffffffffffffffffffffffffffffffffff163373ffffffffffffffffffffffffffffffffffffffff16146119fa57600080fd5b8151835114611a0857600080fd5b8051835114611a1657600080fd5b6000600160029054906101000a900473ffffffffffffffffffffffffffffffffffffffff1673ffffffffffffffffffffffffffffffffffffffff163373ffffffffffffffffffffffffffffffffffffffff1614611a9557600160029054906101000a900473ffffffffffffffffffffffffffffffffffffffff16611ab9565b600260009054906101000a900473ffffffffffffffffffffffffffffffffffffffff165b9050600080600160009054906101000a900460ff1660ff1667ffffffffffffffff811115611aea57611ae96142a4565b5b604051908082528060200260200182016040528015611b185781602001602082028036833780820191505090505b50905060005b600160009054906101000a900460ff1660ff16811015611b72576000828281518110611b4d57611b4c614b46565b5b6020026020010190151590811515815250508080611b6a90614b75565b915050611b1e565b50611bc38888888888600360003373ffffffffffffffffffffffffffffffffffffffff1673ffffffffffffffffffffffffffffffffffffffff16815260200190815260200160002060030154613b95565b611bd857611bd0836137ad565b505050611d30565b60005b8651811015611cf957600160009054906101000a900460ff1660ff16858281518110611c0a57611c09614b46565b5b602002602001015160ff1610611c2c57611c23846137ad565b50505050611d30565b81858281518110611c4057611c3f614b46565b5b602002602001015160ff1681518110611c5c57611c5b614b46565b5b602002602001015115611c7357611c72846137ad565b5b600182868381518110611c8957611c88614b46565b5b602002602001015160ff1681518110611ca557611ca4614b46565b5b602002602001019015159081151581525050868181518110611cca57611cc9614b46565b5b602002602001015115611ce6578280611ce290614bbd565b9350505b8080611cf190614b75565b915050611bdb565b5060018054906101000a900460ff1660ff168260ff1603611d2257611d1d336137ad565b611d2c565b611d2b836137ad565b5b5050505b5b5050505050565b60036005811115611d4c57611d4b614176565b5b600560149054906101000a900460ff166005811115611d6e57611d6d614176565b5b14611d7857600080fd5b600360003373ffffffffffffffffffffffffffffffffffffffff1673ffffffffffffffffffffffffffffffffffffffff16815260200190815260200160002060000160009054906101000a900460ff1615611ef057600054431015611e37576000600360003373ffffffffffffffffffffffffffffffffffffffff1673ffffffffffffffffffffffffffffffffffffffff16815260200190815260200160002060000160006101000a81548160ff021916908315150217905550611eef565b6000544310611eee57611ee9600160029054906101000a900473ffffffffffffffffffffffffffffffffffffffff1673ffffffffffffffffffffffffffffffffffffffff163373ffffffffffffffffffffffffffffffffffffffff1614611ec057600160029054906101000a900473ffffffffffffffffffffffffffffffffffffffff16611ee4565b600260009054906101000a900473ffffffffffffffffffffffffffffffffffffffff165b6137ad565b61256e565b5b5b600560009054906101000a900473ffffffffffffffffffffffffffffffffffffffff1673ffffffffffffffffffffffffffffffffffffffff163373ffffffffffffffffffffffffffffffffffffffff1614611f4a57600080fd5b6000600160029054906101000a900473ffffffffffffffffffffffffffffffffffffffff1673ffffffffffffffffffffffffffffffffffffffff163373ffffffffffffffffffffffffffffffffffffffff1614611fc957600160029054906101000a900473ffffffffffffffffffffffffffffffffffffffff16611fed565b600260009054906101000a900473ffffffffffffffffffffffffffffffffffffffff165b90506000600281111561200357612002614176565b5b600360008373ffffffffffffffffffffffffffffffffffffffff1673ffffffffffffffffffffffffffffffffffffffff1681526020019081526020016000206005016001600360008573ffffffffffffffffffffffffffffffffffffffff1673ffffffffffffffffffffffffffffffffffffffff168152602001908152602001600020600501805490506120979190614be6565b815481106120a8576120a7614b46565b5b9060005260206000200160000160019054906101000a900460ff1660028111156120d5576120d4614176565b5b146120e3576120e2614c1a565b5b8360ff16600360008373ffffffffffffffffffffffffffffffffffffffff1673ffffffffffffffffffffffffffffffffffffffff1681526020019081526020016000206005016001600360008573ffffffffffffffffffffffffffffffffffffffff1673ffffffffffffffffffffffffffffffffffffffff1681526020019081526020016000206005018054905061217b9190614be6565b8154811061218c5761218b614b46565b5b9060005260206000200160000160009054906101000a900460ff1660ff16146121b457600080fd5b61220386868686600360003373ffffffffffffffffffffffffffffffffffffffff1673ffffffffffffffffffffffffffffffffffffffff16815260200190815260200160002060030154613c95565b61221657612210816137ad565b5061256d565b8515612486576001600360008373ffffffffffffffffffffffffffffffffffffffff1673ffffffffffffffffffffffffffffffffffffffff1681526020019081526020016000206005016001600360008573ffffffffffffffffffffffffffffffffffffffff1673ffffffffffffffffffffffffffffffffffffffff168152602001908152602001600020600501805490506122b29190614be6565b815481106122c3576122c2614b46565b5b9060005260206000200160000160016101000a81548160ff021916908360028111156122f2576122f1614176565b5b0217905550600360003373ffffffffffffffffffffffffffffffffffffffff1673ffffffffffffffffffffffffffffffffffffffff168152602001908152602001600020600401600081819054906101000a900460ff168092919061235690614bbd565b91906101000a81548160ff021916908360ff1602179055505060018054906101000a900460ff1660ff16600360003373ffffffffffffffffffffffffffffffffffffffff1673ffffffffffffffffffffffffffffffffffffffff16815260200190815260200160002060040160009054906101000a900460ff1660ff16036124815780600660006101000a81548173ffffffffffffffffffffffffffffffffffffffff021916908373ffffffffffffffffffffffffffffffffffffffff1602179055506004600560146101000a81548160ff0219169083600581111561243f5761243e614176565b5b02179055507f745c90b656b4aafe296c8ca35aeacfe56cb96c90e1d320e5da643fff1051b6c0816040516124739190614273565b60405180910390a15061256d565b612562565b6002600360008373ffffffffffffffffffffffffffffffffffffffff1673ffffffffffffffffffffffffffffffffffffffff1681526020019081526020016000206005016001600360008573ffffffffffffffffffffffffffffffffffffffff1673ffffffffffffffffffffffffffffffffffffffff1681526020019081526020016000206005018054905061251c9190614be6565b8154811061252d5761252c614b46565b5b9060005260206000200160000160016101000a81548160ff0219169083600281111561255c5761255b614176565b5b02179055505b61256b82613852565b505b5b5050505050565b600160009054906101000a900460ff1681565b604081565b600160029054906101000a900473ffffffffffffffffffffffffffffffffffffffff1673ffffffffffffffffffffffffffffffffffffffff163373ffffffffffffffffffffffffffffffffffffffff1614806126365750600260009054906101000a900473ffffffffffffffffffffffffffffffffffffffff1673ffffffffffffffffffffffffffffffffffffffff163373ffffffffffffffffffffffffffffffffffffffff16145b61263f57600080fd5b60011515600360003373ffffffffffffffffffffffffffffffffffffffff1673ffffffffffffffffffffffffffffffffffffffff16815260200190815260200160002060020160009054906101000a900460ff1615150361269f57600080fd5b600360003373ffffffffffffffffffffffffffffffffffffffff1673ffffffffffffffffffffffffffffffffffffffff16815260200190815260200160002060000160009054906101000a900460ff16156128175760005443101561275e576000600360003373ffffffffffffffffffffffffffffffffffffffff1673ffffffffffffffffffffffffffffffffffffffff16815260200190815260200160002060000160006101000a81548160ff021916908315150217905550612816565b600054431061281557612810600160029054906101000a900473ffffffffffffffffffffffffffffffffffffffff1673ffffffffffffffffffffffffffffffffffffffff163373ffffffffffffffffffffffffffffffffffffffff16146127e757600160029054906101000a900473ffffffffffffffffffffffffffffffffffffffff1661280b565b600260009054906101000a900473ffffffffffffffffffffffffffffffffffffffff165b6137ad565b61292f565b5b5b6001600581111561282b5761282a614176565b5b600560149054906101000a900460ff16600581111561284d5761284c614176565b5b1461285757600080fd5b80600360003373ffffffffffffffffffffffffffffffffffffffff1673ffffffffffffffffffffffffffffffffffffffff168152602001908152602001600020600101819055503373ffffffffffffffffffffffffffffffffffffffff167f4a8a2c0cf89add878b8fd9d1a4868d4b9536b6cbedec55c1b1eb3a5fa4cfdca2600360003373ffffffffffffffffffffffffffffffffffffffff1673ffffffffffffffffffffffffffffffffffffffff1681526020019081526020016000206001015460405161292691906140e1565b60405180910390a25b50565b600660009054906101000a900473ffffffffffffffffffffffffffffffffffffffff1681565b600160029054906101000a900473ffffffffffffffffffffffffffffffffffffffff1673ffffffffffffffffffffffffffffffffffffffff163373ffffffffffffffffffffffffffffffffffffffff161480612a015750600260009054906101000a900473ffffffffffffffffffffffffffffffffffffffff1673ffffffffffffffffffffffffffffffffffffffff163373ffffffffffffffffffffffffffffffffffffffff16145b612a0a57600080fd5b6000600160029054906101000a900473ffffffffffffffffffffffffffffffffffffffff1673ffffffffffffffffffffffffffffffffffffffff163373ffffffffffffffffffffffffffffffffffffffff1614612a8957600160029054906101000a900473ffffffffffffffffffffffffffffffffffffffff16612aad565b600260009054906101000a900473ffffffffffffffffffffffffffffffffffffffff165b905060016005811115612ac357612ac2614176565b5b600560149054906101000a900460ff166005811115612ae557612ae4614176565b5b148015612b45575060001515600360008373ffffffffffffffffffffffffffffffffffffffff1673ffffffffffffffffffffffffffffffffffffffff16815260200190815260200160002060020160009054906101000a900460ff161515145b80612bd3575060026005811115612b5f57612b5e614176565b5b600560149054906101000a900460ff166005811115612b8157612b80614176565b5b148015612bd257506000801b600360008373ffffffffffffffffffffffffffffffffffffffff1673ffffffffffffffffffffffffffffffffffffffff16815260200190815260200160002060030154145b5b80612c6a575060036005811115612bed57612bec614176565b5b600560149054906101000a900460ff166005811115612c0f57612c0e614176565b5b148015612c6957508073ffffffffffffffffffffffffffffffffffffffff16600560009054906101000a900473ffffffffffffffffffffffffffffffffffffffff1673ffffffffffffffffffffffffffffffffffffffff16145b5b80612d01575060046005811115612c8457612c83614176565b5b600560149054906101000a900460ff166005811115612ca657612ca5614176565b5b148015612d0057508073ffffffffffffffffffffffffffffffffffffffff16600660009054906101000a900473ffffffffffffffffffffffffffffffffffffffff1673ffffffffffffffffffffffffffffffffffffffff16145b5b612d0a57600080fd5b6000600160029054906101000a900473ffffffffffffffffffffffffffffffffffffffff1673ffffffffffffffffffffffffffffffffffffffff163373ffffffffffffffffffffffffffffffffffffffff1614612d8957600160029054906101000a900473ffffffffffffffffffffffffffffffffffffffff16612dad565b600260009054906101000a900473ffffffffffffffffffffffffffffffffffffffff165b9050600360008273ffffffffffffffffffffffffffffffffffffffff1673ffffffffffffffffffffffffffffffffffffffff16815260200190815260200160002060000160009054906101000a900460ff168015612e0d57506000544310155b15612e2057612e1b336137ad565b612eb3565b6000600360008373ffffffffffffffffffffffffffffffffffffffff1673ffffffffffffffffffffffffffffffffffffffff16815260200190815260200160002060000160006101000a81548160ff0219169083151502179055507fa681713f021eb5b63200ab13cc2e5732fb879c4978e92be56418b28630ae087281604051612eaa9190614273565b60405180910390a15b5050565b60036020528060005260406000206000915090508060000160009054906101000a900460ff16908060010154908060020160009054906101000a900460ff16908060030154908060040160009054906101000a900460ff16905085565b600a81565b6060600360008373ffffffffffffffffffffffffffffffffffffffff1673ffffffffffffffffffffffffffffffffffffffff168152602001908152602001600020600501805480602002602001604051908101604052809291908181526020016000905b82821015613003578382906000526020600020016040518060400160405290816000820160009054906101000a900460ff1660ff1660ff1681526020016000820160019054906101000a900460ff166002811115612fde57612fdd614176565b5b6002811115612ff057612fef614176565b5b8152505081526020019060010190612f7d565b505050509050919050565b600160029054906101000a900473ffffffffffffffffffffffffffffffffffffffff1673ffffffffffffffffffffffffffffffffffffffff163373ffffffffffffffffffffffffffffffffffffffff1614806130b75750600260009054906101000a900473ffffffffffffffffffffffffffffffffffffffff1673ffffffffffffffffffffffffffffffffffffffff163373ffffffffffffffffffffffffffffffffffffffff16145b6130c057600080fd5b600360003373ffffffffffffffffffffffffffffffffffffffff1673ffffffffffffffffffffffffffffffffffffffff16815260200190815260200160002060000160009054906101000a900460ff16156132385760005443101561317f576000600360003373ffffffffffffffffffffffffffffffffffffffff1673ffffffffffffffffffffffffffffffffffffffff16815260200190815260200160002060000160006101000a81548160ff021916908315150217905550613237565b600054431061323657613231600160029054906101000a900473ffffffffffffffffffffffffffffffffffffffff1673ffffffffffffffffffffffffffffffffffffffff163373ffffffffffffffffffffffffffffffffffffffff161461320857600160029054906101000a900473ffffffffffffffffffffffffffffffffffffffff1661322c565b600260009054906101000a900473ffffffffffffffffffffffffffffffffffffffff165b6137ad565b61352d565b5b5b6002600581111561324c5761324b614176565b5b600560149054906101000a900460ff16600581111561326e5761326d614176565b5b1461327857600080fd5b6000801b600360003373ffffffffffffffffffffffffffffffffffffffff1673ffffffffffffffffffffffffffffffffffffffff16815260200190815260200160002060030154146132c957600080fd5b80600360003373ffffffffffffffffffffffffffffffffffffffff1673ffffffffffffffffffffffffffffffffffffffff168152602001908152602001600020600301819055506000801b60036000600160029054906101000a900473ffffffffffffffffffffffffffffffffffffffff1673ffffffffffffffffffffffffffffffffffffffff1673ffffffffffffffffffffffffffffffffffffffff16815260200190815260200160002060030154141580156133ee57506000801b60036000600260009054906101000a900473ffffffffffffffffffffffffffffffffffffffff1673ffffffffffffffffffffffffffffffffffffffff1673ffffffffffffffffffffffffffffffffffffffff1681526020019081526020016000206003015414155b1561352c57600060036000600160029054906101000a900473ffffffffffffffffffffffffffffffffffffffff1673ffffffffffffffffffffffffffffffffffffffff1673ffffffffffffffffffffffffffffffffffffffff16815260200190815260200160002060040160006101000a81548160ff021916908360ff1602179055506003600560146101000a81548160ff0219169083600581111561349757613496614176565b5b02179055507f48c0ac148c6adb019cea448b4b78c69778a7b6abdfadce9a6acdc8b983e94bee60405160405180910390a1600260009054906101000a900473ffffffffffffffffffffffffffffffffffffffff16600560006101000a81548173ffffffffffffffffffffffffffffffffffffffff021916908373ffffffffffffffffffffffffffffffffffffffff1602179055505b5b50565b600160029054906101000a900473ffffffffffffffffffffffffffffffffffffffff1673ffffffffffffffffffffffffffffffffffffffff163373ffffffffffffffffffffffffffffffffffffffff1614806135d95750600260009054906101000a900473ffffffffffffffffffffffffffffffffffffffff1673ffffffffffffffffffffffffffffffffffffffff163373ffffffffffffffffffffffffffffffffffffffff16145b6135e257600080fd5b61368b600160029054906101000a900473ffffffffffffffffffffffffffffffffffffffff1673ffffffffffffffffffffffffffffffffffffffff163373ffffffffffffffffffffffffffffffffffffffff161461366257600160029054906101000a900473ffffffffffffffffffffffffffffffffffffffff16613686565b600260009054906101000a900473ffffffffffffffffffffffffffffffffffffffff165b6137ad565b565b600581565b60018054906101000a900460ff1681565b600060058111156136b7576136b6614176565b5b600560149054906101000a900460ff1660058111156136d9576136d8614176565b5b146136e357600080fd5b600073ffffffffffffffffffffffffffffffffffffffff16600260009054906101000a900473ffffffffffffffffffffffffffffffffffffffff1673ffffffffffffffffffffffffffffffffffffffff161461373e57600080fd5b80600260006101000a81548173ffffffffffffffffffffffffffffffffffffffff021916908373ffffffffffffffffffffffffffffffffffffffff1602179055506001600560146101000a81548160ff021916908360058111156137a5576137a4614176565b5b021790555050565b7fe48a335438ec9cf1059d7b134553ca861398a18d023bd34b9e4d956f5f7ba004816040516137dc9190614273565b60405180910390a180600660006101000a81548173ffffffffffffffffffffffffffffffffffffffff021916908373ffffffffffffffffffffffffffffffffffffffff16021790555060058060146101000a81548160ff0219169083600581111561384a57613849614176565b5b021790555050565b60001515600360003373ffffffffffffffffffffffffffffffffffffffff1673ffffffffffffffffffffffffffffffffffffffff16815260200190815260200160002060060160008360ff1660ff16815260200190815260200160002060009054906101000a900460ff161515146138c957600080fd5b600160009054906101000a900460ff1660ff168160ff16106138ea57600080fd5b6001600360003373ffffffffffffffffffffffffffffffffffffffff1673ffffffffffffffffffffffffffffffffffffffff16815260200190815260200160002060060160008360ff1660ff16815260200190815260200160002060006101000a81548160ff021916908315150217905550600360003373ffffffffffffffffffffffffffffffffffffffff1673ffffffffffffffffffffffffffffffffffffffff16815260200190815260200160002060050160405180604001604052808360ff168152602001600060028111156139c6576139c5614176565b5b8152509080600181540180825580915050600190039060005260206000200160009091909190915060008201518160000160006101000a81548160ff021916908360ff16021790555060208201518160000160016101000a81548160ff02191690836002811115613a3a57613a39614176565b5b02179055505050600160029054906101000a900473ffffffffffffffffffffffffffffffffffffffff1673ffffffffffffffffffffffffffffffffffffffff16600560009054906101000a900473ffffffffffffffffffffffffffffffffffffffff1673ffffffffffffffffffffffffffffffffffffffff1614613ae057600160029054906101000a900473ffffffffffffffffffffffffffffffffffffffff16613b04565b600260009054906101000a900473ffffffffffffffffffffffffffffffffffffffff165b600560006101000a81548173ffffffffffffffffffffffffffffffffffffffff021916908373ffffffffffffffffffffffffffffffffffffffff1602179055503373ffffffffffffffffffffffffffffffffffffffff167f665e09da1c684bb4ada2b5c04fe0bb20328ca455aae1928734e0a40dcf0e099e82604051613b8a9190614217565b60405180910390a250565b600080855167ffffffffffffffff811115613bb357613bb26142a4565b5b604051908082528060200260200182016040528015613be15781602001602082028036833780820191505090505b50905060005b8651811015613c7b57613c49878281518110613c0657613c05614b46565b5b6020026020010151878381518110613c2157613c20614b46565b5b6020026020010151878481518110613c3c57613c3b614b46565b5b6020026020010151613cbc565b828281518110613c5c57613c5b614b46565b5b6020026020010181815250508080613c7390614b75565b915050613be7565b50613c8888888584613d18565b9150509695505050505050565b600080613ca3878787613cbc565b9050613cb0848483613d31565b91505095945050505050565b6000838383604051602001613cd393929190614c49565b60405160208183030381529060405280519060200120604051602001613cf99190614ca1565b6040516020818303038152906040528051906020012090509392505050565b600082613d26868685613d48565b149050949350505050565b600082613d3e8584614030565b1490509392505050565b600080825190506000855190506000855190508060018385613d6a9190614b12565b613d749190614be6565b14613db4576040517f08c379a0000000000000000000000000000000000000000000000000000000008152600401613dab90614d19565b60405180910390fd5b60008167ffffffffffffffff811115613dd057613dcf6142a4565b5b604051908082528060200260200182016040528015613dfe5781602001602082028036833780820191505090505b5090506000806000805b85811015613f58576000888510613e4557858480613e2590614b75565b955081518110613e3857613e37614b46565b5b6020026020010151613e6d565b8a8580613e5190614b75565b965081518110613e6457613e63614b46565b5b60200260200101515b905060008c8381518110613e8457613e83614b46565b5b6020026020010151613ebc578d8480613e9c90614b75565b955081518110613eaf57613eae614b46565b5b6020026020010151613f18565b898610613eef57868580613ecf90614b75565b965081518110613ee257613ee1614b46565b5b6020026020010151613f17565b8b8680613efb90614b75565b975081518110613f0e57613f0d614b46565b5b60200260200101515b5b9050613f248282614086565b878481518110613f3757613f36614b46565b5b60200260200101818152505050508080613f5090614b75565b915050613e08565b506000851115613fd057858114613fa4576040517f08c379a0000000000000000000000000000000000000000000000000000000008152600401613f9b90614d19565b60405180910390fd5b836001860381518110613fba57613fb9614b46565b5b6020026020010151975050505050505050614029565b60008711156140035788600081518110613fed57613fec614b46565b5b6020026020010151975050505050505050614029565b8a60008151811061401757614016614b46565b5b60200260200101519750505050505050505b9392505050565b60008082905060005b845181101561407b576140668286838151811061405957614058614b46565b5b6020026020010151614086565b9150808061407390614b75565b915050614039565b508091505092915050565b600081831061409e5761409982846140b1565b6140a9565b6140a883836140b1565b5b905092915050565b600082600052816020526040600020905092915050565b6000819050919050565b6140db816140c8565b82525050565b60006020820190506140f660008301846140d2565b92915050565b6000604051905090565b600080fd5b600080fd5b600060ff82169050919050565b61412681614110565b811461413157600080fd5b50565b6000813590506141438161411d565b92915050565b60006020828403121561415f5761415e614106565b5b600061416d84828501614134565b91505092915050565b7f4e487b7100000000000000000000000000000000000000000000000000000000600052602160045260246000fd5b600681106141b6576141b5614176565b5b50565b60008190506141c7826141a5565b919050565b60006141d7826141b9565b9050919050565b6141e7816141cc565b82525050565b600060208201905061420260008301846141de565b92915050565b61421181614110565b82525050565b600060208201905061422c6000830184614208565b92915050565b600073ffffffffffffffffffffffffffffffffffffffff82169050919050565b600061425d82614232565b9050919050565b61426d81614252565b82525050565b60006020820190506142886000830184614264565b92915050565b600080fd5b6000601f19601f8301169050919050565b7f4e487b7100000000000000000000000000000000000000000000000000000000600052604160045260246000fd5b6142dc82614293565b810181811067ffffffffffffffff821117156142fb576142fa6142a4565b5b80604052505050565b600061430e6140fc565b905061431a82826142d3565b919050565b600067ffffffffffffffff82111561433a576143396142a4565b5b602082029050602081019050919050565b600080fd5b6000819050919050565b61436381614350565b811461436e57600080fd5b50565b6000813590506143808161435a565b92915050565b60006143996143948461431f565b614304565b905080838252602082019050602084028301858111156143bc576143bb61434b565b5b835b818110156143e557806143d18882614371565b8452602084019350506020810190506143be565b5050509392505050565b600082601f8301126144045761440361428e565b5b8135614414848260208601614386565b91505092915050565b600067ffffffffffffffff821115614438576144376142a4565b5b602082029050602081019050919050565b60008115159050919050565b61445e81614449565b811461446957600080fd5b50565b60008135905061447b81614455565b92915050565b600061449461448f8461441d565b614304565b905080838252602082019050602084028301858111156144b7576144b661434b565b5b835b818110156144e057806144cc888261446c565b8452602084019350506020810190506144b9565b5050509392505050565b600082601f8301126144ff576144fe61428e565b5b813561450f848260208601614481565b91505092915050565b600067ffffffffffffffff821115614533576145326142a4565b5b602082029050602081019050919050565b61454d816140c8565b811461455857600080fd5b50565b60008135905061456a81614544565b92915050565b600061458361457e84614518565b614304565b905080838252602082019050602084028301858111156145a6576145a561434b565b5b835b818110156145cf57806145bb888261455b565b8452602084019350506020810190506145a8565b5050509392505050565b600082601f8301126145ee576145ed61428e565b5b81356145fe848260208601614570565b91505092915050565b600067ffffffffffffffff821115614622576146216142a4565b5b602082029050602081019050919050565b600061464661464184614607565b614304565b905080838252602082019050602084028301858111156146695761466861434b565b5b835b81811015614692578061467e8882614134565b84526020840193505060208101905061466b565b5050509392505050565b600082601f8301126146b1576146b061428e565b5b81356146c1848260208601614633565b91505092915050565b600080600080600060a086880312156146e6576146e5614106565b5b600086013567ffffffffffffffff8111156147045761470361410b565b5b614710888289016143ef565b955050602086013567ffffffffffffffff8111156147315761473061410b565b5b61473d888289016144ea565b945050604086013567ffffffffffffffff81111561475e5761475d61410b565b5b61476a888289016144ea565b935050606086013567ffffffffffffffff81111561478b5761478a61410b565b5b614797888289016145d9565b925050608086013567ffffffffffffffff8111156147b8576147b761410b565b5b6147c48882890161469c565b9150509295509295909350565b600080600080600060a086880312156147ed576147ec614106565b5b60006147fb8882890161446c565b955050602061480c8882890161455b565b945050604061481d88828901614134565b935050606086013567ffffffffffffffff81111561483e5761483d61410b565b5b61484a888289016143ef565b925050608061485b88828901614134565b9150509295509295909350565b60006020828403121561487e5761487d614106565b5b600061488c8482850161455b565b91505092915050565b61489e81614252565b81146148a957600080fd5b50565b6000813590506148bb81614895565b92915050565b6000602082840312156148d7576148d6614106565b5b60006148e5848285016148ac565b91505092915050565b6148f781614449565b82525050565b61490681614350565b82525050565b600060a08201905061492160008301886148ee565b61492e60208301876140d2565b61493b60408301866148ee565b61494860608301856148fd565b6149556080830184614208565b9695505050505050565b600081519050919050565b600082825260208201905092915050565b6000819050602082019050919050565b61499481614110565b82525050565b600381106149ab576149aa614176565b5b50565b60008190506149bc8261499a565b919050565b60006149cc826149ae565b9050919050565b6149dc816149c1565b82525050565b6040820160008201516149f8600085018261498b565b506020820151614a0b60208501826149d3565b50505050565b6000614a1d83836149e2565b60408301905092915050565b6000602082019050919050565b6000614a418261495f565b614a4b818561496a565b9350614a568361497b565b8060005b83811015614a87578151614a6e8882614a11565b9750614a7983614a29565b925050600181019050614a5a565b5085935050505092915050565b60006020820190508181036000830152614aae8184614a36565b905092915050565b600060208284031215614acc57614acb614106565b5b6000614ada84828501614371565b91505092915050565b7f4e487b7100000000000000000000000000000000000000000000000000000000600052601160045260246000fd5b6000614b1d826140c8565b9150614b28836140c8565b9250828201905080821115614b4057614b3f614ae3565b5b92915050565b7f4e487b7100000000000000000000000000000000000000000000000000000000600052603260045260246000fd5b6000614b80826140c8565b91507fffffffffffffffffffffffffffffffffffffffffffffffffffffffffffffffff8203614bb257614bb1614ae3565b5b600182019050919050565b6000614bc882614110565b915060ff8203614bdb57614bda614ae3565b5b600182019050919050565b6000614bf1826140c8565b9150614bfc836140c8565b9250828203905081811115614c1457614c13614ae3565b5b92915050565b7f4e487b7100000000000000000000000000000000000000000000000000000000600052600160045260246000fd5b6000606082019050614c5e60008301866148ee565b614c6b60208301856140d2565b614c786040830184614208565b949350505050565b6000819050919050565b614c9b614c9682614350565b614c80565b82525050565b6000614cad8284614c8a565b60208201915081905092915050565b600082825260208201905092915050565b7f4d65726b6c6550726f6f663a20696e76616c6964206d756c746970726f6f6600600082015250565b6000614d03601f83614cbc565b9150614d0e82614ccd565b602082019050919050565b60006020820190508181036000830152614d3281614cf6565b905091905056fea264697066735822122061b16261f299586ef21727768ebbc269d32ed5972bdef9e3985b889ef381c56764736f6c63430008130033",
  "immutableReferences": {},
  "source": "// SPDX-License-Identifier: MIT\npragma solidity >=0.4.22 <0.9.0;\nimport \"@openzeppelin/contracts/utils/cryptography/MerkleProof.sol\";\nimport \"@openzeppelin/contracts/utils/math/SafeMath.sol\";\n\ncontract Game {\n\n    using SafeMath for uint8;\n    using SafeMath for uint256;\n\n    // Field size, the game owner can choose to generate a normal or a  small (faster) match.\n    uint8 public constant BOARD_Small = 4 * 4;\n    uint8 public constant BOARD_Normal = 8 * 8;\n\n    // Fleet size, it is proportional to the game size.\n    uint8 public constant FLEET_Small = 5;\n    uint8 public constant FLEET_Normal = 10;\n\n    // Is the block number after which the player can be considered AFK.\n    uint public afk_timeout;\n\n    // Actual size of the game.\n    uint8 public boardSize;\n    uint8 public fleetSize;\n\n    /*\n     * Different shot state:\n     * Taken represent a shot which result is still not checked.\n     * Hit represent a shot that has hit a ship.\n     * Miss represent a shot that missed.\n     */\n    enum ShotState {\n        Taken,\n        Hit,\n        Miss\n    }\n\n    /*\n     * Shot structure:\n     * index represent the position on the board.\n     * state is the ShotState.\n     */\n    struct Shot {\n        uint8 index;\n        ShotState state;\n    }\n\n    /*\n     * afk is a boolean value that represent if the player is reported as afk.\n     * Player structure:\n     * hasPaid represent if the player has funded.\n     * board is the merkle tree root of the merkle tree representing the board.\n     * hits is the number of ship the player has hit.\n     * shots is a list of the shots the player taken so far.\n     * shotsMap is a mapping index boolean that represent the shots taken.\n     */\n    struct Player {\n        bool afk;\n        uint256 bet;\n        bool hasPaid;\n        bytes32 board;\n        uint8 hits;\n        Shot[] shots;\n        mapping(uint8 => bool) shotsMap;\n    }\n\n    /*Different phases of the game\n     * Waiting: game  successfully created and waiting for a second player to join.\n     * Betting: waiting for the two players to reach an agreement on the bet.\n     * Placement: waiting for the two players to commit their board.\n     * Attack: the players shot a torpedo per turn.\n     * Winner: one of the player has hit all the opponent ships and is declared as winner.\n     * End: the game is terminated and the winner can withdraw the amount he has won.\n     */\n    enum Phase {\n        Waiting,\n        Betting,\n        Placement,\n        Attack,\n        Winner,\n        End\n    }\n\n    // Addresses of the two Players.\n    address public owner;\n    address public adversary;\n\n    // Mapping used to store all the information about the Players.\n    mapping(address => Player) public players;\n\n    // Final agreement on the bet amount.\n    uint256 public bet;\n\n    // Current turn.\n    address public turn;\n\n    // Current game phase\n    Phase public gamePhase;\n\n    // Winner of the game.\n    address public winner;\n\n    ////////////\n    ///EVENTS///\n    ////////////\n\n    // Emitted when a player propos an amount as bet.\n    event BetProposal(address indexed player, uint256 amount);\n\n    // Emitted when players have agreed on the bet.\n    event BetAgreed(uint256 amount);\n\n    // Emitted when both players have deposited the agreed amount.\n    event FundsDeposited();\n\n    // Emitted when both players have committed their boards.\n    event BoardsCommitted();\n\n    // Informs the opponent that cell indexed by `cell` has been shot.\n    event ShotTaken(address indexed player, uint8 cell);\n\n    // Informs that the game has a winner.\n    event Winner(address player);\n\n    // Winner board has been correctly verified.\n    event WinnerVerified(address player);\n\n    // A player is reported as AFK.\n    event PlayerAFK(address player);\n\n    // A player made a move -> no more AFK.\n    event PlayerMove(address player);\n\n    ///////////////\n    ///MODIFIERS///\n    ///////////////\n\n    // Modifiers used to check if a function is called by a legit actor.\n\n    modifier onlyPlayer() {\n        require(msg.sender == owner || msg.sender == adversary);\n        _;\n    }\n\n    modifier onlyWinner() {\n        require(msg.sender == winner);\n        _;\n    }\n\n    modifier isPlayerTurn() {\n        require(msg.sender == turn);\n        _;\n    }\n\n    modifier noFund() {\n        require(players[msg.sender].hasPaid != true);\n        _;\n    }\n\n    // Modifiers used to check if a function is called in a legit game phase.\n    modifier phaseWaiting() {\n        require(gamePhase == Phase.Waiting);\n        _;\n    }\n\n    modifier phaseBetting() {\n        require(gamePhase == Phase.Betting);\n        _;\n    }\n\n    modifier phasePlacement() {\n        require(gamePhase == Phase.Placement);\n        _;\n    }\n\n    modifier phaseAttack() {\n        require(gamePhase == Phase.Attack);\n        _;\n    }\n\n    modifier phaseWinner() {\n        require(gamePhase == Phase.Winner);\n        _;\n    }\n\n    modifier phaseEnd() {\n        require(gamePhase == Phase.End);\n        _;\n    }\n\n    // A player can be reported as AFK:\n    // -> in betting phase if he has not funded yet\n    // -> in placement phase if he has not committed his board yet\n    // -> in attack phase if is his turn\n    // -> in winner phase if he is the winner\n    // -> In this way the AFK report are allowed only when the opponent can take a move\n    // -> and the report is legit.\n    // -> In waiting and End phase the players have no interest in reporting AFK because\n    // -> the contract has no balance.\n    modifier afkAllowed() {\n        address opponent = msg.sender == owner ? adversary : owner;\n        require(\n            (gamePhase == Phase.Betting &&\n                players[opponent].hasPaid == false) ||\n                (gamePhase == Phase.Placement &&\n                    players[opponent].board == 0) ||\n                (gamePhase == Phase.Attack && turn == opponent) ||\n                (gamePhase == Phase.Winner && winner == opponent)\n        );\n        _;\n    }\n\n    // This modifier is applied on all the method that can be performed by a player reported\n    // as AFK. If the action is performed before the timeout the AFK status is removed, otherwise\n    // the AFK status is verified and the opponent wins.\n    modifier stillAFK(){\n            if (players[msg.sender].afk) {\n            // The player has done an action before the timeout -> No more AFK\n            if (block.number < afk_timeout) {\n                players[msg.sender].afk = false;\n            } else if (block.number >= afk_timeout) {\n                // The action made a move after the timeout -> AFK verified\n                _declareWinner(msg.sender == owner ? adversary : owner);\n                return;\n            }\n        }\n        _;\n    }\n\n    ///////////////\n    ////PUBLIC/////\n    ///FUNCTIONS///\n    ///////////////\n\n    /*Constructor, used to initialize a game*/\n    constructor(address _owner, bool _small) {\n        owner = _owner;\n        // Initialize the board and fleet size\n        _small ? boardSize = BOARD_Small : boardSize = BOARD_Normal;\n        _small ? fleetSize = FLEET_Small : fleetSize = FLEET_Normal;\n        gamePhase = Phase.Waiting;\n    }\n\n    /*Function used to register a player as adversary.*/\n    function matchJoin(address _adversary) external phaseWaiting {\n        require(adversary == address(0));\n        adversary = _adversary;\n        gamePhase = Phase.Betting;\n    }\n\n    /*Function used to propose a new bet*/\n    function proposeBet (\n        uint256 _amount\n    ) external onlyPlayer noFund stillAFK phaseBetting {\n        players[msg.sender].bet = _amount;\n        emit BetProposal(msg.sender, players[msg.sender].bet);\n    }\n\n    /*Function used to accept the opponent bet propose.*/\n    function acceptBet() external onlyPlayer noFund stillAFK phaseBetting {\n        address opponent = msg.sender == owner ? adversary : owner;\n\n        require(\n            (players[opponent].bet != 0));\n\n        // Set the game bet and emit BetAgreed event.\n        bet = players[opponent].bet;\n        players[opponent].bet = bet;\n        emit BetAgreed(bet);\n    }\n\n    /*Function callable in Funding phase by a player that has not fund yet\n    to deposit the bet amount.*/\n    function betFunds() external payable onlyPlayer noFund stillAFK phaseBetting {\n        require(msg.value == bet);\n        players[msg.sender].hasPaid = true;\n\n        // If both have paid, move on to the next phase and emit FundDeposited event.\n        if (players[owner].hasPaid && players[adversary].hasPaid) {\n            emit FundsDeposited();\n            gamePhase = Phase.Placement;\n        }\n    }\n\n    /*Function that can be used to forfeit, the adversary automatically wins*/\n    function forfeit() external onlyPlayer{\n        _declareWinner(msg.sender == owner ? adversary : owner);\n    }\n\n    /*Function callable in Placement phase by a player to commit his board.*/\n    function commitBoard(bytes32 _board) external onlyPlayer stillAFK phasePlacement {\n        require(players[msg.sender].board == 0);\n        players[msg.sender].board = _board;\n\n        // If both have committed their board move on and emit BoardsCommitted event.\n        if (players[owner].board != 0 && players[adversary].board != 0) {\n            players[owner].hits = 0;\n            gamePhase = Phase.Attack;\n            emit BoardsCommitted();\n            //The first shot is for the adversary.\n            turn = adversary;\n        }\n    }\n\n    /*Function callable to retrieve the shot of a target player*/\n    function getShotsTaken(\n        address _player\n    ) external view returns (Shot[] memory) {\n        return players[_player].shots;\n    }\n\n    // Function used only for the first attack (it has not check phase).\n    function attack(uint8 _index) external phaseAttack stillAFK isPlayerTurn {\n        _attack(_index);\n    }\n\n    /*Function that checks the result of the previous taken shot and perform an attack.\n    this function allows to perform the check and the shot of two attacks in a single \n    transaction, the player first confirms the last shot taken by providing proof \n    of the target node and then fires a shot\n    */\n    function counterattack(\n        bool _isShip,\n        uint256 _salt,\n        uint8 _index,\n        bytes32[] memory _proof,\n        uint8 _attackIndex\n    ) external phaseAttack stillAFK isPlayerTurn {\n        // Retrieving the last unconfirmed shot of the opponent.\n        address opponent = msg.sender == owner ? adversary : owner;\n\n        assert(\n            players[opponent].shots[players[opponent].shots.length - 1].state ==\n                ShotState.Taken\n        );\n        require(\n            players[opponent].shots[players[opponent].shots.length - 1].index ==\n                _index\n        );\n\n        // check the proof for the node\n        if (\n            !_checkProof(\n                _isShip,\n                _salt,\n                _index,\n                _proof,\n                players[msg.sender].board\n            )\n        ) {\n            //If the player tried to cheat the result the opponent wins.\n            _declareWinner(opponent);\n            return;\n        }\n\n        //If the player hit a ship\n        if (_isShip) {\n            //Update the shot state and the opponent hits.\n            players[opponent]\n                .shots[players[opponent].shots.length - 1]\n                .state = ShotState.Hit;\n            players[msg.sender].hits++;\n\n            // If the opponent has hit all of our ships he wins.\n            if (players[msg.sender].hits == fleetSize) {\n                // Move on to the next phase and emit Winner event.\n                winner = opponent;\n                gamePhase = Phase.Winner;\n                emit Winner(opponent);\n                return;\n            }\n        } else {\n            players[opponent]\n                .shots[players[opponent].shots.length - 1]\n                .state = ShotState.Miss;\n        }\n\n        //Perform the attack on the board.\n        _attack(_attackIndex);\n    }\n\n    /*Function that checks the validity of the winner board.*/\n    function checkWinnerBoard(\n        bytes32[] memory _proof,\n        bool[] memory _proofFlags,\n        bool[] memory _cells,\n        uint256[] memory _salts,\n        uint8[] memory _indexes\n    ) external phaseWinner stillAFK onlyWinner {\n        //Check if the number of values for the leaves are consistent\n        require(_cells.length == _salts.length);\n        require(_cells.length == _indexes.length);\n\n        address opponent = msg.sender == owner ? adversary : owner;\n\n        // Int used to store the remaining ships number on the board\n        uint8 ships = 0;\n\n        // Array used to verify if the player tries to re-use an index\n        bool[] memory usedIndexes = new bool[](boardSize);\n\n        // Initialized to false\n        for (uint256 i = 0; i < boardSize; i++) {\n            usedIndexes[i] = false;\n        }\n\n        // As first we verify the multiproof for each leaf\n        if (\n            !_checkMultiProof(\n                _proof,\n                _proofFlags,\n                _cells,\n                _salts,\n                _indexes,\n                players[msg.sender].board\n            )\n        ) {\n            _declareWinner(opponent);\n            return;\n        }\n\n        // Iterate over the provided cells\n        for (uint i = 0; i < _cells.length; i++) {\n            // Check if the index falls in the board dimension\n            if (_indexes[i] >= boardSize) {\n                _declareWinner(opponent);\n                return;\n            }\n\n            // Check if the player tried to re-use an index\n            if (usedIndexes[_indexes[i]]) {\n                _declareWinner(opponent);\n            }\n\n            // Set the index as used\n            usedIndexes[_indexes[i]] = true;\n\n            if (_cells[i]) {\n                ships++;\n            }\n        }\n\n        // Check that the player has placed the correct number and types of ships.\n        // If we want to implement custom ship sizes (e.g. carrier = 3x1), we can add\n        // a _checkFunction that verifies certain rules are respected for the cells confirmed\n        // by the multiProof. One approach could be to store not only the isShip value in\n        // the leaf, but also an integer identifier for each ship type (e.g., carrier = 1)\n        // and its orientation (H, L). This would allow us to validate whether the\n        // ships are correctly placed on the board. However, implementing this would increase\n        // the complexity of the Merkle proof. My choice is to use 1x1 ships that can be placed\n        // with flexibility on the board, in this way only a boolean value is needed for each leaf.\n        if (ships == fleetSize) {\n            _declareWinner(msg.sender);\n        } else {\n            // If he placed an invalid amount of ships he cheated.\n            _declareWinner(opponent);\n        }\n    }\n\n    // Function used to withdraw all the the balance of the contract.\n    function withdraw() external phaseEnd onlyWinner {\n        gamePhase = Phase.End;\n        payable(msg.sender).transfer(address(this).balance);\n    }\n\n    /* Function used to report a player as AFK. \n    // The AfkAllowed modifier force the method to be used only when the opponent can take \n    // on of this move: (Fund ETH, Commit Board, Attack, Verify Board)\n    */\n\n    function reportAFK() external onlyPlayer afkAllowed {\n        address opponent = msg.sender == owner ? adversary : owner;\n\n        // Verify that the opponent has not been reported before.\n        require(!players[opponent].afk);\n\n        emit PlayerAFK(opponent);\n\n        // Player is set as AFK and the timeout is set to 5 blocks.\n        players[opponent].afk = true;\n        afk_timeout = block.number + 5;\n    }\n\n    /* Function used to verify if a player (previously reported as AFK) is still AFK.\n    // If the player made no move in the 5 block timeout the opponent wins the game.\n    // If the player took a move before the 5 block timeout he is set as not AFK to avoid\n    // spam of the verifyAFK method by the opponent.\n    */\n    function verifyAFK() external onlyPlayer afkAllowed {\n        address opponent = msg.sender == owner ? adversary : owner;\n\n        if (players[opponent].afk && block.number >= afk_timeout) {\n            _declareWinner(msg.sender);\n        } else {\n            players[opponent].afk = false;\n            emit PlayerMove(opponent);\n        }\n    }\n\n    ///////////////\n    ////HELPERS////\n    ///////////////\n\n    function _attack(uint8 _index) internal {\n        // Check if the cell is in range and was not shot before.\n        require(\n            players[msg.sender].shotsMap[_index] == false);\n        require(_index < boardSize);\n\n        // Set the shot as taken.\n        players[msg.sender].shotsMap[_index] = true;\n        players[msg.sender].shots.push(Shot(_index, ShotState.Taken));\n\n        // Change the turn.\n        turn = turn == owner ? adversary : owner;\n\n        // Emit a ShotTaken event.\n        emit ShotTaken(msg.sender, _index);\n    }\n\n    /* Returns true if the leaf can be proved to be a part of the Merkle tree\n     defined by root. \n     */\n    function _checkProof(\n        bool _isShip,\n        uint256 _salt,\n        uint8 _index,\n        bytes32[] memory _proof,\n        bytes32 _root\n    ) internal pure returns (bool) {\n        // Encode the leaf.\n        bytes32 leaf = _encodeLeaf(_isShip, _salt, _index);\n        // Verify the MerkleProof.\n        return MerkleProof.verify(_proof, _root, leaf);\n    }\n\n    /* Returns true if the leaves can be simultaneously proven to be a part of a merkle tree defined by\n     root. To perform multiproof the tree is traversed up from the leaves and this function should help in\n     saving some gas w.r.t. using MerkleProof.verify() for each single node.\n     */\n    function _checkMultiProof(\n        bytes32[] memory _proof,\n        bool[] memory _proofFlags,\n        bool[] memory _cells,\n        uint256[] memory _salts,\n        uint8[] memory _indexes,\n        bytes32 _root\n    ) internal pure returns (bool) {\n        // Encode each leaf\n        bytes32[] memory leaves = new bytes32[](_cells.length);\n        for (uint i = 0; i < _cells.length; i++) {\n            leaves[i] = _encodeLeaf(_cells[i], _salts[i], _indexes[i]);\n        }\n        // Verify the multiProof on all the leaves.\n        return MerkleProof.multiProofVerify(_proof, _proofFlags, _root, leaves);\n    }\n\n    /*Hashes and encodes the leaf parameters into a 32-byte value.*/\n    function _encodeLeaf(\n        bool _isShip,\n        uint256 _salt,\n        uint8 _index\n    ) internal pure returns (bytes32) {\n        return\n            keccak256(\n                bytes.concat(keccak256(abi.encode(_isShip, _salt, _index)))\n            );\n    }\n\n    /*Set the game winner, set the gamePhase and emit WinnerVerified event*/\n    function _declareWinner(address player) internal {\n        emit WinnerVerified(player);\n        winner = player;\n        gamePhase = Phase.End;\n    }\n}\n",
  "sourcePath": "/home/azk/Desktop/merketh-battleship/backend/contracts/Game.sol",
  "compiler": {
    "name": "solc",
    "version": "0.8.19+commit.7dd6d404.Emscripten.clang"
  },
  "schemaVersion": "3.4.13",
  "updatedAt": "2023-07-19T19:20:24.665Z",
  "devdoc": {
    "kind": "dev",
    "methods": {},
    "version": 1
  },
  "userdoc": {
    "events": {
      "BetProposal(address,uint256)": {
        "notice": "EVENTS///"
      }
    },
    "kind": "user",
    "methods": {
      "constructor": {
        "notice": "FUNCTIONS///"
      }
    },
    "version": 1
  }
}