{
  "contractName": "Game",
  "abi": [
    {
      "inputs": [
        {
          "internalType": "address",
          "name": "_owner",
          "type": "address"
        },
        {
          "internalType": "bool",
          "name": "_small",
          "type": "bool"
        }
      ],
      "stateMutability": "nonpayable",
      "type": "constructor"
    },
    {
      "anonymous": false,
      "inputs": [
        {
          "indexed": false,
          "internalType": "uint256",
          "name": "amount",
          "type": "uint256"
        }
      ],
      "name": "BetAgreed",
      "type": "event"
    },
    {
      "anonymous": false,
      "inputs": [
        {
          "indexed": true,
          "internalType": "address",
          "name": "player",
          "type": "address"
        },
        {
          "indexed": false,
          "internalType": "uint256",
          "name": "amount",
          "type": "uint256"
        }
      ],
      "name": "BetProposal",
      "type": "event"
    },
    {
      "anonymous": false,
      "inputs": [],
      "name": "BoardsCommitted",
      "type": "event"
    },
    {
      "anonymous": false,
      "inputs": [
        {
          "indexed": false,
          "internalType": "bool",
          "name": "small",
          "type": "bool"
        }
      ],
      "name": "DimensionSelected",
      "type": "event"
    },
    {
      "anonymous": false,
      "inputs": [],
      "name": "Forfait",
      "type": "event"
    },
    {
      "anonymous": false,
      "inputs": [],
      "name": "FundsDeposited",
      "type": "event"
    },
    {
      "anonymous": false,
      "inputs": [
        {
          "indexed": false,
          "internalType": "uint8",
          "name": "cell",
          "type": "uint8"
        }
      ],
      "name": "Hit",
      "type": "event"
    },
    {
      "anonymous": false,
      "inputs": [
        {
          "indexed": false,
          "internalType": "address",
          "name": "player",
          "type": "address"
        }
      ],
      "name": "PlayerAFK",
      "type": "event"
    },
    {
      "anonymous": false,
      "inputs": [
        {
          "indexed": true,
          "internalType": "address",
          "name": "player",
          "type": "address"
        },
        {
          "indexed": false,
          "internalType": "uint8",
          "name": "cell",
          "type": "uint8"
        }
      ],
      "name": "ShotTaken",
      "type": "event"
    },
    {
      "anonymous": false,
      "inputs": [
        {
          "indexed": false,
          "internalType": "address",
          "name": "player",
          "type": "address"
        }
      ],
      "name": "Winner",
      "type": "event"
    },
    {
      "anonymous": false,
      "inputs": [
        {
          "indexed": false,
          "internalType": "address",
          "name": "player",
          "type": "address"
        }
      ],
      "name": "WinnerVerified",
      "type": "event"
    },
    {
      "inputs": [],
      "name": "BOARD_Normal",
      "outputs": [
        {
          "internalType": "uint8",
          "name": "",
          "type": "uint8"
        }
      ],
      "stateMutability": "view",
      "type": "function"
    },
    {
      "inputs": [],
      "name": "BOARD_Small",
      "outputs": [
        {
          "internalType": "uint8",
          "name": "",
          "type": "uint8"
        }
      ],
      "stateMutability": "view",
      "type": "function"
    },
    {
      "inputs": [],
      "name": "FLEET_Normal",
      "outputs": [
        {
          "internalType": "uint8",
          "name": "",
          "type": "uint8"
        }
      ],
      "stateMutability": "view",
      "type": "function"
    },
    {
      "inputs": [],
      "name": "FLEET_Small",
      "outputs": [
        {
          "internalType": "uint8",
          "name": "",
          "type": "uint8"
        }
      ],
      "stateMutability": "view",
      "type": "function"
    },
    {
      "inputs": [],
      "name": "adversary",
      "outputs": [
        {
          "internalType": "address",
          "name": "",
          "type": "address"
        }
      ],
      "stateMutability": "view",
      "type": "function"
    },
    {
      "inputs": [],
      "name": "afk_timeout",
      "outputs": [
        {
          "internalType": "uint256",
          "name": "",
          "type": "uint256"
        }
      ],
      "stateMutability": "view",
      "type": "function"
    },
    {
      "inputs": [],
      "name": "bet",
      "outputs": [
        {
          "internalType": "uint256",
          "name": "",
          "type": "uint256"
        }
      ],
      "stateMutability": "view",
      "type": "function"
    },
    {
      "inputs": [
        {
          "internalType": "address",
          "name": "",
          "type": "address"
        }
      ],
      "name": "betsQueue",
      "outputs": [
        {
          "internalType": "uint256",
          "name": "",
          "type": "uint256"
        }
      ],
      "stateMutability": "view",
      "type": "function"
    },
    {
      "inputs": [],
      "name": "boardSize",
      "outputs": [
        {
          "internalType": "uint8",
          "name": "",
          "type": "uint8"
        }
      ],
      "stateMutability": "view",
      "type": "function"
    },
    {
      "inputs": [],
      "name": "fleetSize",
      "outputs": [
        {
          "internalType": "uint8",
          "name": "",
          "type": "uint8"
        }
      ],
      "stateMutability": "view",
      "type": "function"
    },
    {
      "inputs": [],
      "name": "gamePhase",
      "outputs": [
        {
          "internalType": "enum Game.Phase",
          "name": "",
          "type": "uint8"
        }
      ],
      "stateMutability": "view",
      "type": "function"
    },
    {
      "inputs": [],
      "name": "owner",
      "outputs": [
        {
          "internalType": "address",
          "name": "",
          "type": "address"
        }
      ],
      "stateMutability": "view",
      "type": "function"
    },
    {
      "inputs": [
        {
          "internalType": "address",
          "name": "",
          "type": "address"
        }
      ],
      "name": "players",
      "outputs": [
        {
          "internalType": "bool",
          "name": "afk",
          "type": "bool"
        },
        {
          "internalType": "bool",
          "name": "hasPaid",
          "type": "bool"
        },
        {
          "internalType": "bytes32",
          "name": "board",
          "type": "bytes32"
        },
        {
          "internalType": "uint8",
          "name": "hits",
          "type": "uint8"
        }
      ],
      "stateMutability": "view",
      "type": "function"
    },
    {
      "inputs": [],
      "name": "turn",
      "outputs": [
        {
          "internalType": "address",
          "name": "",
          "type": "address"
        }
      ],
      "stateMutability": "view",
      "type": "function"
    },
    {
      "inputs": [],
      "name": "winner",
      "outputs": [
        {
          "internalType": "address",
          "name": "",
          "type": "address"
        }
      ],
      "stateMutability": "view",
      "type": "function"
    },
    {
      "inputs": [
        {
          "internalType": "address",
          "name": "_adversary",
          "type": "address"
        }
      ],
      "name": "matchJoin",
      "outputs": [],
      "stateMutability": "nonpayable",
      "type": "function"
    },
    {
      "inputs": [
        {
          "internalType": "uint256",
          "name": "_amount",
          "type": "uint256"
        }
      ],
      "name": "proposeBet",
      "outputs": [],
      "stateMutability": "nonpayable",
      "type": "function"
    },
    {
      "inputs": [],
      "name": "acceptBet",
      "outputs": [],
      "stateMutability": "nonpayable",
      "type": "function"
    },
    {
      "inputs": [],
      "name": "betFunds",
      "outputs": [],
      "stateMutability": "payable",
      "type": "function"
    },
    {
      "inputs": [],
      "name": "forfait",
      "outputs": [],
      "stateMutability": "nonpayable",
      "type": "function"
    },
    {
      "inputs": [
        {
          "internalType": "bytes32",
          "name": "_board",
          "type": "bytes32"
        }
      ],
      "name": "commitBoard",
      "outputs": [],
      "stateMutability": "nonpayable",
      "type": "function"
    },
    {
      "inputs": [
        {
          "internalType": "address",
          "name": "_player",
          "type": "address"
        }
      ],
      "name": "getShotsTaken",
      "outputs": [
        {
          "components": [
            {
              "internalType": "uint8",
              "name": "index",
              "type": "uint8"
            },
            {
              "internalType": "enum Game.ShotState",
              "name": "state",
              "type": "uint8"
            }
          ],
          "internalType": "struct Game.Shot[]",
          "name": "",
          "type": "tuple[]"
        }
      ],
      "stateMutability": "view",
      "type": "function"
    },
    {
      "inputs": [
        {
          "internalType": "uint8",
          "name": "_index",
          "type": "uint8"
        }
      ],
      "name": "attack",
      "outputs": [],
      "stateMutability": "nonpayable",
      "type": "function"
    },
    {
      "inputs": [
        {
          "internalType": "bool",
          "name": "_isShip",
          "type": "bool"
        },
        {
          "internalType": "uint256",
          "name": "_salt",
          "type": "uint256"
        },
        {
          "internalType": "uint8",
          "name": "_index",
          "type": "uint8"
        },
        {
          "internalType": "bytes32[]",
          "name": "_proof",
          "type": "bytes32[]"
        },
        {
          "internalType": "uint8",
          "name": "_attackIndex",
          "type": "uint8"
        }
      ],
      "name": "checkAndAttack",
      "outputs": [],
      "stateMutability": "nonpayable",
      "type": "function"
    },
    {
      "inputs": [
        {
          "internalType": "bytes32[]",
          "name": "_proof",
          "type": "bytes32[]"
        },
        {
          "internalType": "bool[]",
          "name": "_proofFlags",
          "type": "bool[]"
        },
        {
          "internalType": "bool[]",
          "name": "_cells",
          "type": "bool[]"
        },
        {
          "internalType": "uint256[]",
          "name": "_salts",
          "type": "uint256[]"
        },
        {
          "internalType": "uint8[]",
          "name": "_indexes",
          "type": "uint8[]"
        }
      ],
      "name": "checkWinnerBoard",
      "outputs": [],
      "stateMutability": "nonpayable",
      "type": "function"
    },
    {
      "inputs": [],
      "name": "withdraw",
      "outputs": [],
      "stateMutability": "nonpayable",
      "type": "function"
    },
    {
      "inputs": [],
      "name": "reportAFK",
      "outputs": [],
      "stateMutability": "nonpayable",
      "type": "function"
    },
    {
      "inputs": [],
      "name": "verifyAFK",
      "outputs": [],
      "stateMutability": "nonpayable",
      "type": "function"
    }
  ],
  "bytecode": "0x60806040523480156200001157600080fd5b50604051620048f1380380620048f1833981810160405281019062000037919062000214565b81600160026101000a81548173ffffffffffffffffffffffffffffffffffffffff021916908373ffffffffffffffffffffffffffffffffffffffff160217905550806200009f576040600160006101000a81548160ff021916908360ff1602179055620000bb565b6010600160006101000a81548160ff021916908360ff16021790555b5080620000e257600a6001806101000a81548160ff021916908360ff1602179055620000fd565b60056001806101000a81548160ff021916908360ff16021790555b506000600760146101000a81548160ff021916908360068111156200012757620001266200025b565b5b02179055507f2ed32fef419990048899fb76d9c3c710ad99dc18911f08a69a3a85807c636673816040516200015d91906200029b565b60405180910390a15050620002b8565b600080fd5b600073ffffffffffffffffffffffffffffffffffffffff82169050919050565b60006200019f8262000172565b9050919050565b620001b18162000192565b8114620001bd57600080fd5b50565b600081519050620001d181620001a6565b92915050565b60008115159050919050565b620001ee81620001d7565b8114620001fa57600080fd5b50565b6000815190506200020e81620001e3565b92915050565b600080604083850312156200022e576200022d6200016d565b5b60006200023e85828601620001c0565b92505060206200025185828601620001fd565b9150509250929050565b7f4e487b7100000000000000000000000000000000000000000000000000000000600052602160045260246000fd5b6200029581620001d7565b82525050565b6000602082019050620002b260008301846200028a565b92915050565b61462980620002c86000396000f3fe6080604052600436106101b75760003560e01c8063bcc9f3e6116100ec578063e35d284b1161008a578063ea66144a11610064578063ea66144a14610570578063f5126b6b14610599578063f87a6300146105c4578063fadca01e146105ef576101b7565b8063e35d284b146104df578063e65e84921461050a578063e75e0e5b14610547576101b7565b8063d43faafd116100c6578063d43faafd14610434578063dfbf53ae1461045d578063e25387e414610488578063e2eb41ff1461049f576101b7565b8063bcc9f3e6146103b5578063c51d69f4146103de578063cc12f58e14610409576101b7565b80633ccfd60b116101595780638b80aac4116101335780638b80aac4146103315780638da5cb5b1461035c578063980202d114610387578063a562ea3b1461039e576101b7565b80633ccfd60b146102c4578063577c87cb146102db5780638b29990314610306576101b7565b80631c253fd2116101955780631c253fd21461023b5780631e20ddab1461027857806330bfcb5f146102825780633951be8714610299576101b7565b806311610c25146101bc5780631999eca8146101e75780631bb565d614610210575b600080fd5b3480156101c857600080fd5b506101d1610618565b6040516101de9190613654565b60405180910390f35b3480156101f357600080fd5b5061020e600480360381019061020991906136bc565b61061e565b005b34801561021c57600080fd5b506102256106c4565b6040516102329190613654565b60405180910390f35b34801561024757600080fd5b50610262600480360381019061025d9190613747565b6106ca565b60405161026f9190613654565b60405180910390f35b6102806106e2565b005b34801561028e57600080fd5b506102976109e8565b005b3480156102a557600080fd5b506102ae610df0565b6040516102bb91906137eb565b60405180910390f35b3480156102d057600080fd5b506102d9610e03565b005b3480156102e757600080fd5b506102f0610f10565b6040516102fd9190613815565b60405180910390f35b34801561031257600080fd5b5061031b610f15565b604051610328919061383f565b60405180910390f35b34801561033d57600080fd5b50610346610f3b565b604051610353919061383f565b60405180910390f35b34801561036857600080fd5b50610371610f61565b60405161037e919061383f565b60405180910390f35b34801561039357600080fd5b5061039c610f87565b005b3480156103aa57600080fd5b506103b3611176565b005b3480156103c157600080fd5b506103dc60048036038101906103d79190613c96565b6115dc565b005b3480156103ea57600080fd5b506103f3611833565b6040516104009190613815565b60405180910390f35b34801561041557600080fd5b5061041e611846565b60405161042b9190613815565b60405180910390f35b34801561044057600080fd5b5061045b60048036038101906104569190613d9d565b61184b565b005b34801561046957600080fd5b506104726119d2565b60405161047f919061383f565b60405180910390f35b34801561049457600080fd5b5061049d6119f8565b005b3480156104ab57600080fd5b506104c660048036038101906104c19190613747565b611c40565b6040516104d69493929190613de8565b60405180910390f35b3480156104eb57600080fd5b506104f4611c97565b6040516105019190613815565b60405180910390f35b34801561051657600080fd5b50610531600480360381019061052c9190613747565b611c9c565b60405161053e9190613f62565b60405180910390f35b34801561055357600080fd5b5061056e60048036038101906105699190613f84565b611d91565b005b34801561057c57600080fd5b506105976004803603810190610592919061401b565b6125dc565b005b3480156105a557600080fd5b506105ae612b5d565b6040516105bb9190613815565b60405180910390f35b3480156105d057600080fd5b506105d9612b62565b6040516105e69190613815565b60405180910390f35b3480156105fb57600080fd5b5061061660048036038101906106119190613747565b612b73565b005b60055481565b6004600681111561063257610631613774565b5b600760149054906101000a900460ff16600681111561065457610653613774565b5b1461065e57600080fd5b600660009054906101000a900473ffffffffffffffffffffffffffffffffffffffff1673ffffffffffffffffffffffffffffffffffffffff163373ffffffffffffffffffffffffffffffffffffffff16146106b857600080fd5b6106c181612cb3565b50565b60005481565b60046020528060005260406000206000915090505481565b600160029054906101000a900473ffffffffffffffffffffffffffffffffffffffff1673ffffffffffffffffffffffffffffffffffffffff163373ffffffffffffffffffffffffffffffffffffffff16148061078b5750600260009054906101000a900473ffffffffffffffffffffffffffffffffffffffff1673ffffffffffffffffffffffffffffffffffffffff163373ffffffffffffffffffffffffffffffffffffffff16145b61079457600080fd5b60011515600360003373ffffffffffffffffffffffffffffffffffffffff1673ffffffffffffffffffffffffffffffffffffffff16815260200190815260200160002060000160019054906101000a900460ff161515036107f457600080fd5b6002600681111561080857610807613774565b5b600760149054906101000a900460ff16600681111561082a57610829613774565b5b1461083457600080fd5b600554341461084257600080fd5b6001600360003373ffffffffffffffffffffffffffffffffffffffff1673ffffffffffffffffffffffffffffffffffffffff16815260200190815260200160002060000160016101000a81548160ff02191690831515021790555060036000600160029054906101000a900473ffffffffffffffffffffffffffffffffffffffff1673ffffffffffffffffffffffffffffffffffffffff1673ffffffffffffffffffffffffffffffffffffffff16815260200190815260200160002060000160019054906101000a900460ff168015610989575060036000600260009054906101000a900473ffffffffffffffffffffffffffffffffffffffff1673ffffffffffffffffffffffffffffffffffffffff1673ffffffffffffffffffffffffffffffffffffffff16815260200190815260200160002060000160019054906101000a900460ff165b156109e6577fd2d72fde7537c550b5e85eabb70a65949c78bb66328f56c78ddc8251950a994160405160405180910390a16003600760146101000a81548160ff021916908360068111156109e0576109df613774565b5b02179055505b565b600160029054906101000a900473ffffffffffffffffffffffffffffffffffffffff1673ffffffffffffffffffffffffffffffffffffffff163373ffffffffffffffffffffffffffffffffffffffff161480610a915750600260009054906101000a900473ffffffffffffffffffffffffffffffffffffffff1673ffffffffffffffffffffffffffffffffffffffff163373ffffffffffffffffffffffffffffffffffffffff16145b610a9a57600080fd5b60016006811115610aae57610aad613774565b5b600760149054906101000a900460ff166006811115610ad057610acf613774565b5b14610ada57600080fd5b600160029054906101000a900473ffffffffffffffffffffffffffffffffffffffff1673ffffffffffffffffffffffffffffffffffffffff163373ffffffffffffffffffffffffffffffffffffffff16148015610b995750600060046000600260009054906101000a900473ffffffffffffffffffffffffffffffffffffffff1673ffffffffffffffffffffffffffffffffffffffff1673ffffffffffffffffffffffffffffffffffffffff1681526020019081526020016000205414155b80610c5f5750600260009054906101000a900473ffffffffffffffffffffffffffffffffffffffff1673ffffffffffffffffffffffffffffffffffffffff163373ffffffffffffffffffffffffffffffffffffffff16148015610c5e5750600060046000600160029054906101000a900473ffffffffffffffffffffffffffffffffffffffff1673ffffffffffffffffffffffffffffffffffffffff1673ffffffffffffffffffffffffffffffffffffffff1681526020019081526020016000205414155b5b610c9e576040517f08c379a0000000000000000000000000000000000000000000000000000000008152600401610c95906140cb565b60405180910390fd5b6000600160029054906101000a900473ffffffffffffffffffffffffffffffffffffffff1673ffffffffffffffffffffffffffffffffffffffff163373ffffffffffffffffffffffffffffffffffffffff1614610d1d57600160029054906101000a900473ffffffffffffffffffffffffffffffffffffffff16610d41565b600260009054906101000a900473ffffffffffffffffffffffffffffffffffffffff165b9050600460008273ffffffffffffffffffffffffffffffffffffffff1673ffffffffffffffffffffffffffffffffffffffff168152602001908152602001600020546005819055506002600760146101000a81548160ff02191690836006811115610daf57610dae613774565b5b02179055507f50ac8120affab45c80b99be15eba8c23598651f799d4ad1c2e0c91f92e7e23b1600554604051610de59190613654565b60405180910390a150565b600760149054906101000a900460ff1681565b600680811115610e1657610e15613774565b5b600760149054906101000a900460ff166006811115610e3857610e37613774565b5b14610e4257600080fd5b600760009054906101000a900473ffffffffffffffffffffffffffffffffffffffff1673ffffffffffffffffffffffffffffffffffffffff163373ffffffffffffffffffffffffffffffffffffffff1614610e9c57600080fd5b6006600760146101000a81548160ff02191690836006811115610ec257610ec1613774565b5b02179055503373ffffffffffffffffffffffffffffffffffffffff166108fc479081150290604051600060405180830381858888f19350505050158015610f0d573d6000803e3d6000fd5b50565b601081565b600660009054906101000a900473ffffffffffffffffffffffffffffffffffffffff1681565b600260009054906101000a900473ffffffffffffffffffffffffffffffffffffffff1681565b600160029054906101000a900473ffffffffffffffffffffffffffffffffffffffff1681565b600160029054906101000a900473ffffffffffffffffffffffffffffffffffffffff1673ffffffffffffffffffffffffffffffffffffffff163373ffffffffffffffffffffffffffffffffffffffff1614806110305750600260009054906101000a900473ffffffffffffffffffffffffffffffffffffffff1673ffffffffffffffffffffffffffffffffffffffff163373ffffffffffffffffffffffffffffffffffffffff16145b61103957600080fd5b60011515600360003373ffffffffffffffffffffffffffffffffffffffff1673ffffffffffffffffffffffffffffffffffffffff16815260200190815260200160002060000160019054906101000a900460ff1615151461109957600080fd5b6000600160029054906101000a900473ffffffffffffffffffffffffffffffffffffffff1673ffffffffffffffffffffffffffffffffffffffff163373ffffffffffffffffffffffffffffffffffffffff161461111857600160029054906101000a900473ffffffffffffffffffffffffffffffffffffffff1661113c565b600260009054906101000a900473ffffffffffffffffffffffffffffffffffffffff165b90507f6c9cf2445bc4d4b02c43eb0924c873077e36d28844f81ffc0111f037d6ce801960405160405180910390a161117381613062565b50565b600160029054906101000a900473ffffffffffffffffffffffffffffffffffffffff1673ffffffffffffffffffffffffffffffffffffffff163373ffffffffffffffffffffffffffffffffffffffff16148061121f5750600260009054906101000a900473ffffffffffffffffffffffffffffffffffffffff1673ffffffffffffffffffffffffffffffffffffffff163373ffffffffffffffffffffffffffffffffffffffff16145b61122857600080fd5b6003600681111561123c5761123b613774565b5b600760149054906101000a900460ff16600681111561125e5761125d613774565b5b148061129d57506004600681111561127957611278613774565b5b600760149054906101000a900460ff16600681111561129b5761129a613774565b5b145b6112a657600080fd5b6000600160029054906101000a900473ffffffffffffffffffffffffffffffffffffffff1673ffffffffffffffffffffffffffffffffffffffff163373ffffffffffffffffffffffffffffffffffffffff161461132557600160029054906101000a900473ffffffffffffffffffffffffffffffffffffffff16611349565b600260009054906101000a900473ffffffffffffffffffffffffffffffffffffffff165b9050600360008273ffffffffffffffffffffffffffffffffffffffff1673ffffffffffffffffffffffffffffffffffffffff16815260200190815260200160002060000160009054906101000a900460ff16156113a557600080fd5b600360068111156113b9576113b8613774565b5b600760149054906101000a900460ff1660068111156113db576113da613774565b5b03611468576000801b600360008373ffffffffffffffffffffffffffffffffffffffff1673ffffffffffffffffffffffffffffffffffffffff1681526020019081526020016000206001015414611467576040517f08c379a000000000000000000000000000000000000000000000000000000000815260040161145e9061415d565b60405180910390fd5b5b6004600681111561147c5761147b613774565b5b600760149054906101000a900460ff16600681111561149e5761149d613774565b5b03611534578073ffffffffffffffffffffffffffffffffffffffff16600660009054906101000a900473ffffffffffffffffffffffffffffffffffffffff1673ffffffffffffffffffffffffffffffffffffffff1614611533576040517f08c379a000000000000000000000000000000000000000000000000000000000815260040161152a906141ef565b60405180910390fd5b5b7f1a57b5e70fad11389febe9938025db4c3ee52d0bde2fcf22527149b81444c2ca81604051611563919061383f565b60405180910390a16001600360008373ffffffffffffffffffffffffffffffffffffffff1673ffffffffffffffffffffffffffffffffffffffff16815260200190815260200160002060000160006101000a81548160ff0219169083151502179055506005436115d3919061423e565b60008190555050565b600560068111156115f0576115ef613774565b5b600760149054906101000a900460ff16600681111561161257611611613774565b5b1461161c57600080fd5b600760009054906101000a900473ffffffffffffffffffffffffffffffffffffffff1673ffffffffffffffffffffffffffffffffffffffff163373ffffffffffffffffffffffffffffffffffffffff161461167657600080fd5b815183511461168457600080fd5b805183511461169257600080fd5b6000600160029054906101000a900473ffffffffffffffffffffffffffffffffffffffff1673ffffffffffffffffffffffffffffffffffffffff163373ffffffffffffffffffffffffffffffffffffffff161461171157600160029054906101000a900473ffffffffffffffffffffffffffffffffffffffff16611735565b600260009054906101000a900473ffffffffffffffffffffffffffffffffffffffff165b905060006117898787878787600360003373ffffffffffffffffffffffffffffffffffffffff1673ffffffffffffffffffffffffffffffffffffffff16815260200190815260200160002060010154613108565b61179d5761179682613062565b505061182c565b60018054906101000a900460ff1660ff16600360008473ffffffffffffffffffffffffffffffffffffffff1673ffffffffffffffffffffffffffffffffffffffff16815260200190815260200160002060020160009054906101000a900460ff16826118099190614272565b60ff160361181f5761181a33613062565b611829565b61182882613062565b5b50505b5050505050565b600160009054906101000a900460ff1681565b604081565b600160029054906101000a900473ffffffffffffffffffffffffffffffffffffffff1673ffffffffffffffffffffffffffffffffffffffff163373ffffffffffffffffffffffffffffffffffffffff1614806118f45750600260009054906101000a900473ffffffffffffffffffffffffffffffffffffffff1673ffffffffffffffffffffffffffffffffffffffff163373ffffffffffffffffffffffffffffffffffffffff16145b6118fd57600080fd5b6001600681111561191157611910613774565b5b600760149054906101000a900460ff16600681111561193357611932613774565b5b1461193d57600080fd5b80600460003373ffffffffffffffffffffffffffffffffffffffff1673ffffffffffffffffffffffffffffffffffffffff168152602001908152602001600020819055503373ffffffffffffffffffffffffffffffffffffffff167f4a8a2c0cf89add878b8fd9d1a4868d4b9536b6cbedec55c1b1eb3a5fa4cfdca2826040516119c79190613654565b60405180910390a250565b600760009054906101000a900473ffffffffffffffffffffffffffffffffffffffff1681565b600160029054906101000a900473ffffffffffffffffffffffffffffffffffffffff1673ffffffffffffffffffffffffffffffffffffffff163373ffffffffffffffffffffffffffffffffffffffff161480611aa15750600260009054906101000a900473ffffffffffffffffffffffffffffffffffffffff1673ffffffffffffffffffffffffffffffffffffffff163373ffffffffffffffffffffffffffffffffffffffff16145b611aaa57600080fd5b60036006811115611abe57611abd613774565b5b600760149054906101000a900460ff166006811115611ae057611adf613774565b5b1480611b1f575060046006811115611afb57611afa613774565b5b600760149054906101000a900460ff166006811115611b1d57611b1c613774565b5b145b611b2857600080fd5b6000600160029054906101000a900473ffffffffffffffffffffffffffffffffffffffff1673ffffffffffffffffffffffffffffffffffffffff163373ffffffffffffffffffffffffffffffffffffffff1614611ba757600160029054906101000a900473ffffffffffffffffffffffffffffffffffffffff16611bcb565b600260009054906101000a900473ffffffffffffffffffffffffffffffffffffffff165b9050600360008273ffffffffffffffffffffffffffffffffffffffff1673ffffffffffffffffffffffffffffffffffffffff16815260200190815260200160002060000160009054906101000a900460ff168015611c2b57506000544310155b611c3457600080fd5b611c3d33613062565b50565b60036020528060005260406000206000915090508060000160009054906101000a900460ff16908060000160019054906101000a900460ff16908060010154908060020160009054906101000a900460ff16905084565b600a81565b6060600360008373ffffffffffffffffffffffffffffffffffffffff1673ffffffffffffffffffffffffffffffffffffffff168152602001908152602001600020600301805480602002602001604051908101604052809291908181526020016000905b82821015611d86578382906000526020600020016040518060400160405290816000820160009054906101000a900460ff1660ff1660ff1681526020016000820160019054906101000a900460ff166002811115611d6157611d60613774565b5b6002811115611d7357611d72613774565b5b8152505081526020019060010190611d00565b505050509050919050565b60046006811115611da557611da4613774565b5b600760149054906101000a900460ff166006811115611dc757611dc6613774565b5b14611dd157600080fd5b600660009054906101000a900473ffffffffffffffffffffffffffffffffffffffff1673ffffffffffffffffffffffffffffffffffffffff163373ffffffffffffffffffffffffffffffffffffffff1614611e2b57600080fd5b6000600160029054906101000a900473ffffffffffffffffffffffffffffffffffffffff1673ffffffffffffffffffffffffffffffffffffffff163373ffffffffffffffffffffffffffffffffffffffff1614611eaa57600160029054906101000a900473ffffffffffffffffffffffffffffffffffffffff16611ece565b600260009054906101000a900473ffffffffffffffffffffffffffffffffffffffff165b9050600360003373ffffffffffffffffffffffffffffffffffffffff1673ffffffffffffffffffffffffffffffffffffffff16815260200190815260200160002060000160009054906101000a900460ff16156120015760005443108015611f825750600360003373ffffffffffffffffffffffffffffffffffffffff1673ffffffffffffffffffffffffffffffffffffffff16815260200190815260200160002060000160009054906101000a900460ff165b15611fe7576000600360003373ffffffffffffffffffffffffffffffffffffffff1673ffffffffffffffffffffffffffffffffffffffff16815260200190815260200160002060000160006101000a81548160ff021916908315150217905550612000565b6000544310611fff57611ff981613062565b506125d5565b5b5b6000600160029054906101000a900473ffffffffffffffffffffffffffffffffffffffff1673ffffffffffffffffffffffffffffffffffffffff163373ffffffffffffffffffffffffffffffffffffffff161461208057600160029054906101000a900473ffffffffffffffffffffffffffffffffffffffff166120a4565b600260009054906101000a900473ffffffffffffffffffffffffffffffffffffffff165b905060006001600360008473ffffffffffffffffffffffffffffffffffffffff1673ffffffffffffffffffffffffffffffffffffffff168152602001908152602001600020600301805490506120fa91906142a7565b9050600060028111156121105761210f613774565b5b600360008473ffffffffffffffffffffffffffffffffffffffff1673ffffffffffffffffffffffffffffffffffffffff1681526020019081526020016000206003018281548110612164576121636142db565b5b9060005260206000200160000160019054906101000a900460ff16600281111561219157612190613774565b5b1461219f5761219e61430a565b5b8560ff16600360008473ffffffffffffffffffffffffffffffffffffffff1673ffffffffffffffffffffffffffffffffffffffff16815260200190815260200160002060030182815481106121f7576121f66142db565b5b9060005260206000200160000160009054906101000a900460ff1660ff161461221f57600080fd5b61226e88888888600360003373ffffffffffffffffffffffffffffffffffffffff1673ffffffffffffffffffffffffffffffffffffffff16815260200190815260200160002060010154613208565b61231c577fe48a335438ec9cf1059d7b134553ca861398a18d023bd34b9e4d956f5f7ba004826040516122a1919061383f565b60405180910390a16005600760146101000a81548160ff021916908360068111156122cf576122ce613774565b5b021790555081600760006101000a81548173ffffffffffffffffffffffffffffffffffffffff021916908373ffffffffffffffffffffffffffffffffffffffff16021790555050506125d3565b871561253c576001600360008473ffffffffffffffffffffffffffffffffffffffff1673ffffffffffffffffffffffffffffffffffffffff1681526020019081526020016000206003018281548110612378576123776142db565b5b9060005260206000200160000160016101000a81548160ff021916908360028111156123a7576123a6613774565b5b0217905550600360003373ffffffffffffffffffffffffffffffffffffffff1673ffffffffffffffffffffffffffffffffffffffff168152602001908152602001600020600201600081819054906101000a900460ff168092919061240b90614339565b91906101000a81548160ff021916908360ff1602179055505060018054906101000a900460ff1660ff16600360003373ffffffffffffffffffffffffffffffffffffffff1673ffffffffffffffffffffffffffffffffffffffff16815260200190815260200160002060020160009054906101000a900460ff1660ff16036125375781600760006101000a81548173ffffffffffffffffffffffffffffffffffffffff021916908373ffffffffffffffffffffffffffffffffffffffff1602179055506005600760146101000a81548160ff021916908360068111156124f4576124f3613774565b5b02179055507f745c90b656b4aafe296c8ca35aeacfe56cb96c90e1d320e5da643fff1051b6c082604051612528919061383f565b60405180910390a150506125d3565b6125c7565b6002600360008473ffffffffffffffffffffffffffffffffffffffff1673ffffffffffffffffffffffffffffffffffffffff1681526020019081526020016000206003018281548110612592576125916142db565b5b9060005260206000200160000160016101000a81548160ff021916908360028111156125c1576125c0613774565b5b02179055505b6125d084612cb3565b50505b505b5050505050565b600160029054906101000a900473ffffffffffffffffffffffffffffffffffffffff1673ffffffffffffffffffffffffffffffffffffffff163373ffffffffffffffffffffffffffffffffffffffff1614806126855750600260009054906101000a900473ffffffffffffffffffffffffffffffffffffffff1673ffffffffffffffffffffffffffffffffffffffff163373ffffffffffffffffffffffffffffffffffffffff16145b61268e57600080fd5b6000600160029054906101000a900473ffffffffffffffffffffffffffffffffffffffff1673ffffffffffffffffffffffffffffffffffffffff163373ffffffffffffffffffffffffffffffffffffffff161461270d57600160029054906101000a900473ffffffffffffffffffffffffffffffffffffffff16612731565b600260009054906101000a900473ffffffffffffffffffffffffffffffffffffffff165b9050600360003373ffffffffffffffffffffffffffffffffffffffff1673ffffffffffffffffffffffffffffffffffffffff16815260200190815260200160002060000160009054906101000a900460ff161561286457600054431080156127e55750600360003373ffffffffffffffffffffffffffffffffffffffff1673ffffffffffffffffffffffffffffffffffffffff16815260200190815260200160002060000160009054906101000a900460ff165b1561284a576000600360003373ffffffffffffffffffffffffffffffffffffffff1673ffffffffffffffffffffffffffffffffffffffff16815260200190815260200160002060000160006101000a81548160ff021916908315150217905550612863565b60005443106128625761285c81613062565b50612b5a565b5b5b6003600681111561287857612877613774565b5b600760149054906101000a900460ff16600681111561289a57612899613774565b5b146128a457600080fd5b6000801b600360003373ffffffffffffffffffffffffffffffffffffffff1673ffffffffffffffffffffffffffffffffffffffff16815260200190815260200160002060010154146128f557600080fd5b81600360003373ffffffffffffffffffffffffffffffffffffffff1673ffffffffffffffffffffffffffffffffffffffff168152602001908152602001600020600101819055506000801b60036000600160029054906101000a900473ffffffffffffffffffffffffffffffffffffffff1673ffffffffffffffffffffffffffffffffffffffff1673ffffffffffffffffffffffffffffffffffffffff1681526020019081526020016000206001015414158015612a1a57506000801b60036000600260009054906101000a900473ffffffffffffffffffffffffffffffffffffffff1673ffffffffffffffffffffffffffffffffffffffff1673ffffffffffffffffffffffffffffffffffffffff1681526020019081526020016000206001015414155b15612b58577f48c0ac148c6adb019cea448b4b78c69778a7b6abdfadce9a6acdc8b983e94bee60405160405180910390a1600060036000600160029054906101000a900473ffffffffffffffffffffffffffffffffffffffff1673ffffffffffffffffffffffffffffffffffffffff1673ffffffffffffffffffffffffffffffffffffffff16815260200190815260200160002060020160006101000a81548160ff021916908360ff1602179055506004600760146101000a81548160ff02191690836006811115612aef57612aee613774565b5b0217905550600260009054906101000a900473ffffffffffffffffffffffffffffffffffffffff16600660006101000a81548173ffffffffffffffffffffffffffffffffffffffff021916908373ffffffffffffffffffffffffffffffffffffffff1602179055505b505b50565b600581565b60018054906101000a900460ff1681565b60006006811115612b8757612b86613774565b5b600760149054906101000a900460ff166006811115612ba957612ba8613774565b5b14612bb357600080fd5b600073ffffffffffffffffffffffffffffffffffffffff16600260009054906101000a900473ffffffffffffffffffffffffffffffffffffffff1673ffffffffffffffffffffffffffffffffffffffff1614612c44576040517f08c379a0000000000000000000000000000000000000000000000000000000008152600401612c3b906143ae565b60405180910390fd5b80600260006101000a81548173ffffffffffffffffffffffffffffffffffffffff021916908373ffffffffffffffffffffffffffffffffffffffff1602179055506001600760146101000a81548160ff02191690836006811115612cab57612caa613774565b5b021790555050565b60001515600360003373ffffffffffffffffffffffffffffffffffffffff1673ffffffffffffffffffffffffffffffffffffffff16815260200190815260200160002060040160008360ff1660ff16815260200190815260200160002060009054906101000a900460ff16151514612d60576040517f08c379a0000000000000000000000000000000000000000000000000000000008152600401612d579061441a565b60405180910390fd5b600160009054906101000a900460ff1660ff168160ff1610612db7576040517f08c379a0000000000000000000000000000000000000000000000000000000008152600401612dae906144ac565b60405180910390fd5b6001600360003373ffffffffffffffffffffffffffffffffffffffff1673ffffffffffffffffffffffffffffffffffffffff16815260200190815260200160002060040160008360ff1660ff16815260200190815260200160002060006101000a81548160ff021916908315150217905550600360003373ffffffffffffffffffffffffffffffffffffffff1673ffffffffffffffffffffffffffffffffffffffff16815260200190815260200160002060030160405180604001604052808360ff16815260200160006002811115612e9357612e92613774565b5b8152509080600181540180825580915050600190039060005260206000200160009091909190915060008201518160000160006101000a81548160ff021916908360ff16021790555060208201518160000160016101000a81548160ff02191690836002811115612f0757612f06613774565b5b021790555050503373ffffffffffffffffffffffffffffffffffffffff167f665e09da1c684bb4ada2b5c04fe0bb20328ca455aae1928734e0a40dcf0e099e82604051612f549190613815565b60405180910390a2600160029054906101000a900473ffffffffffffffffffffffffffffffffffffffff1673ffffffffffffffffffffffffffffffffffffffff16600660009054906101000a900473ffffffffffffffffffffffffffffffffffffffff1673ffffffffffffffffffffffffffffffffffffffff1614612ffb57600160029054906101000a900473ffffffffffffffffffffffffffffffffffffffff1661301f565b600260009054906101000a900473ffffffffffffffffffffffffffffffffffffffff165b600660006101000a81548173ffffffffffffffffffffffffffffffffffffffff021916908373ffffffffffffffffffffffffffffffffffffffff16021790555050565b7fe48a335438ec9cf1059d7b134553ca861398a18d023bd34b9e4d956f5f7ba00481604051613091919061383f565b60405180910390a180600760006101000a81548173ffffffffffffffffffffffffffffffffffffffff021916908373ffffffffffffffffffffffffffffffffffffffff1602179055506006600760146101000a81548160ff02191690836006811115613100576130ff613774565b5b021790555050565b600080855167ffffffffffffffff81111561312657613125613870565b5b6040519080825280602002602001820160405280156131545781602001602082028036833780820191505090505b50905060005b86518110156131ee576131bc878281518110613179576131786142db565b5b6020026020010151878381518110613194576131936142db565b5b60200260200101518784815181106131af576131ae6142db565b5b602002602001015161322f565b8282815181106131cf576131ce6142db565b5b60200260200101818152505080806131e6906144cc565b91505061315a565b506131fb8888858461328b565b9150509695505050505050565b60008061321687878761322f565b90506132238484836132a4565b91505095945050505050565b600083838360405160200161324693929190614514565b6040516020818303038152906040528051906020012060405160200161326c919061456c565b6040516020818303038152906040528051906020012090509392505050565b6000826132998686856132bb565b149050949350505050565b6000826132b185846135a3565b1490509392505050565b6000808251905060008551905060008551905080600183856132dd919061423e565b6132e791906142a7565b14613327576040517f08c379a000000000000000000000000000000000000000000000000000000000815260040161331e906145d3565b60405180910390fd5b60008167ffffffffffffffff81111561334357613342613870565b5b6040519080825280602002602001820160405280156133715781602001602082028036833780820191505090505b5090506000806000805b858110156134cb5760008885106133b857858480613398906144cc565b9550815181106133ab576133aa6142db565b5b60200260200101516133e0565b8a85806133c4906144cc565b9650815181106133d7576133d66142db565b5b60200260200101515b905060008c83815181106133f7576133f66142db565b5b602002602001015161342f578d848061340f906144cc565b955081518110613422576134216142db565b5b602002602001015161348b565b89861061346257868580613442906144cc565b965081518110613455576134546142db565b5b602002602001015161348a565b8b868061346e906144cc565b975081518110613481576134806142db565b5b60200260200101515b5b905061349782826135f9565b8784815181106134aa576134a96142db565b5b602002602001018181525050505080806134c3906144cc565b91505061337b565b50600085111561354357858114613517576040517f08c379a000000000000000000000000000000000000000000000000000000000815260040161350e906145d3565b60405180910390fd5b83600186038151811061352d5761352c6142db565b5b602002602001015197505050505050505061359c565b600087111561357657886000815181106135605761355f6142db565b5b602002602001015197505050505050505061359c565b8a60008151811061358a576135896142db565b5b60200260200101519750505050505050505b9392505050565b60008082905060005b84518110156135ee576135d9828683815181106135cc576135cb6142db565b5b60200260200101516135f9565b915080806135e6906144cc565b9150506135ac565b508091505092915050565b60008183106136115761360c8284613624565b61361c565b61361b8383613624565b5b905092915050565b600082600052816020526040600020905092915050565b6000819050919050565b61364e8161363b565b82525050565b60006020820190506136696000830184613645565b92915050565b6000604051905090565b600080fd5b600080fd5b600060ff82169050919050565b61369981613683565b81146136a457600080fd5b50565b6000813590506136b681613690565b92915050565b6000602082840312156136d2576136d1613679565b5b60006136e0848285016136a7565b91505092915050565b600073ffffffffffffffffffffffffffffffffffffffff82169050919050565b6000613714826136e9565b9050919050565b61372481613709565b811461372f57600080fd5b50565b6000813590506137418161371b565b92915050565b60006020828403121561375d5761375c613679565b5b600061376b84828501613732565b91505092915050565b7f4e487b7100000000000000000000000000000000000000000000000000000000600052602160045260246000fd5b600781106137b4576137b3613774565b5b50565b60008190506137c5826137a3565b919050565b60006137d5826137b7565b9050919050565b6137e5816137ca565b82525050565b600060208201905061380060008301846137dc565b92915050565b61380f81613683565b82525050565b600060208201905061382a6000830184613806565b92915050565b61383981613709565b82525050565b60006020820190506138546000830184613830565b92915050565b600080fd5b6000601f19601f8301169050919050565b7f4e487b7100000000000000000000000000000000000000000000000000000000600052604160045260246000fd5b6138a88261385f565b810181811067ffffffffffffffff821117156138c7576138c6613870565b5b80604052505050565b60006138da61366f565b90506138e6828261389f565b919050565b600067ffffffffffffffff82111561390657613905613870565b5b602082029050602081019050919050565b600080fd5b6000819050919050565b61392f8161391c565b811461393a57600080fd5b50565b60008135905061394c81613926565b92915050565b6000613965613960846138eb565b6138d0565b9050808382526020820190506020840283018581111561398857613987613917565b5b835b818110156139b1578061399d888261393d565b84526020840193505060208101905061398a565b5050509392505050565b600082601f8301126139d0576139cf61385a565b5b81356139e0848260208601613952565b91505092915050565b600067ffffffffffffffff821115613a0457613a03613870565b5b602082029050602081019050919050565b60008115159050919050565b613a2a81613a15565b8114613a3557600080fd5b50565b600081359050613a4781613a21565b92915050565b6000613a60613a5b846139e9565b6138d0565b90508083825260208201905060208402830185811115613a8357613a82613917565b5b835b81811015613aac5780613a988882613a38565b845260208401935050602081019050613a85565b5050509392505050565b600082601f830112613acb57613aca61385a565b5b8135613adb848260208601613a4d565b91505092915050565b600067ffffffffffffffff821115613aff57613afe613870565b5b602082029050602081019050919050565b613b198161363b565b8114613b2457600080fd5b50565b600081359050613b3681613b10565b92915050565b6000613b4f613b4a84613ae4565b6138d0565b90508083825260208201905060208402830185811115613b7257613b71613917565b5b835b81811015613b9b5780613b878882613b27565b845260208401935050602081019050613b74565b5050509392505050565b600082601f830112613bba57613bb961385a565b5b8135613bca848260208601613b3c565b91505092915050565b600067ffffffffffffffff821115613bee57613bed613870565b5b602082029050602081019050919050565b6000613c12613c0d84613bd3565b6138d0565b90508083825260208201905060208402830185811115613c3557613c34613917565b5b835b81811015613c5e5780613c4a88826136a7565b845260208401935050602081019050613c37565b5050509392505050565b600082601f830112613c7d57613c7c61385a565b5b8135613c8d848260208601613bff565b91505092915050565b600080600080600060a08688031215613cb257613cb1613679565b5b600086013567ffffffffffffffff811115613cd057613ccf61367e565b5b613cdc888289016139bb565b955050602086013567ffffffffffffffff811115613cfd57613cfc61367e565b5b613d0988828901613ab6565b945050604086013567ffffffffffffffff811115613d2a57613d2961367e565b5b613d3688828901613ab6565b935050606086013567ffffffffffffffff811115613d5757613d5661367e565b5b613d6388828901613ba5565b925050608086013567ffffffffffffffff811115613d8457613d8361367e565b5b613d9088828901613c68565b9150509295509295909350565b600060208284031215613db357613db2613679565b5b6000613dc184828501613b27565b91505092915050565b613dd381613a15565b82525050565b613de28161391c565b82525050565b6000608082019050613dfd6000830187613dca565b613e0a6020830186613dca565b613e176040830185613dd9565b613e246060830184613806565b95945050505050565b600081519050919050565b600082825260208201905092915050565b6000819050602082019050919050565b613e6281613683565b82525050565b60038110613e7957613e78613774565b5b50565b6000819050613e8a82613e68565b919050565b6000613e9a82613e7c565b9050919050565b613eaa81613e8f565b82525050565b604082016000820151613ec66000850182613e59565b506020820151613ed96020850182613ea1565b50505050565b6000613eeb8383613eb0565b60408301905092915050565b6000602082019050919050565b6000613f0f82613e2d565b613f198185613e38565b9350613f2483613e49565b8060005b83811015613f55578151613f3c8882613edf565b9750613f4783613ef7565b925050600181019050613f28565b5085935050505092915050565b60006020820190508181036000830152613f7c8184613f04565b905092915050565b600080600080600060a08688031215613fa057613f9f613679565b5b6000613fae88828901613a38565b9550506020613fbf88828901613b27565b9450506040613fd0888289016136a7565b935050606086013567ffffffffffffffff811115613ff157613ff061367e565b5b613ffd888289016139bb565b925050608061400e888289016136a7565b9150509295509295909350565b60006020828403121561403157614030613679565b5b600061403f8482850161393d565b91505092915050565b600082825260208201905092915050565b7f54686520616d6f756e742070726f706f736564206973206e6f742076616c696460008201527f2100000000000000000000000000000000000000000000000000000000000000602082015250565b60006140b5602183614048565b91506140c082614059565b604082019050919050565b600060208201905081810360008301526140e4816140a8565b9050919050565b7f5468652067616d652069732077616974696e6720666f7220796f757220626f6160008201527f72642120596f752063616e2774207265706f7274206e6f772e00000000000000602082015250565b6000614147603983614048565b9150614152826140eb565b604082019050919050565b600060208201905081810360008301526141768161413a565b9050919050565b7f497420697320796f7572207475726e2120596f752063616e2774207265706f7260008201527f74206e6f772e0000000000000000000000000000000000000000000000000000602082015250565b60006141d9602683614048565b91506141e48261417d565b604082019050919050565b60006020820190508181036000830152614208816141cc565b9050919050565b7f4e487b7100000000000000000000000000000000000000000000000000000000600052601160045260246000fd5b60006142498261363b565b91506142548361363b565b925082820190508082111561426c5761426b61420f565b5b92915050565b600061427d82613683565b915061428883613683565b9250828201905060ff8111156142a1576142a061420f565b5b92915050565b60006142b28261363b565b91506142bd8361363b565b92508282039050818111156142d5576142d461420f565b5b92915050565b7f4e487b7100000000000000000000000000000000000000000000000000000000600052603260045260246000fd5b7f4e487b7100000000000000000000000000000000000000000000000000000000600052600160045260246000fd5b600061434482613683565b915060ff82036143575761435661420f565b5b600182019050919050565b7f546869732067616d65206973206e6f7420617661696c61626c65210000000000600082015250565b6000614398601b83614048565b91506143a382614362565b602082019050919050565b600060208201905081810360008301526143c78161438b565b9050919050565b7f596f75206861766520616c72656164792073686f7420746861742063656c6c00600082015250565b6000614404601f83614048565b915061440f826143ce565b602082019050919050565b60006020820190508181036000830152614433816143f7565b9050919050565b7f5468652073686f7420697320696e76616c696420666f7220746865206375727260008201527f656e74206d61702073697a652100000000000000000000000000000000000000602082015250565b6000614496602d83614048565b91506144a18261443a565b604082019050919050565b600060208201905081810360008301526144c581614489565b9050919050565b60006144d78261363b565b91507fffffffffffffffffffffffffffffffffffffffffffffffffffffffffffffffff82036145095761450861420f565b5b600182019050919050565b60006060820190506145296000830186613dca565b6145366020830185613645565b6145436040830184613806565b949350505050565b6000819050919050565b6145666145618261391c565b61454b565b82525050565b60006145788284614555565b60208201915081905092915050565b7f4d65726b6c6550726f6f663a20696e76616c6964206d756c746970726f6f6600600082015250565b60006145bd601f83614048565b91506145c882614587565b602082019050919050565b600060208201905081810360008301526145ec816145b0565b905091905056fea26469706673582212207a3a12c380b2c4543cf4ecb829e4002e8980dd4431d0fcb7ae3349aa18232d5364736f6c63430008130033",
  "immutableReferences": {},
  "source": "// SPDX-License-Identifier: MIT\npragma solidity >=0.4.22 <0.9.0;\nimport \"@openzeppelin/contracts/utils/cryptography/MerkleProof.sol\";\n\ncontract Game {\n    // Field size, the game owner can choose to generate a normal or small (faster) match.\n    uint8 public constant BOARD_Small = 4 * 4;\n    uint8 public constant BOARD_Normal = 8 * 8;\n\n    // Fleet size, it is proportional to the game size.\n    uint8 public constant FLEET_Small = 5;\n    uint8 public constant FLEET_Normal = 10;\n\n    // Is the block number after which the player can be considered AFK.\n    uint public afk_timeout;\n\n    // Actual size of the game.\n    uint8 public boardSize;\n    uint8 public fleetSize;\n\n    /*\n     * Different shot state:\n     * Taken represent a shot which result is still not checked.\n     * Hit represent a shot that has hit a ship.\n     * Miss represent a shot that missed.\n     */\n    enum ShotState {\n        Taken,\n        Hit,\n        Miss\n    }\n\n    /*\n     * Shot structure:\n     * index represent the position on the board.\n     * state is the ShotState.\n     */\n    struct Shot {\n        uint8 index;\n        ShotState state;\n    }\n\n    /*\n     * afk is a boolean value that represent if the player is reported as afk.\n     * Player structure:\n     * hasPaid represent if the player has funded.\n     * board is the merkle tree root of the merkle tree representing the board.\n     * hits is the number of ship the player has hit.\n     * shotsTaken and shotsTakenMap maps the shots taken so far by the player.\n     */\n    struct Player {\n        bool afk;\n        bool hasPaid;\n        bytes32 board;\n        uint8 hits;\n        Shot[] shotsTaken;\n        mapping(uint8 => bool) shotsTakenMap;\n    }\n\n    // Addresses of the two Players.\n    address public owner;\n    address public adversary;\n\n    // Mapping used to store all the information about the Players.\n    mapping(address => Player) public players;\n\n    // Queue of all the proposed bets.\n    mapping(address => uint256) public betsQueue;\n\n    // Final agreement on the bet amount.\n    uint256 public bet;\n\n    // Current turn.\n    address public turn;\n\n    // Winner of the game.\n    address public winner;\n\n    /*Different phases of the game\n     * Waiting: game  successfully created and waiting for a second player to join.\n     * Betting: waiting for the two players to reach an agreement on the bet.\n     * Funding: waiting for the two player to deposit the bet amount.\n     * Placement: waiting for the two players to commit their board.\n     * Attack: the players shot a torpedo per turn .\n     * Winner: one of the player has hit all the opponent ships and is declared as winner.\n     * End: the game is terminated and the winner can withdraw the amount he has won.\n     */\n    enum Phase {\n        Waiting,\n        Betting,\n        Funding,\n        Placement,\n        Attack,\n        Winner,\n        End\n    }\n\n    // Current game phase\n    Phase public gamePhase;\n\n    ////////////\n    ///EVENTS///\n    ////////////\n\n    // Emitted when the game owner has selected the game size.\n    event DimensionSelected(bool small);\n\n    // Emitted when a player propos an amount as bet.\n    event BetProposal(address indexed player, uint256 amount);\n\n    // Emitted when players have agreed on the bet.\n    event BetAgreed(uint256 amount);\n\n    // Emitted when both players have deposited the agreed amount.\n    event FundsDeposited();\n\n    // Emitted when a player forfait.\n    event Forfait();\n\n    // Emitted when both players have committed their boards.\n    event BoardsCommitted();\n\n    // Informs the opponent that cell indexed by `cell` has been shot.\n    event ShotTaken(address indexed player, uint8 cell);\n\n    // Informs the opponent that the last shot was an hit.\n    event Hit(uint8 cell);\n\n    // Informs that the game has a winner.\n    event Winner(address player);\n\n    // Winner board has been correctly verified.\n    event WinnerVerified(address player);\n\n    // A player is reported as AFK\n    event PlayerAFK(address player);\n\n    ///////////////\n    ///MODIFIERS///\n    ///////////////\n\n    // Modifiers used to check if a function is called by a legit actor.\n    modifier onlyOwner() {\n        require(msg.sender == owner);\n        _;\n    }\n\n    modifier onlyPlayer() {\n        require(msg.sender == owner || msg.sender == adversary);\n        _;\n    }\n\n    modifier onlyWinner() {\n        require(msg.sender == winner);\n        _;\n    }\n\n    modifier isPlayerTurn() {\n        require(msg.sender == turn);\n        _;\n    }\n\n    modifier noFund() {\n        require(players[msg.sender].hasPaid != true);\n        _;\n    }\n\n    modifier Fund() {\n        require(players[msg.sender].hasPaid == true);\n        _;\n    }\n\n    modifier checkAFK() {\n        address opponent = msg.sender == owner ? adversary : owner;\n        // Check if the player is reported as AFK\n        if (players[msg.sender].afk) {\n            // Check if the player has done an action before the timeout\n            if (block.number < afk_timeout && players[msg.sender].afk) {\n                players[msg.sender].afk = false;\n            } else if (block.number >= afk_timeout) {\n                // The player is verified as afk and the opponent wins\n                _declareWinner(opponent);\n                return;\n            }\n        }\n        _;\n    }\n\n    // Modifiers used to check if a function is called in a legit game phase.\n    modifier phaseWaiting() {\n        require(gamePhase == Phase.Waiting);\n        _;\n    }\n\n    modifier phaseBetting() {\n        require(gamePhase == Phase.Betting);\n        _;\n    }\n\n    modifier phaseFunding() {\n        require(gamePhase == Phase.Funding);\n        _;\n    }\n\n    modifier phasePlacement() {\n        require(gamePhase == Phase.Placement);\n        _;\n    }\n\n    modifier phaseAttack() {\n        require(gamePhase == Phase.Attack);\n        _;\n    }\n\n    modifier phaseWinner() {\n        require(gamePhase == Phase.Winner);\n        _;\n    }\n\n    modifier phaseEnd() {\n        require(gamePhase == Phase.End);\n        _;\n    }\n\n    // A player can be reported as AFK only during Placement and Attack phases.\n    modifier afkAllowed() {\n        require(gamePhase == Phase.Placement || gamePhase == Phase.Attack);\n        _;\n    }\n\n    ///////////////\n    ////PUBLIC/////\n    ///FUNCTIONS///\n    ///////////////\n\n    /*Constructor, used to initialize a game*/\n    constructor(address _owner, bool _small) {\n        owner = _owner;\n        // Initialize the board and fleet size\n        _small ? boardSize = BOARD_Small : boardSize = BOARD_Normal;\n        _small ? fleetSize = FLEET_Small : fleetSize = FLEET_Normal;\n        gamePhase = Phase.Waiting;\n        emit DimensionSelected(_small);\n    }\n\n    /*Function used to match a join as second player.*/\n    function matchJoin(address _adversary) external phaseWaiting {\n        require(adversary == address(0), \"This game is not available!\");\n        adversary = _adversary;\n        gamePhase = Phase.Betting;\n    }\n\n    /*Function callable in betting phase and only by a player to propose a bet amount.*/\n    function proposeBet(uint256 _amount) external onlyPlayer phaseBetting {\n        betsQueue[msg.sender] = _amount;\n        emit BetProposal(msg.sender, _amount);\n    }\n\n    /*Function callable in betting phase by a player to accept the last proposed bet amount.*/\n    function acceptBet() external onlyPlayer phaseBetting {\n        require(\n            ((msg.sender == owner && betsQueue[adversary] != 0) ||\n                (msg.sender == adversary && betsQueue[owner] != 0)),\n            \"The amount proposed is not valid!\"\n        );\n\n        address opponent = msg.sender == owner ? adversary : owner;\n\n        // Change game phase and emit BetAgreed event.\n        bet = betsQueue[opponent];\n        gamePhase = Phase.Funding;\n        emit BetAgreed(bet);\n    }\n\n    /*Function callable in Funding phase by a player that has not fund yet\n    to deposit the bet amount.*/\n    function betFunds() external payable onlyPlayer noFund phaseFunding {\n        require(msg.value == bet);\n        players[msg.sender].hasPaid = true;\n\n        // If both have paid, move on to the next phase and emit FundDeposited event.\n        if (players[owner].hasPaid && players[adversary].hasPaid) {\n            emit FundsDeposited();\n            gamePhase = Phase.Placement;\n        }\n    }\n\n    /*Function that can be used to forfait, the adversary automatically wins.\n     * Can be called only if the player has fund his bet (after Funding phase)*/\n    function forfait() external onlyPlayer Fund {\n        address opponent = msg.sender == owner ? adversary : owner;\n        emit Forfait();\n        _declareWinner(opponent);\n    }\n\n    /*Function callable in Placement phase by a player to commit his board.*/\n    function commitBoard(\n        bytes32 _board\n    ) external onlyPlayer checkAFK phasePlacement {\n        require(players[msg.sender].board == 0);\n        players[msg.sender].board = _board;\n\n        // If both have committed their board move on and emit BoardsCommitted event.\n        if (players[owner].board != 0 && players[adversary].board != 0) {\n            emit BoardsCommitted();\n            players[owner].hits = 0;\n            gamePhase = Phase.Attack;\n\n            //The first shot is for the adversary.\n            turn = adversary;\n        }\n    }\n\n    /*Function callable by a player to retrieve the shots taken so far.*/\n    function getShotsTaken(\n        address _player\n    ) external view returns (Shot[] memory) {\n        return players[_player].shotsTaken;\n    }\n\n    // Function used only for the first attack (it has not check phase).\n    function attack(uint8 _index) external phaseAttack isPlayerTurn {\n        _attack(_index);\n    }\n\n    /*Function that checks the result of the previous taken shot and perform an attack.*/\n    function checkAndAttack(\n        bool _isShip,\n        uint256 _salt,\n        uint8 _index,\n        bytes32[] memory _proof,\n        uint8 _attackIndex\n    ) external phaseAttack isPlayerTurn checkAFK {\n        // Retrieving the last shot of the opponent.\n        address opponent = msg.sender == owner ? adversary : owner;\n        uint last = players[opponent].shotsTaken.length - 1;\n        assert(players[opponent].shotsTaken[last].state == ShotState.Taken);\n        require(players[opponent].shotsTaken[last].index == _index);\n\n        if (\n            !_checkProof(\n                _isShip,\n                _salt,\n                _index,\n                _proof,\n                players[msg.sender].board\n            )\n        ) {\n            //If the player tried to cheat the opponent wins by default.\n            emit WinnerVerified(opponent);\n            gamePhase = Phase.Winner;\n            winner = opponent;\n            return;\n        }\n\n        if (_isShip) {\n            //Update the shot state and the opponent hits.\n            players[opponent].shotsTaken[last].state = ShotState.Hit;\n            players[msg.sender].hits++;\n\n            // If the opponent has hit all of our ships he wins.\n            if (players[msg.sender].hits == fleetSize) {\n                // Move on to the next phase and emit Winner event.\n                winner = opponent;\n                gamePhase = Phase.Winner;\n                emit Winner(opponent);\n                return;\n            }\n        } else {\n            players[opponent].shotsTaken[last].state = ShotState.Miss;\n        }\n\n        //Perform the attack on the board.\n        _attack(_attackIndex);\n    }\n\n    /*Function that checks the validity of the winner board.*/\n    function checkWinnerBoard(\n        bytes32[] memory _proof,\n        bool[] memory _proofFlags,\n        bool[] memory _cells,\n        uint256[] memory _salts,\n        uint8[] memory _indexes\n    ) external phaseWinner onlyWinner {\n        require(_cells.length == _salts.length);\n        require(_cells.length == _indexes.length);\n        address opponent = msg.sender == owner ? adversary : owner;\n        uint8 ships = 0;\n\n        // As first we verify the multiproof of all the leaves of the board.\n        if (\n            !_checkMultiProof(\n                _proof,\n                _proofFlags,\n                _cells,\n                _salts,\n                _indexes,\n                players[msg.sender].board\n            )\n        ) {\n            _declareWinner(opponent);\n            return;\n        }\n\n        // Check that the required number of ships was placed.\n        if (ships + players[opponent].hits == fleetSize) {\n            _declareWinner(msg.sender);\n        } else {\n            // placement is invalid, player cheated!\n            _declareWinner(opponent);\n        }\n    }\n\n    function withdraw() external phaseEnd onlyWinner {\n        gamePhase = Phase.End;\n        payable(msg.sender).transfer(address(this).balance);\n    }\n\n    function reportAFK() external onlyPlayer afkAllowed {\n        address opponent = msg.sender == owner ? adversary : owner;\n\n        // Verify that the opponent has not been reported before.\n        require(!players[opponent].afk);\n\n        if (gamePhase == Phase.Placement) {\n            // Check that the opponent has not committed the board yet.\n            require(\n                players[opponent].board == 0,\n                \"The game is waiting for your board! You can't report now.\"\n            );\n        }\n\n        if (gamePhase == Phase.Attack) {\n            // Check that is the opponent turn.\n            require(turn == opponent, \"It is your turn! You can't report now.\");\n        }\n\n        emit PlayerAFK(opponent);\n        players[opponent].afk = true;\n        afk_timeout = block.number + 5;\n    }\n\n    function verifyAFK() external onlyPlayer afkAllowed {\n        address opponent = msg.sender == owner ? adversary : owner;\n        require(players[opponent].afk && block.number >= afk_timeout);\n        // No actions are taken before the timeout, the opponent wins by default\n        _declareWinner(msg.sender);\n    }\n\n    ///////////////\n    ////HELPERS////\n    ///////////////\n\n    function _attack(uint8 _index) internal {\n        // Check if the cell is in range and was not shot before.\n        require(\n            players[msg.sender].shotsTakenMap[_index] == false,\n            \"You have already shot that cell\"\n        );\n        require(\n            _index < boardSize,\n            \"The shot is invalid for the current map size!\"\n        );\n\n        // Set the shot as taken.\n        players[msg.sender].shotsTakenMap[_index] = true;\n        players[msg.sender].shotsTaken.push(Shot(_index, ShotState.Taken));\n\n        // Emit a ShotTaken event.\n        emit ShotTaken(msg.sender, _index);\n\n        // Change the turn.\n        turn = turn == owner ? adversary : owner;\n    }\n\n    /*\n     * Returns a boolean that is true when the proof verifies\n     * that the value of a leaf is contained in the tree given only\n     * the proof, the merkle root and the encoding of the leaf.\n     */\n    function _checkProof(\n        bool _isShip,\n        uint256 _salt,\n        uint8 _index,\n        bytes32[] memory _proof,\n        bytes32 _root\n    ) internal pure returns (bool) {\n        // Encode the leaf.\n        bytes32 leaf = _encodeLeaf(_isShip, _salt, _index);\n        // Verify the MerkleProof.\n        return MerkleProof.verify(_proof, _root, leaf);\n    }\n\n    /*\n     * Returns a boolean that is true when the multiproof verifies\n     * that all the leaves are contained in the tree given only\n     * the multiproof, the merkle root and the encoding of the leaf.\n     */\n    function _checkMultiProof(\n        bytes32[] memory _proof,\n        bool[] memory _proofFlags,\n        bool[] memory _cells,\n        uint256[] memory _salts,\n        uint8[] memory _indexes,\n        bytes32 _root\n    ) internal pure returns (bool) {\n        // Encode each leaf\n        bytes32[] memory leaves = new bytes32[](_cells.length);\n        for (uint i = 0; i < _cells.length; i++) {\n            leaves[i] = _encodeLeaf(_cells[i], _salts[i], _indexes[i]);\n        }\n        // Verify the multiProof on all the leaves.\n        return MerkleProof.multiProofVerify(_proof, _proofFlags, _root, leaves);\n    }\n\n    /*Hashes and encodes the leaf parameters into a 32-byte value.*/\n    function _encodeLeaf(\n        bool _isShip,\n        uint256 _salt,\n        uint8 _index\n    ) internal pure returns (bytes32) {\n        return\n            keccak256(\n                bytes.concat(keccak256(abi.encode(_isShip, _salt, _index)))\n            );\n    }\n\n    /*Set the game winner, set the gamePhase and emit WinnerVerified event*/\n    function _declareWinner(address player) internal {\n        emit WinnerVerified(player);\n        winner = player;\n        gamePhase = Phase.End;\n    }\n}\n",
  "sourcePath": "/home/azk/Desktop/merketh-battleship/backend/contracts/Game.sol",
  "compiler": {
    "name": "solc",
    "version": "0.8.19+commit.7dd6d404.Emscripten.clang"
  },
  "schemaVersion": "3.4.13",
  "updatedAt": "2023-07-12T14:24:55.711Z",
  "devdoc": {
    "kind": "dev",
    "methods": {},
    "version": 1
  },
  "userdoc": {
    "events": {
      "DimensionSelected(bool)": {
        "notice": "EVENTS///"
      }
    },
    "kind": "user",
    "methods": {
      "constructor": {
        "notice": "FUNCTIONS///"
      }
    },
    "version": 1
  }
}