{
  "contractName": "GamesManager",
  "abi": [
    {
      "anonymous": false,
      "inputs": [
        {
          "indexed": true,
          "internalType": "address",
          "name": "player",
          "type": "address"
        }
      ],
      "name": "GameNotValid",
      "type": "event"
    },
    {
      "anonymous": false,
      "inputs": [
        {
          "indexed": true,
          "internalType": "address",
          "name": "player",
          "type": "address"
        },
        {
          "indexed": true,
          "internalType": "contract Game",
          "name": "game",
          "type": "address"
        }
      ],
      "name": "JoinGame",
      "type": "event"
    },
    {
      "anonymous": false,
      "inputs": [
        {
          "indexed": true,
          "internalType": "address",
          "name": "creator",
          "type": "address"
        },
        {
          "indexed": false,
          "internalType": "contract Game",
          "name": "game",
          "type": "address"
        },
        {
          "indexed": false,
          "internalType": "bool",
          "name": "small",
          "type": "bool"
        }
      ],
      "name": "NewGame",
      "type": "event"
    },
    {
      "anonymous": false,
      "inputs": [
        {
          "indexed": true,
          "internalType": "address",
          "name": "player",
          "type": "address"
        }
      ],
      "name": "NoGame",
      "type": "event"
    },
    {
      "inputs": [
        {
          "internalType": "bool",
          "name": "_small",
          "type": "bool"
        }
      ],
      "name": "createGame",
      "outputs": [],
      "stateMutability": "nonpayable",
      "type": "function"
    },
    {
      "inputs": [
        {
          "internalType": "contract Game",
          "name": "_game",
          "type": "address"
        }
      ],
      "name": "joinGameByID",
      "outputs": [],
      "stateMutability": "nonpayable",
      "type": "function"
    },
    {
      "inputs": [],
      "name": "joinRandomGame",
      "outputs": [],
      "stateMutability": "nonpayable",
      "type": "function"
    }
  ],
  "bytecode": "0x608060405234801561001057600080fd5b50615ff4806100206000396000f3fe60806040523480156200001157600080fd5b5060043610620000465760003560e01c80632123bffc146200004b578063342ca184146200006b578063a35203c41462000077575b600080fd5b62000069600480360381019062000063919062000b4a565b62000097565b005b62000075620002b3565b005b6200009560048036038101906200008f919062000bb9565b620005d2565b005b6000808273ffffffffffffffffffffffffffffffffffffffff1673ffffffffffffffffffffffffffffffffffffffff16815260200190815260200160002060009054906101000a900460ff1615806200018c57508073ffffffffffffffffffffffffffffffffffffffff16638da5cb5b6040518163ffffffff1660e01b8152600401602060405180830381865afa15801562000137573d6000803e3d6000fd5b505050506040513d601f19601f820116820180604052508101906200015d919062000c1c565b73ffffffffffffffffffffffffffffffffffffffff163373ffffffffffffffffffffffffffffffffffffffff16145b15620001db573373ffffffffffffffffffffffffffffffffffffffff167f22223a77da257b62f2941c518a42d60b12781dbeaf07d25bfcdd00e1227732df60405160405180910390a2620002b0565b8073ffffffffffffffffffffffffffffffffffffffff1663fadca01e336040518263ffffffff1660e01b815260040162000216919062000c5f565b600060405180830381600087803b1580156200023157600080fd5b505af115801562000246573d6000803e3d6000fd5b50505050620002558162000672565b8073ffffffffffffffffffffffffffffffffffffffff163373ffffffffffffffffffffffffffffffffffffffff167f07b29210dc1c79e9a69cc69e470ffe66a4cac664f90d5aae30dc519c5c78e53e60405160405180910390a35b50565b6001808054905010156200030a573373ffffffffffffffffffffffffffffffffffffffff167fe2fe41c4bd195a4573c815ce24df9bdab82f85913f56314cd3225ce056ffb38360405160405180910390a2620005d0565b600060018054905060014362000321919062000cb5565b40336003546040516020016200033a9392919062000d94565b6040516020818303038152906040528051906020012060001c6200035f919062000e06565b905060036000815480929190620003769062000e3e565b91905055506000808290505b600180549050811015620005825760006001808054905083620003a6919062000e06565b81548110620003ba57620003b962000e8b565b5b9060005260206000200160009054906101000a900473ffffffffffffffffffffffffffffffffffffffff1690503373ffffffffffffffffffffffffffffffffffffffff168173ffffffffffffffffffffffffffffffffffffffff16638da5cb5b6040518163ffffffff1660e01b8152600401602060405180830381865afa1580156200044a573d6000803e3d6000fd5b505050506040513d601f19601f8201168201806040525081019062000470919062000c1c565b73ffffffffffffffffffffffffffffffffffffffff16146200056b57600192508073ffffffffffffffffffffffffffffffffffffffff1663fadca01e336040518263ffffffff1660e01b8152600401620004cb919062000c5f565b600060405180830381600087803b158015620004e657600080fd5b505af1158015620004fb573d6000803e3d6000fd5b505050506200050a8162000672565b8073ffffffffffffffffffffffffffffffffffffffff163373ffffffffffffffffffffffffffffffffffffffff167f07b29210dc1c79e9a69cc69e470ffe66a4cac664f90d5aae30dc519c5c78e53e60405160405180910390a35062000582565b508080620005799062000e3e565b91505062000382565b5080620005cd573373ffffffffffffffffffffffffffffffffffffffff167fe2fe41c4bd195a4573c815ce24df9bdab82f85913f56314cd3225ce056ffb38360405160405180910390a25b50505b565b60003382604051620005e49062000abe565b620005f192919062000ecb565b604051809103906000f0801580156200060e573d6000803e3d6000fd5b5090506200061c81620009ab565b3373ffffffffffffffffffffffffffffffffffffffff167f43ec5ca1a093170b11baf659159a896405b0393d8c5ce4a63c8dd450e2af0e5b82846040516200066692919062000f63565b60405180910390a25050565b600115156000808373ffffffffffffffffffffffffffffffffffffffff1673ffffffffffffffffffffffffffffffffffffffff16815260200190815260200160002060009054906101000a900460ff16151514620006d557620006d462000f90565b5b6000808273ffffffffffffffffffffffffffffffffffffffff1673ffffffffffffffffffffffffffffffffffffffff16815260200190815260200160002060006101000a81549060ff02191690556000600260008373ffffffffffffffffffffffffffffffffffffffff1673ffffffffffffffffffffffffffffffffffffffff1681526020019081526020016000205490506001808054905014806200078c57506001808054905062000789919062000cb5565b81145b15620007e2576001805480620007a757620007a662000fbf565b5b6001900381819060005260206000200160006101000a81549073ffffffffffffffffffffffffffffffffffffffff0219169055905562000964565b6001808080549050620007f6919062000cb5565b815481106200080a576200080962000e8b565b5b9060005260206000200160009054906101000a900473ffffffffffffffffffffffffffffffffffffffff16600182815481106200084c576200084b62000e8b565b5b9060005260206000200160006101000a81548173ffffffffffffffffffffffffffffffffffffffff021916908373ffffffffffffffffffffffffffffffffffffffff1602179055506001805480620008a957620008a862000fbf565b5b6001900381819060005260206000200160006101000a81549073ffffffffffffffffffffffffffffffffffffffff02191690559055806002600060018481548110620008fa57620008f962000e8b565b5b9060005260206000200160009054906101000a900473ffffffffffffffffffffffffffffffffffffffff1673ffffffffffffffffffffffffffffffffffffffff1673ffffffffffffffffffffffffffffffffffffffff168152602001908152602001600020819055505b600260008373ffffffffffffffffffffffffffffffffffffffff1673ffffffffffffffffffffffffffffffffffffffff168152602001908152602001600020600090555050565b60016000808373ffffffffffffffffffffffffffffffffffffffff1673ffffffffffffffffffffffffffffffffffffffff16815260200190815260200160002060006101000a81548160ff0219169083151502179055506001819080600181540180825580915050600190039060005260206000200160009091909190916101000a81548173ffffffffffffffffffffffffffffffffffffffff021916908373ffffffffffffffffffffffffffffffffffffffff1602179055506001808054905062000a78919062000cb5565b600260008373ffffffffffffffffffffffffffffffffffffffff1673ffffffffffffffffffffffffffffffffffffffff1681526020019081526020016000208190555050565b614fd08062000fef83390190565b600080fd5b600073ffffffffffffffffffffffffffffffffffffffff82169050919050565b600062000afe8262000ad1565b9050919050565b600062000b128262000af1565b9050919050565b62000b248162000b05565b811462000b3057600080fd5b50565b60008135905062000b448162000b19565b92915050565b60006020828403121562000b635762000b6262000acc565b5b600062000b738482850162000b33565b91505092915050565b60008115159050919050565b62000b938162000b7c565b811462000b9f57600080fd5b50565b60008135905062000bb38162000b88565b92915050565b60006020828403121562000bd25762000bd162000acc565b5b600062000be28482850162000ba2565b91505092915050565b62000bf68162000af1565b811462000c0257600080fd5b50565b60008151905062000c168162000beb565b92915050565b60006020828403121562000c355762000c3462000acc565b5b600062000c458482850162000c05565b91505092915050565b62000c598162000af1565b82525050565b600060208201905062000c76600083018462000c4e565b92915050565b6000819050919050565b7f4e487b7100000000000000000000000000000000000000000000000000000000600052601160045260246000fd5b600062000cc28262000c7c565b915062000ccf8362000c7c565b925082820390508181111562000cea5762000ce962000c86565b5b92915050565b6000819050919050565b6000819050919050565b62000d1962000d138262000cf0565b62000cfa565b82525050565b60008160601b9050919050565b600062000d398262000d1f565b9050919050565b600062000d4d8262000d2c565b9050919050565b62000d6962000d638262000af1565b62000d40565b82525050565b6000819050919050565b62000d8e62000d888262000c7c565b62000d6f565b82525050565b600062000da2828662000d04565b60208201915062000db4828562000d54565b60148201915062000dc6828462000d79565b602082019150819050949350505050565b7f4e487b7100000000000000000000000000000000000000000000000000000000600052601260045260246000fd5b600062000e138262000c7c565b915062000e208362000c7c565b92508262000e335762000e3262000dd7565b5b828206905092915050565b600062000e4b8262000c7c565b91507fffffffffffffffffffffffffffffffffffffffffffffffffffffffffffffffff820362000e805762000e7f62000c86565b5b600182019050919050565b7f4e487b7100000000000000000000000000000000000000000000000000000000600052603260045260246000fd5b62000ec58162000b7c565b82525050565b600060408201905062000ee2600083018562000c4e565b62000ef1602083018462000eba565b9392505050565b6000819050919050565b600062000f2362000f1d62000f178462000ad1565b62000ef8565b62000ad1565b9050919050565b600062000f378262000f02565b9050919050565b600062000f4b8262000f2a565b9050919050565b62000f5d8162000f3e565b82525050565b600060408201905062000f7a600083018562000f52565b62000f89602083018462000eba565b9392505050565b7f4e487b7100000000000000000000000000000000000000000000000000000000600052600160045260246000fd5b7f4e487b7100000000000000000000000000000000000000000000000000000000600052603160045260246000fdfe60806040523480156200001157600080fd5b5060405162004fd038038062004fd08339818101604052810190620000379190620001db565b81600160026101000a81548173ffffffffffffffffffffffffffffffffffffffff021916908373ffffffffffffffffffffffffffffffffffffffff160217905550806200009f576040600160006101000a81548160ff021916908360ff1602179055620000bb565b6010600160006101000a81548160ff021916908360ff16021790555b5080620000e257600a6001806101000a81548160ff021916908360ff1602179055620000fd565b60056001806101000a81548160ff021916908360ff16021790555b506000600560146101000a81548160ff0219169083600581111562000127576200012662000222565b5b0217905550505062000251565b600080fd5b600073ffffffffffffffffffffffffffffffffffffffff82169050919050565b6000620001668262000139565b9050919050565b620001788162000159565b81146200018457600080fd5b50565b60008151905062000198816200016d565b92915050565b60008115159050919050565b620001b5816200019e565b8114620001c157600080fd5b50565b600081519050620001d581620001aa565b92915050565b60008060408385031215620001f557620001f462000134565b5b6000620002058582860162000187565b92505060206200021885828601620001c4565b9150509250929050565b7f4e487b7100000000000000000000000000000000000000000000000000000000600052602160045260246000fd5b614d6f80620002616000396000f3fe60806040526004361061019c5760003560e01c8063c3006aec116100ec578063e35d284b1161008a578063f3d86e4a11610064578063f3d86e4a1461052b578063f5126b6b14610542578063f87a63001461056d578063fadca01e146105985761019c565b8063e35d284b1461049a578063e65e8492146104c5578063ea66144a146105025761019c565b8063d43faafd116100c6578063d43faafd146103ee578063dfbf53ae14610417578063e25387e414610442578063e2eb41ff146104595761019c565b8063c3006aec1461036f578063c51d69f414610398578063cc12f58e146103c35761019c565b80633ccfd60b116101595780638b80aac4116101335780638b80aac4146102d95780638da5cb5b14610304578063a562ea3b1461032f578063bcc9f3e6146103465761019c565b80633ccfd60b1461026c578063577c87cb146102835780638b299903146102ae5761019c565b806311610c25146101a15780631999eca8146101cc5780631bb565d6146101f55780631e20ddab1461022057806330bfcb5f1461022a5780633951be8714610241575b600080fd5b3480156101ad57600080fd5b506101b66105c1565b6040516101c391906140e1565b60405180910390f35b3480156101d857600080fd5b506101f360048036038101906101ee9190614149565b6105c7565b005b34801561020157600080fd5b5061020a6107e6565b60405161021791906140e1565b60405180910390f35b6102286107ec565b005b34801561023657600080fd5b5061023f610c6b565b005b34801561024d57600080fd5b506102566110f8565b60405161026391906141ed565b60405180910390f35b34801561027857600080fd5b5061028161110b565b005b34801561028f57600080fd5b50610298611217565b6040516102a59190614217565b60405180910390f35b3480156102ba57600080fd5b506102c361121c565b6040516102d09190614273565b60405180910390f35b3480156102e557600080fd5b506102ee611242565b6040516102fb9190614273565b60405180910390f35b34801561031057600080fd5b50610319611268565b6040516103269190614273565b60405180910390f35b34801561033b57600080fd5b5061034461128e565b005b34801561035257600080fd5b5061036d600480360381019061036891906146ca565b6117e8565b005b34801561037b57600080fd5b50610396600480360381019061039191906147d1565b611d38565b005b3480156103a457600080fd5b506103ad612575565b6040516103ba9190614217565b60405180910390f35b3480156103cf57600080fd5b506103d8612588565b6040516103e59190614217565b60405180910390f35b3480156103fa57600080fd5b5061041560048036038101906104109190614868565b61258d565b005b34801561042357600080fd5b5061042c612932565b6040516104399190614273565b60405180910390f35b34801561044e57600080fd5b50610457612958565b005b34801561046557600080fd5b50610480600480360381019061047b91906148c1565b612eb7565b60405161049195949392919061490c565b60405180910390f35b3480156104a657600080fd5b506104af612f14565b6040516104bc9190614217565b60405180910390f35b3480156104d157600080fd5b506104ec60048036038101906104e791906148c1565b612f19565b6040516104f99190614a94565b60405180910390f35b34801561050e57600080fd5b5061052960048036038101906105249190614ab6565b61300e565b005b34801561053757600080fd5b50610540613530565b005b34801561054e57600080fd5b5061055761368d565b6040516105649190614217565b60405180910390f35b34801561057957600080fd5b50610582613692565b60405161058f9190614217565b60405180910390f35b3480156105a457600080fd5b506105bf60048036038101906105ba91906148c1565b6136a3565b005b60045481565b600360058111156105db576105da614176565b5b600560149054906101000a900460ff1660058111156105fd576105fc614176565b5b1461060757600080fd5b600360003373ffffffffffffffffffffffffffffffffffffffff1673ffffffffffffffffffffffffffffffffffffffff16815260200190815260200160002060000160009054906101000a900460ff161561077f576000544310156106c6576000600360003373ffffffffffffffffffffffffffffffffffffffff1673ffffffffffffffffffffffffffffffffffffffff16815260200190815260200160002060000160006101000a81548160ff02191690831515021790555061077e565b600054431061077d57610778600160029054906101000a900473ffffffffffffffffffffffffffffffffffffffff1673ffffffffffffffffffffffffffffffffffffffff163373ffffffffffffffffffffffffffffffffffffffff161461074f57600160029054906101000a900473ffffffffffffffffffffffffffffffffffffffff16610773565b600260009054906101000a900473ffffffffffffffffffffffffffffffffffffffff165b6137ad565b6107e3565b5b5b600560009054906101000a900473ffffffffffffffffffffffffffffffffffffffff1673ffffffffffffffffffffffffffffffffffffffff163373ffffffffffffffffffffffffffffffffffffffff16146107d957600080fd5b6107e281613852565b5b50565b60005481565b600160029054906101000a900473ffffffffffffffffffffffffffffffffffffffff1673ffffffffffffffffffffffffffffffffffffffff163373ffffffffffffffffffffffffffffffffffffffff1614806108955750600260009054906101000a900473ffffffffffffffffffffffffffffffffffffffff1673ffffffffffffffffffffffffffffffffffffffff163373ffffffffffffffffffffffffffffffffffffffff16145b61089e57600080fd5b60011515600360003373ffffffffffffffffffffffffffffffffffffffff1673ffffffffffffffffffffffffffffffffffffffff16815260200190815260200160002060020160009054906101000a900460ff161515036108fe57600080fd5b600360003373ffffffffffffffffffffffffffffffffffffffff1673ffffffffffffffffffffffffffffffffffffffff16815260200190815260200160002060000160009054906101000a900460ff1615610a76576000544310156109bd576000600360003373ffffffffffffffffffffffffffffffffffffffff1673ffffffffffffffffffffffffffffffffffffffff16815260200190815260200160002060000160006101000a81548160ff021916908315150217905550610a75565b6000544310610a7457610a6f600160029054906101000a900473ffffffffffffffffffffffffffffffffffffffff1673ffffffffffffffffffffffffffffffffffffffff163373ffffffffffffffffffffffffffffffffffffffff1614610a4657600160029054906101000a900473ffffffffffffffffffffffffffffffffffffffff16610a6a565b600260009054906101000a900473ffffffffffffffffffffffffffffffffffffffff165b6137ad565b610c69565b5b5b60016005811115610a8a57610a89614176565b5b600560149054906101000a900460ff166005811115610aac57610aab614176565b5b14610ab657600080fd5b6004543414610ac457600080fd5b6001600360003373ffffffffffffffffffffffffffffffffffffffff1673ffffffffffffffffffffffffffffffffffffffff16815260200190815260200160002060020160006101000a81548160ff02191690831515021790555060036000600160029054906101000a900473ffffffffffffffffffffffffffffffffffffffff1673ffffffffffffffffffffffffffffffffffffffff1673ffffffffffffffffffffffffffffffffffffffff16815260200190815260200160002060020160009054906101000a900460ff168015610c0b575060036000600260009054906101000a900473ffffffffffffffffffffffffffffffffffffffff1673ffffffffffffffffffffffffffffffffffffffff1673ffffffffffffffffffffffffffffffffffffffff16815260200190815260200160002060020160009054906101000a900460ff165b15610c68577fd2d72fde7537c550b5e85eabb70a65949c78bb66328f56c78ddc8251950a994160405160405180910390a16002600560146101000a81548160ff02191690836005811115610c6257610c61614176565b5b02179055505b5b565b600160029054906101000a900473ffffffffffffffffffffffffffffffffffffffff1673ffffffffffffffffffffffffffffffffffffffff163373ffffffffffffffffffffffffffffffffffffffff161480610d145750600260009054906101000a900473ffffffffffffffffffffffffffffffffffffffff1673ffffffffffffffffffffffffffffffffffffffff163373ffffffffffffffffffffffffffffffffffffffff16145b610d1d57600080fd5b60011515600360003373ffffffffffffffffffffffffffffffffffffffff1673ffffffffffffffffffffffffffffffffffffffff16815260200190815260200160002060020160009054906101000a900460ff16151503610d7d57600080fd5b600360003373ffffffffffffffffffffffffffffffffffffffff1673ffffffffffffffffffffffffffffffffffffffff16815260200190815260200160002060000160009054906101000a900460ff1615610ef557600054431015610e3c576000600360003373ffffffffffffffffffffffffffffffffffffffff1673ffffffffffffffffffffffffffffffffffffffff16815260200190815260200160002060000160006101000a81548160ff021916908315150217905550610ef4565b6000544310610ef357610eee600160029054906101000a900473ffffffffffffffffffffffffffffffffffffffff1673ffffffffffffffffffffffffffffffffffffffff163373ffffffffffffffffffffffffffffffffffffffff1614610ec557600160029054906101000a900473ffffffffffffffffffffffffffffffffffffffff16610ee9565b600260009054906101000a900473ffffffffffffffffffffffffffffffffffffffff165b6137ad565b6110f6565b5b5b60016005811115610f0957610f08614176565b5b600560149054906101000a900460ff166005811115610f2b57610f2a614176565b5b14610f3557600080fd5b6000600160029054906101000a900473ffffffffffffffffffffffffffffffffffffffff1673ffffffffffffffffffffffffffffffffffffffff163373ffffffffffffffffffffffffffffffffffffffff1614610fb457600160029054906101000a900473ffffffffffffffffffffffffffffffffffffffff16610fd8565b600260009054906101000a900473ffffffffffffffffffffffffffffffffffffffff165b90506000600360008373ffffffffffffffffffffffffffffffffffffffff1673ffffffffffffffffffffffffffffffffffffffff168152602001908152602001600020600101540361102957600080fd5b600360008273ffffffffffffffffffffffffffffffffffffffff1673ffffffffffffffffffffffffffffffffffffffff16815260200190815260200160002060010154600481905550600454600360008373ffffffffffffffffffffffffffffffffffffffff1673ffffffffffffffffffffffffffffffffffffffff168152602001908152602001600020600101819055507f50ac8120affab45c80b99be15eba8c23598651f799d4ad1c2e0c91f92e7e23b16004546040516110ec91906140e1565b60405180910390a1505b565b600560149054906101000a900460ff1681565b60058081111561111e5761111d614176565b5b600560149054906101000a900460ff1660058111156111405761113f614176565b5b1461114a57600080fd5b600660009054906101000a900473ffffffffffffffffffffffffffffffffffffffff1673ffffffffffffffffffffffffffffffffffffffff163373ffffffffffffffffffffffffffffffffffffffff16146111a457600080fd5b60058060146101000a81548160ff021916908360058111156111c9576111c8614176565b5b02179055503373ffffffffffffffffffffffffffffffffffffffff166108fc479081150290604051600060405180830381858888f19350505050158015611214573d6000803e3d6000fd5b50565b601081565b600560009054906101000a900473ffffffffffffffffffffffffffffffffffffffff1681565b600260009054906101000a900473ffffffffffffffffffffffffffffffffffffffff1681565b600160029054906101000a900473ffffffffffffffffffffffffffffffffffffffff1681565b600160029054906101000a900473ffffffffffffffffffffffffffffffffffffffff1673ffffffffffffffffffffffffffffffffffffffff163373ffffffffffffffffffffffffffffffffffffffff1614806113375750600260009054906101000a900473ffffffffffffffffffffffffffffffffffffffff1673ffffffffffffffffffffffffffffffffffffffff163373ffffffffffffffffffffffffffffffffffffffff16145b61134057600080fd5b6000600160029054906101000a900473ffffffffffffffffffffffffffffffffffffffff1673ffffffffffffffffffffffffffffffffffffffff163373ffffffffffffffffffffffffffffffffffffffff16146113bf57600160029054906101000a900473ffffffffffffffffffffffffffffffffffffffff166113e3565b600260009054906101000a900473ffffffffffffffffffffffffffffffffffffffff165b9050600160058111156113f9576113f8614176565b5b600560149054906101000a900460ff16600581111561141b5761141a614176565b5b14801561147b575060001515600360008373ffffffffffffffffffffffffffffffffffffffff1673ffffffffffffffffffffffffffffffffffffffff16815260200190815260200160002060020160009054906101000a900460ff161515145b8061150957506002600581111561149557611494614176565b5b600560149054906101000a900460ff1660058111156114b7576114b6614176565b5b14801561150857506000801b600360008373ffffffffffffffffffffffffffffffffffffffff1673ffffffffffffffffffffffffffffffffffffffff16815260200190815260200160002060030154145b5b806115a057506003600581111561152357611522614176565b5b600560149054906101000a900460ff16600581111561154557611544614176565b5b14801561159f57508073ffffffffffffffffffffffffffffffffffffffff16600560009054906101000a900473ffffffffffffffffffffffffffffffffffffffff1673ffffffffffffffffffffffffffffffffffffffff16145b5b806116375750600460058111156115ba576115b9614176565b5b600560149054906101000a900460ff1660058111156115dc576115db614176565b5b14801561163657508073ffffffffffffffffffffffffffffffffffffffff16600660009054906101000a900473ffffffffffffffffffffffffffffffffffffffff1673ffffffffffffffffffffffffffffffffffffffff16145b5b61164057600080fd5b6000600160029054906101000a900473ffffffffffffffffffffffffffffffffffffffff1673ffffffffffffffffffffffffffffffffffffffff163373ffffffffffffffffffffffffffffffffffffffff16146116bf57600160029054906101000a900473ffffffffffffffffffffffffffffffffffffffff166116e3565b600260009054906101000a900473ffffffffffffffffffffffffffffffffffffffff165b9050600360008273ffffffffffffffffffffffffffffffffffffffff1673ffffffffffffffffffffffffffffffffffffffff16815260200190815260200160002060000160009054906101000a900460ff161561173f57600080fd5b7f1a57b5e70fad11389febe9938025db4c3ee52d0bde2fcf22527149b81444c2ca8160405161176e9190614273565b60405180910390a16001600360008373ffffffffffffffffffffffffffffffffffffffff1673ffffffffffffffffffffffffffffffffffffffff16815260200190815260200160002060000160006101000a81548160ff0219169083151502179055506005436117de9190614b12565b6000819055505050565b600460058111156117fc576117fb614176565b5b600560149054906101000a900460ff16600581111561181e5761181d614176565b5b1461182857600080fd5b600360003373ffffffffffffffffffffffffffffffffffffffff1673ffffffffffffffffffffffffffffffffffffffff16815260200190815260200160002060000160009054906101000a900460ff16156119a0576000544310156118e7576000600360003373ffffffffffffffffffffffffffffffffffffffff1673ffffffffffffffffffffffffffffffffffffffff16815260200190815260200160002060000160006101000a81548160ff02191690831515021790555061199f565b600054431061199e57611999600160029054906101000a900473ffffffffffffffffffffffffffffffffffffffff1673ffffffffffffffffffffffffffffffffffffffff163373ffffffffffffffffffffffffffffffffffffffff161461197057600160029054906101000a900473ffffffffffffffffffffffffffffffffffffffff16611994565b600260009054906101000a900473ffffffffffffffffffffffffffffffffffffffff165b6137ad565b611d31565b5b5b600660009054906101000a900473ffffffffffffffffffffffffffffffffffffffff1673ffffffffffffffffffffffffffffffffffffffff163373ffffffffffffffffffffffffffffffffffffffff16146119fa57600080fd5b8151835114611a0857600080fd5b8051835114611a1657600080fd5b6000600160029054906101000a900473ffffffffffffffffffffffffffffffffffffffff1673ffffffffffffffffffffffffffffffffffffffff163373ffffffffffffffffffffffffffffffffffffffff1614611a9557600160029054906101000a900473ffffffffffffffffffffffffffffffffffffffff16611ab9565b600260009054906101000a900473ffffffffffffffffffffffffffffffffffffffff165b9050600080600160009054906101000a900460ff1660ff1667ffffffffffffffff811115611aea57611ae96142a4565b5b604051908082528060200260200182016040528015611b185781602001602082028036833780820191505090505b50905060005b600160009054906101000a900460ff1660ff16811015611b72576000828281518110611b4d57611b4c614b46565b5b6020026020010190151590811515815250508080611b6a90614b75565b915050611b1e565b50611bc38888888888600360003373ffffffffffffffffffffffffffffffffffffffff1673ffffffffffffffffffffffffffffffffffffffff16815260200190815260200160002060030154613b95565b611bd857611bd0836137ad565b505050611d30565b60005b8651811015611cf957600160009054906101000a900460ff1660ff16858281518110611c0a57611c09614b46565b5b602002602001015160ff1610611c2c57611c23846137ad565b50505050611d30565b81858281518110611c4057611c3f614b46565b5b602002602001015160ff1681518110611c5c57611c5b614b46565b5b602002602001015115611c7357611c72846137ad565b5b600182868381518110611c8957611c88614b46565b5b602002602001015160ff1681518110611ca557611ca4614b46565b5b602002602001019015159081151581525050868181518110611cca57611cc9614b46565b5b602002602001015115611ce6578280611ce290614bbd565b9350505b8080611cf190614b75565b915050611bdb565b5060018054906101000a900460ff1660ff168260ff1603611d2257611d1d336137ad565b611d2c565b611d2b836137ad565b5b5050505b5b5050505050565b60036005811115611d4c57611d4b614176565b5b600560149054906101000a900460ff166005811115611d6e57611d6d614176565b5b14611d7857600080fd5b600360003373ffffffffffffffffffffffffffffffffffffffff1673ffffffffffffffffffffffffffffffffffffffff16815260200190815260200160002060000160009054906101000a900460ff1615611ef057600054431015611e37576000600360003373ffffffffffffffffffffffffffffffffffffffff1673ffffffffffffffffffffffffffffffffffffffff16815260200190815260200160002060000160006101000a81548160ff021916908315150217905550611eef565b6000544310611eee57611ee9600160029054906101000a900473ffffffffffffffffffffffffffffffffffffffff1673ffffffffffffffffffffffffffffffffffffffff163373ffffffffffffffffffffffffffffffffffffffff1614611ec057600160029054906101000a900473ffffffffffffffffffffffffffffffffffffffff16611ee4565b600260009054906101000a900473ffffffffffffffffffffffffffffffffffffffff165b6137ad565b61256e565b5b5b600560009054906101000a900473ffffffffffffffffffffffffffffffffffffffff1673ffffffffffffffffffffffffffffffffffffffff163373ffffffffffffffffffffffffffffffffffffffff1614611f4a57600080fd5b6000600160029054906101000a900473ffffffffffffffffffffffffffffffffffffffff1673ffffffffffffffffffffffffffffffffffffffff163373ffffffffffffffffffffffffffffffffffffffff1614611fc957600160029054906101000a900473ffffffffffffffffffffffffffffffffffffffff16611fed565b600260009054906101000a900473ffffffffffffffffffffffffffffffffffffffff165b90506000600281111561200357612002614176565b5b600360008373ffffffffffffffffffffffffffffffffffffffff1673ffffffffffffffffffffffffffffffffffffffff1681526020019081526020016000206005016001600360008573ffffffffffffffffffffffffffffffffffffffff1673ffffffffffffffffffffffffffffffffffffffff168152602001908152602001600020600501805490506120979190614be6565b815481106120a8576120a7614b46565b5b9060005260206000200160000160019054906101000a900460ff1660028111156120d5576120d4614176565b5b146120e3576120e2614c1a565b5b8360ff16600360008373ffffffffffffffffffffffffffffffffffffffff1673ffffffffffffffffffffffffffffffffffffffff1681526020019081526020016000206005016001600360008573ffffffffffffffffffffffffffffffffffffffff1673ffffffffffffffffffffffffffffffffffffffff1681526020019081526020016000206005018054905061217b9190614be6565b8154811061218c5761218b614b46565b5b9060005260206000200160000160009054906101000a900460ff1660ff16146121b457600080fd5b61220386868686600360003373ffffffffffffffffffffffffffffffffffffffff1673ffffffffffffffffffffffffffffffffffffffff16815260200190815260200160002060030154613c95565b61221657612210816137ad565b5061256d565b8515612486576001600360008373ffffffffffffffffffffffffffffffffffffffff1673ffffffffffffffffffffffffffffffffffffffff1681526020019081526020016000206005016001600360008573ffffffffffffffffffffffffffffffffffffffff1673ffffffffffffffffffffffffffffffffffffffff168152602001908152602001600020600501805490506122b29190614be6565b815481106122c3576122c2614b46565b5b9060005260206000200160000160016101000a81548160ff021916908360028111156122f2576122f1614176565b5b0217905550600360003373ffffffffffffffffffffffffffffffffffffffff1673ffffffffffffffffffffffffffffffffffffffff168152602001908152602001600020600401600081819054906101000a900460ff168092919061235690614bbd565b91906101000a81548160ff021916908360ff1602179055505060018054906101000a900460ff1660ff16600360003373ffffffffffffffffffffffffffffffffffffffff1673ffffffffffffffffffffffffffffffffffffffff16815260200190815260200160002060040160009054906101000a900460ff1660ff16036124815780600660006101000a81548173ffffffffffffffffffffffffffffffffffffffff021916908373ffffffffffffffffffffffffffffffffffffffff1602179055506004600560146101000a81548160ff0219169083600581111561243f5761243e614176565b5b02179055507f745c90b656b4aafe296c8ca35aeacfe56cb96c90e1d320e5da643fff1051b6c0816040516124739190614273565b60405180910390a15061256d565b612562565b6002600360008373ffffffffffffffffffffffffffffffffffffffff1673ffffffffffffffffffffffffffffffffffffffff1681526020019081526020016000206005016001600360008573ffffffffffffffffffffffffffffffffffffffff1673ffffffffffffffffffffffffffffffffffffffff1681526020019081526020016000206005018054905061251c9190614be6565b8154811061252d5761252c614b46565b5b9060005260206000200160000160016101000a81548160ff0219169083600281111561255c5761255b614176565b5b02179055505b61256b82613852565b505b5b5050505050565b600160009054906101000a900460ff1681565b604081565b600160029054906101000a900473ffffffffffffffffffffffffffffffffffffffff1673ffffffffffffffffffffffffffffffffffffffff163373ffffffffffffffffffffffffffffffffffffffff1614806126365750600260009054906101000a900473ffffffffffffffffffffffffffffffffffffffff1673ffffffffffffffffffffffffffffffffffffffff163373ffffffffffffffffffffffffffffffffffffffff16145b61263f57600080fd5b60011515600360003373ffffffffffffffffffffffffffffffffffffffff1673ffffffffffffffffffffffffffffffffffffffff16815260200190815260200160002060020160009054906101000a900460ff1615150361269f57600080fd5b600360003373ffffffffffffffffffffffffffffffffffffffff1673ffffffffffffffffffffffffffffffffffffffff16815260200190815260200160002060000160009054906101000a900460ff16156128175760005443101561275e576000600360003373ffffffffffffffffffffffffffffffffffffffff1673ffffffffffffffffffffffffffffffffffffffff16815260200190815260200160002060000160006101000a81548160ff021916908315150217905550612816565b600054431061281557612810600160029054906101000a900473ffffffffffffffffffffffffffffffffffffffff1673ffffffffffffffffffffffffffffffffffffffff163373ffffffffffffffffffffffffffffffffffffffff16146127e757600160029054906101000a900473ffffffffffffffffffffffffffffffffffffffff1661280b565b600260009054906101000a900473ffffffffffffffffffffffffffffffffffffffff165b6137ad565b61292f565b5b5b6001600581111561282b5761282a614176565b5b600560149054906101000a900460ff16600581111561284d5761284c614176565b5b1461285757600080fd5b80600360003373ffffffffffffffffffffffffffffffffffffffff1673ffffffffffffffffffffffffffffffffffffffff168152602001908152602001600020600101819055503373ffffffffffffffffffffffffffffffffffffffff167f4a8a2c0cf89add878b8fd9d1a4868d4b9536b6cbedec55c1b1eb3a5fa4cfdca2600360003373ffffffffffffffffffffffffffffffffffffffff1673ffffffffffffffffffffffffffffffffffffffff1681526020019081526020016000206001015460405161292691906140e1565b60405180910390a25b50565b600660009054906101000a900473ffffffffffffffffffffffffffffffffffffffff1681565b600160029054906101000a900473ffffffffffffffffffffffffffffffffffffffff1673ffffffffffffffffffffffffffffffffffffffff163373ffffffffffffffffffffffffffffffffffffffff161480612a015750600260009054906101000a900473ffffffffffffffffffffffffffffffffffffffff1673ffffffffffffffffffffffffffffffffffffffff163373ffffffffffffffffffffffffffffffffffffffff16145b612a0a57600080fd5b6000600160029054906101000a900473ffffffffffffffffffffffffffffffffffffffff1673ffffffffffffffffffffffffffffffffffffffff163373ffffffffffffffffffffffffffffffffffffffff1614612a8957600160029054906101000a900473ffffffffffffffffffffffffffffffffffffffff16612aad565b600260009054906101000a900473ffffffffffffffffffffffffffffffffffffffff165b905060016005811115612ac357612ac2614176565b5b600560149054906101000a900460ff166005811115612ae557612ae4614176565b5b148015612b45575060001515600360008373ffffffffffffffffffffffffffffffffffffffff1673ffffffffffffffffffffffffffffffffffffffff16815260200190815260200160002060020160009054906101000a900460ff161515145b80612bd3575060026005811115612b5f57612b5e614176565b5b600560149054906101000a900460ff166005811115612b8157612b80614176565b5b148015612bd257506000801b600360008373ffffffffffffffffffffffffffffffffffffffff1673ffffffffffffffffffffffffffffffffffffffff16815260200190815260200160002060030154145b5b80612c6a575060036005811115612bed57612bec614176565b5b600560149054906101000a900460ff166005811115612c0f57612c0e614176565b5b148015612c6957508073ffffffffffffffffffffffffffffffffffffffff16600560009054906101000a900473ffffffffffffffffffffffffffffffffffffffff1673ffffffffffffffffffffffffffffffffffffffff16145b5b80612d01575060046005811115612c8457612c83614176565b5b600560149054906101000a900460ff166005811115612ca657612ca5614176565b5b148015612d0057508073ffffffffffffffffffffffffffffffffffffffff16600660009054906101000a900473ffffffffffffffffffffffffffffffffffffffff1673ffffffffffffffffffffffffffffffffffffffff16145b5b612d0a57600080fd5b6000600160029054906101000a900473ffffffffffffffffffffffffffffffffffffffff1673ffffffffffffffffffffffffffffffffffffffff163373ffffffffffffffffffffffffffffffffffffffff1614612d8957600160029054906101000a900473ffffffffffffffffffffffffffffffffffffffff16612dad565b600260009054906101000a900473ffffffffffffffffffffffffffffffffffffffff165b9050600360008273ffffffffffffffffffffffffffffffffffffffff1673ffffffffffffffffffffffffffffffffffffffff16815260200190815260200160002060000160009054906101000a900460ff168015612e0d57506000544310155b15612e2057612e1b336137ad565b612eb3565b6000600360008373ffffffffffffffffffffffffffffffffffffffff1673ffffffffffffffffffffffffffffffffffffffff16815260200190815260200160002060000160006101000a81548160ff0219169083151502179055507fa681713f021eb5b63200ab13cc2e5732fb879c4978e92be56418b28630ae087281604051612eaa9190614273565b60405180910390a15b5050565b60036020528060005260406000206000915090508060000160009054906101000a900460ff16908060010154908060020160009054906101000a900460ff16908060030154908060040160009054906101000a900460ff16905085565b600a81565b6060600360008373ffffffffffffffffffffffffffffffffffffffff1673ffffffffffffffffffffffffffffffffffffffff168152602001908152602001600020600501805480602002602001604051908101604052809291908181526020016000905b82821015613003578382906000526020600020016040518060400160405290816000820160009054906101000a900460ff1660ff1660ff1681526020016000820160019054906101000a900460ff166002811115612fde57612fdd614176565b5b6002811115612ff057612fef614176565b5b8152505081526020019060010190612f7d565b505050509050919050565b600160029054906101000a900473ffffffffffffffffffffffffffffffffffffffff1673ffffffffffffffffffffffffffffffffffffffff163373ffffffffffffffffffffffffffffffffffffffff1614806130b75750600260009054906101000a900473ffffffffffffffffffffffffffffffffffffffff1673ffffffffffffffffffffffffffffffffffffffff163373ffffffffffffffffffffffffffffffffffffffff16145b6130c057600080fd5b600360003373ffffffffffffffffffffffffffffffffffffffff1673ffffffffffffffffffffffffffffffffffffffff16815260200190815260200160002060000160009054906101000a900460ff16156132385760005443101561317f576000600360003373ffffffffffffffffffffffffffffffffffffffff1673ffffffffffffffffffffffffffffffffffffffff16815260200190815260200160002060000160006101000a81548160ff021916908315150217905550613237565b600054431061323657613231600160029054906101000a900473ffffffffffffffffffffffffffffffffffffffff1673ffffffffffffffffffffffffffffffffffffffff163373ffffffffffffffffffffffffffffffffffffffff161461320857600160029054906101000a900473ffffffffffffffffffffffffffffffffffffffff1661322c565b600260009054906101000a900473ffffffffffffffffffffffffffffffffffffffff165b6137ad565b61352d565b5b5b6002600581111561324c5761324b614176565b5b600560149054906101000a900460ff16600581111561326e5761326d614176565b5b1461327857600080fd5b6000801b600360003373ffffffffffffffffffffffffffffffffffffffff1673ffffffffffffffffffffffffffffffffffffffff16815260200190815260200160002060030154146132c957600080fd5b80600360003373ffffffffffffffffffffffffffffffffffffffff1673ffffffffffffffffffffffffffffffffffffffff168152602001908152602001600020600301819055506000801b60036000600160029054906101000a900473ffffffffffffffffffffffffffffffffffffffff1673ffffffffffffffffffffffffffffffffffffffff1673ffffffffffffffffffffffffffffffffffffffff16815260200190815260200160002060030154141580156133ee57506000801b60036000600260009054906101000a900473ffffffffffffffffffffffffffffffffffffffff1673ffffffffffffffffffffffffffffffffffffffff1673ffffffffffffffffffffffffffffffffffffffff1681526020019081526020016000206003015414155b1561352c57600060036000600160029054906101000a900473ffffffffffffffffffffffffffffffffffffffff1673ffffffffffffffffffffffffffffffffffffffff1673ffffffffffffffffffffffffffffffffffffffff16815260200190815260200160002060040160006101000a81548160ff021916908360ff1602179055506003600560146101000a81548160ff0219169083600581111561349757613496614176565b5b02179055507f48c0ac148c6adb019cea448b4b78c69778a7b6abdfadce9a6acdc8b983e94bee60405160405180910390a1600260009054906101000a900473ffffffffffffffffffffffffffffffffffffffff16600560006101000a81548173ffffffffffffffffffffffffffffffffffffffff021916908373ffffffffffffffffffffffffffffffffffffffff1602179055505b5b50565b600160029054906101000a900473ffffffffffffffffffffffffffffffffffffffff1673ffffffffffffffffffffffffffffffffffffffff163373ffffffffffffffffffffffffffffffffffffffff1614806135d95750600260009054906101000a900473ffffffffffffffffffffffffffffffffffffffff1673ffffffffffffffffffffffffffffffffffffffff163373ffffffffffffffffffffffffffffffffffffffff16145b6135e257600080fd5b61368b600160029054906101000a900473ffffffffffffffffffffffffffffffffffffffff1673ffffffffffffffffffffffffffffffffffffffff163373ffffffffffffffffffffffffffffffffffffffff161461366257600160029054906101000a900473ffffffffffffffffffffffffffffffffffffffff16613686565b600260009054906101000a900473ffffffffffffffffffffffffffffffffffffffff165b6137ad565b565b600581565b60018054906101000a900460ff1681565b600060058111156136b7576136b6614176565b5b600560149054906101000a900460ff1660058111156136d9576136d8614176565b5b146136e357600080fd5b600073ffffffffffffffffffffffffffffffffffffffff16600260009054906101000a900473ffffffffffffffffffffffffffffffffffffffff1673ffffffffffffffffffffffffffffffffffffffff161461373e57600080fd5b80600260006101000a81548173ffffffffffffffffffffffffffffffffffffffff021916908373ffffffffffffffffffffffffffffffffffffffff1602179055506001600560146101000a81548160ff021916908360058111156137a5576137a4614176565b5b021790555050565b7fe48a335438ec9cf1059d7b134553ca861398a18d023bd34b9e4d956f5f7ba004816040516137dc9190614273565b60405180910390a180600660006101000a81548173ffffffffffffffffffffffffffffffffffffffff021916908373ffffffffffffffffffffffffffffffffffffffff16021790555060058060146101000a81548160ff0219169083600581111561384a57613849614176565b5b021790555050565b60001515600360003373ffffffffffffffffffffffffffffffffffffffff1673ffffffffffffffffffffffffffffffffffffffff16815260200190815260200160002060060160008360ff1660ff16815260200190815260200160002060009054906101000a900460ff161515146138c957600080fd5b600160009054906101000a900460ff1660ff168160ff16106138ea57600080fd5b6001600360003373ffffffffffffffffffffffffffffffffffffffff1673ffffffffffffffffffffffffffffffffffffffff16815260200190815260200160002060060160008360ff1660ff16815260200190815260200160002060006101000a81548160ff021916908315150217905550600360003373ffffffffffffffffffffffffffffffffffffffff1673ffffffffffffffffffffffffffffffffffffffff16815260200190815260200160002060050160405180604001604052808360ff168152602001600060028111156139c6576139c5614176565b5b8152509080600181540180825580915050600190039060005260206000200160009091909190915060008201518160000160006101000a81548160ff021916908360ff16021790555060208201518160000160016101000a81548160ff02191690836002811115613a3a57613a39614176565b5b02179055505050600160029054906101000a900473ffffffffffffffffffffffffffffffffffffffff1673ffffffffffffffffffffffffffffffffffffffff16600560009054906101000a900473ffffffffffffffffffffffffffffffffffffffff1673ffffffffffffffffffffffffffffffffffffffff1614613ae057600160029054906101000a900473ffffffffffffffffffffffffffffffffffffffff16613b04565b600260009054906101000a900473ffffffffffffffffffffffffffffffffffffffff165b600560006101000a81548173ffffffffffffffffffffffffffffffffffffffff021916908373ffffffffffffffffffffffffffffffffffffffff1602179055503373ffffffffffffffffffffffffffffffffffffffff167f665e09da1c684bb4ada2b5c04fe0bb20328ca455aae1928734e0a40dcf0e099e82604051613b8a9190614217565b60405180910390a250565b600080855167ffffffffffffffff811115613bb357613bb26142a4565b5b604051908082528060200260200182016040528015613be15781602001602082028036833780820191505090505b50905060005b8651811015613c7b57613c49878281518110613c0657613c05614b46565b5b6020026020010151878381518110613c2157613c20614b46565b5b6020026020010151878481518110613c3c57613c3b614b46565b5b6020026020010151613cbc565b828281518110613c5c57613c5b614b46565b5b6020026020010181815250508080613c7390614b75565b915050613be7565b50613c8888888584613d18565b9150509695505050505050565b600080613ca3878787613cbc565b9050613cb0848483613d31565b91505095945050505050565b6000838383604051602001613cd393929190614c49565b60405160208183030381529060405280519060200120604051602001613cf99190614ca1565b6040516020818303038152906040528051906020012090509392505050565b600082613d26868685613d48565b149050949350505050565b600082613d3e8584614030565b1490509392505050565b600080825190506000855190506000855190508060018385613d6a9190614b12565b613d749190614be6565b14613db4576040517f08c379a0000000000000000000000000000000000000000000000000000000008152600401613dab90614d19565b60405180910390fd5b60008167ffffffffffffffff811115613dd057613dcf6142a4565b5b604051908082528060200260200182016040528015613dfe5781602001602082028036833780820191505090505b5090506000806000805b85811015613f58576000888510613e4557858480613e2590614b75565b955081518110613e3857613e37614b46565b5b6020026020010151613e6d565b8a8580613e5190614b75565b965081518110613e6457613e63614b46565b5b60200260200101515b905060008c8381518110613e8457613e83614b46565b5b6020026020010151613ebc578d8480613e9c90614b75565b955081518110613eaf57613eae614b46565b5b6020026020010151613f18565b898610613eef57868580613ecf90614b75565b965081518110613ee257613ee1614b46565b5b6020026020010151613f17565b8b8680613efb90614b75565b975081518110613f0e57613f0d614b46565b5b60200260200101515b5b9050613f248282614086565b878481518110613f3757613f36614b46565b5b60200260200101818152505050508080613f5090614b75565b915050613e08565b506000851115613fd057858114613fa4576040517f08c379a0000000000000000000000000000000000000000000000000000000008152600401613f9b90614d19565b60405180910390fd5b836001860381518110613fba57613fb9614b46565b5b6020026020010151975050505050505050614029565b60008711156140035788600081518110613fed57613fec614b46565b5b6020026020010151975050505050505050614029565b8a60008151811061401757614016614b46565b5b60200260200101519750505050505050505b9392505050565b60008082905060005b845181101561407b576140668286838151811061405957614058614b46565b5b6020026020010151614086565b9150808061407390614b75565b915050614039565b508091505092915050565b600081831061409e5761409982846140b1565b6140a9565b6140a883836140b1565b5b905092915050565b600082600052816020526040600020905092915050565b6000819050919050565b6140db816140c8565b82525050565b60006020820190506140f660008301846140d2565b92915050565b6000604051905090565b600080fd5b600080fd5b600060ff82169050919050565b61412681614110565b811461413157600080fd5b50565b6000813590506141438161411d565b92915050565b60006020828403121561415f5761415e614106565b5b600061416d84828501614134565b91505092915050565b7f4e487b7100000000000000000000000000000000000000000000000000000000600052602160045260246000fd5b600681106141b6576141b5614176565b5b50565b60008190506141c7826141a5565b919050565b60006141d7826141b9565b9050919050565b6141e7816141cc565b82525050565b600060208201905061420260008301846141de565b92915050565b61421181614110565b82525050565b600060208201905061422c6000830184614208565b92915050565b600073ffffffffffffffffffffffffffffffffffffffff82169050919050565b600061425d82614232565b9050919050565b61426d81614252565b82525050565b60006020820190506142886000830184614264565b92915050565b600080fd5b6000601f19601f8301169050919050565b7f4e487b7100000000000000000000000000000000000000000000000000000000600052604160045260246000fd5b6142dc82614293565b810181811067ffffffffffffffff821117156142fb576142fa6142a4565b5b80604052505050565b600061430e6140fc565b905061431a82826142d3565b919050565b600067ffffffffffffffff82111561433a576143396142a4565b5b602082029050602081019050919050565b600080fd5b6000819050919050565b61436381614350565b811461436e57600080fd5b50565b6000813590506143808161435a565b92915050565b60006143996143948461431f565b614304565b905080838252602082019050602084028301858111156143bc576143bb61434b565b5b835b818110156143e557806143d18882614371565b8452602084019350506020810190506143be565b5050509392505050565b600082601f8301126144045761440361428e565b5b8135614414848260208601614386565b91505092915050565b600067ffffffffffffffff821115614438576144376142a4565b5b602082029050602081019050919050565b60008115159050919050565b61445e81614449565b811461446957600080fd5b50565b60008135905061447b81614455565b92915050565b600061449461448f8461441d565b614304565b905080838252602082019050602084028301858111156144b7576144b661434b565b5b835b818110156144e057806144cc888261446c565b8452602084019350506020810190506144b9565b5050509392505050565b600082601f8301126144ff576144fe61428e565b5b813561450f848260208601614481565b91505092915050565b600067ffffffffffffffff821115614533576145326142a4565b5b602082029050602081019050919050565b61454d816140c8565b811461455857600080fd5b50565b60008135905061456a81614544565b92915050565b600061458361457e84614518565b614304565b905080838252602082019050602084028301858111156145a6576145a561434b565b5b835b818110156145cf57806145bb888261455b565b8452602084019350506020810190506145a8565b5050509392505050565b600082601f8301126145ee576145ed61428e565b5b81356145fe848260208601614570565b91505092915050565b600067ffffffffffffffff821115614622576146216142a4565b5b602082029050602081019050919050565b600061464661464184614607565b614304565b905080838252602082019050602084028301858111156146695761466861434b565b5b835b81811015614692578061467e8882614134565b84526020840193505060208101905061466b565b5050509392505050565b600082601f8301126146b1576146b061428e565b5b81356146c1848260208601614633565b91505092915050565b600080600080600060a086880312156146e6576146e5614106565b5b600086013567ffffffffffffffff8111156147045761470361410b565b5b614710888289016143ef565b955050602086013567ffffffffffffffff8111156147315761473061410b565b5b61473d888289016144ea565b945050604086013567ffffffffffffffff81111561475e5761475d61410b565b5b61476a888289016144ea565b935050606086013567ffffffffffffffff81111561478b5761478a61410b565b5b614797888289016145d9565b925050608086013567ffffffffffffffff8111156147b8576147b761410b565b5b6147c48882890161469c565b9150509295509295909350565b600080600080600060a086880312156147ed576147ec614106565b5b60006147fb8882890161446c565b955050602061480c8882890161455b565b945050604061481d88828901614134565b935050606086013567ffffffffffffffff81111561483e5761483d61410b565b5b61484a888289016143ef565b925050608061485b88828901614134565b9150509295509295909350565b60006020828403121561487e5761487d614106565b5b600061488c8482850161455b565b91505092915050565b61489e81614252565b81146148a957600080fd5b50565b6000813590506148bb81614895565b92915050565b6000602082840312156148d7576148d6614106565b5b60006148e5848285016148ac565b91505092915050565b6148f781614449565b82525050565b61490681614350565b82525050565b600060a08201905061492160008301886148ee565b61492e60208301876140d2565b61493b60408301866148ee565b61494860608301856148fd565b6149556080830184614208565b9695505050505050565b600081519050919050565b600082825260208201905092915050565b6000819050602082019050919050565b61499481614110565b82525050565b600381106149ab576149aa614176565b5b50565b60008190506149bc8261499a565b919050565b60006149cc826149ae565b9050919050565b6149dc816149c1565b82525050565b6040820160008201516149f8600085018261498b565b506020820151614a0b60208501826149d3565b50505050565b6000614a1d83836149e2565b60408301905092915050565b6000602082019050919050565b6000614a418261495f565b614a4b818561496a565b9350614a568361497b565b8060005b83811015614a87578151614a6e8882614a11565b9750614a7983614a29565b925050600181019050614a5a565b5085935050505092915050565b60006020820190508181036000830152614aae8184614a36565b905092915050565b600060208284031215614acc57614acb614106565b5b6000614ada84828501614371565b91505092915050565b7f4e487b7100000000000000000000000000000000000000000000000000000000600052601160045260246000fd5b6000614b1d826140c8565b9150614b28836140c8565b9250828201905080821115614b4057614b3f614ae3565b5b92915050565b7f4e487b7100000000000000000000000000000000000000000000000000000000600052603260045260246000fd5b6000614b80826140c8565b91507fffffffffffffffffffffffffffffffffffffffffffffffffffffffffffffffff8203614bb257614bb1614ae3565b5b600182019050919050565b6000614bc882614110565b915060ff8203614bdb57614bda614ae3565b5b600182019050919050565b6000614bf1826140c8565b9150614bfc836140c8565b9250828203905081811115614c1457614c13614ae3565b5b92915050565b7f4e487b7100000000000000000000000000000000000000000000000000000000600052600160045260246000fd5b6000606082019050614c5e60008301866148ee565b614c6b60208301856140d2565b614c786040830184614208565b949350505050565b6000819050919050565b614c9b614c9682614350565b614c80565b82525050565b6000614cad8284614c8a565b60208201915081905092915050565b600082825260208201905092915050565b7f4d65726b6c6550726f6f663a20696e76616c6964206d756c746970726f6f6600600082015250565b6000614d03601f83614cbc565b9150614d0e82614ccd565b602082019050919050565b60006020820190508181036000830152614d3281614cf6565b905091905056fea264697066735822122061b16261f299586ef21727768ebbc269d32ed5972bdef9e3985b889ef381c56764736f6c63430008130033a264697066735822122067435e42018b9247f6827078e41ce6f418e9360a0368e9d94f254e647fc416ca64736f6c63430008130033",
  "immutableReferences": {},
  "source": "// SPDX-License-Identifier: MIT\npragma solidity >=0.4.22 <0.9.0;\nimport \"./Game.sol\";\nimport \"@openzeppelin/contracts/utils/math/SafeMath.sol\";\n\ncontract GamesManager {\n\n        using SafeMath for uint8;\n    using SafeMath for uint256;\n\n    // Maps Games that are joinable.\n    mapping(Game => bool) private joinableGamesMap;\n\n    // List of the joinable games.\n    Game[] private joinableGames;\n\n    // Mapping that keeps the index of the joinable games.\n    mapping(Game => uint256) private joinableGamesIndexes;\n\n    // Nonce used for gameID pseudo-random number generation.\n    uint256 private nonce;\n\n    ////////////\n    ///EVENTS///\n    ////////////\n\n    // Event emitted when a new game is created.\n    event NewGame(address indexed creator, Game game, bool small);\n\n    // Event emitted when a player joins a game.\n    event JoinGame(address indexed player, Game indexed game);\n\n    // Event emitted when player fails to join a random game.\n    event NoGame(address indexed player);\n\n    // Event emittend when player tries to join a not valid game. \n    event GameNotValid(address indexed player);\n\n    ///////////////\n    ////PUBLIC/////\n    ///FUNCTIONS///\n    ///////////////\n\n    // Function used to create a new game and select the size.\n    function createGame(bool _small) external {\n        // Create a new game\n        Game newGame = new Game(msg.sender, _small);\n\n        // Add the game to the joinable list.\n        _addGame(newGame);\n\n        // Emit event to inform client about the new game address.\n        emit NewGame(msg.sender, newGame, _small);\n    }\n\n    // Function used to join a pre-existing game knowing the ID.\n    function joinGameByID(Game _game) external {\n\n        // If the game is not in the joinableGame list or the owner tries to double access.\n        if (!joinableGamesMap[_game] || msg.sender == _game.owner()) {\n            emit GameNotValid(msg.sender);\n            return;\n        }\n\n        // Register the the second player.\n        _game.matchJoin(msg.sender);\n\n        // Delete the game from the joinable game list.\n        _removeGame(_game);\n\n        // Emit event to inform that the second player has joined the game.\n        emit JoinGame(msg.sender, _game);\n    }\n\n    function joinRandomGame() external {\n\n        if (joinableGames.length < 1) {\n            emit NoGame(msg.sender);\n            return;\n        }\n\n        // Generate a random index to access the joinable game list using the\n        // blockhash of the previous block, the msg.sender address and the local nonce\n        // that is incremented at each iteraction.\n        uint256 random = uint256(\n            keccak256(\n                abi.encodePacked(blockhash(block.number - 1), msg.sender, nonce)\n            )\n        ) % joinableGames.length;\n\n        // Increment nonce.\n        nonce++;\n\n        // Iterating the list we select the first suitable game\n        bool found = false;\n        for (uint256 i = random; i < joinableGames.length; i++) {\n            Game game = joinableGames[(i % joinableGames.length)];\n\n            // Check if the condition is respected.\n            if (game.owner() != msg.sender) {\n                found = true;\n\n                // Register the second player.\n                game.matchJoin(msg.sender);\n\n                // Remove game from the joinable game list.\n                _removeGame(game);\n\n                // Emit event to inform the sender about the game address.\n                emit JoinGame(msg.sender, game);\n                break;\n            }\n        }\n        // If no game is found emit NoGame\n        if (!found) emit NoGame(msg.sender);\n    }\n\n    /////////////\n    ///HELPERS///\n    /////////////\n\n    // Removal of a game from the joinable game list.\n    function _removeGame(Game _game) internal {\n        assert(joinableGamesMap[_game] == true);\n        delete joinableGamesMap[_game];\n\n        // Get the game index.\n        uint256 index = joinableGamesIndexes[_game];\n\n        // Update the joinable games index list.\n        if (joinableGames.length == 1 || index == joinableGames.length - 1) {\n            joinableGames.pop();\n        } else {\n            // Put the index in the head and pop \n            joinableGames[index] = joinableGames[joinableGames.length - 1];\n            joinableGames.pop();\n            // Assign the index\n            joinableGamesIndexes[joinableGames[index]] = index;\n        }\n\n        delete joinableGamesIndexes[_game];\n    }\n\n    // Add a game to the joinable game list.\n    function _addGame(Game _game) internal {\n        joinableGamesMap[_game] = true;\n        joinableGames.push(_game);\n        joinableGamesIndexes[_game] = joinableGames.length - 1;\n    }\n}\n",
  "sourcePath": "/home/azk/Desktop/merketh-battleship/backend/contracts/GamesManager.sol",
  "compiler": {
    "name": "solc",
    "version": "0.8.19+commit.7dd6d404.Emscripten.clang"
  },
  "schemaVersion": "3.4.13",
  "updatedAt": "2023-07-19T19:20:26.036Z",
  "networkType": "ethereum",
  "devdoc": {
    "kind": "dev",
    "methods": {},
    "version": 1
  },
  "userdoc": {
    "events": {
      "NewGame(address,address,bool)": {
        "notice": "EVENTS///"
      }
    },
    "kind": "user",
    "methods": {
      "createGame(bool)": {
        "notice": "FUNCTIONS///"
      }
    },
    "version": 1
  }
}