{
  "contractName": "Game",
  "abi": [
    {
      "inputs": [
        {
          "internalType": "address",
          "name": "_owner",
          "type": "address"
        },
        {
          "internalType": "bool",
          "name": "_small",
          "type": "bool"
        }
      ],
      "stateMutability": "nonpayable",
      "type": "constructor"
    },
    {
      "anonymous": false,
      "inputs": [
        {
          "indexed": false,
          "internalType": "uint256",
          "name": "amount",
          "type": "uint256"
        }
      ],
      "name": "BetAgreed",
      "type": "event"
    },
    {
      "anonymous": false,
      "inputs": [
        {
          "indexed": true,
          "internalType": "address",
          "name": "player",
          "type": "address"
        },
        {
          "indexed": false,
          "internalType": "uint256",
          "name": "amount",
          "type": "uint256"
        }
      ],
      "name": "BetProposal",
      "type": "event"
    },
    {
      "anonymous": false,
      "inputs": [],
      "name": "BoardsCommitted",
      "type": "event"
    },
    {
      "anonymous": false,
      "inputs": [
        {
          "indexed": false,
          "internalType": "bool",
          "name": "small",
          "type": "bool"
        }
      ],
      "name": "DimensionSelected",
      "type": "event"
    },
    {
      "anonymous": false,
      "inputs": [],
      "name": "Forfait",
      "type": "event"
    },
    {
      "anonymous": false,
      "inputs": [],
      "name": "FundsDeposited",
      "type": "event"
    },
    {
      "anonymous": false,
      "inputs": [
        {
          "indexed": false,
          "internalType": "uint8",
          "name": "cell",
          "type": "uint8"
        }
      ],
      "name": "Hit",
      "type": "event"
    },
    {
      "anonymous": false,
      "inputs": [
        {
          "indexed": false,
          "internalType": "address",
          "name": "player",
          "type": "address"
        }
      ],
      "name": "PlayerAFK",
      "type": "event"
    },
    {
      "anonymous": false,
      "inputs": [
        {
          "indexed": true,
          "internalType": "address",
          "name": "player",
          "type": "address"
        },
        {
          "indexed": false,
          "internalType": "uint8",
          "name": "cell",
          "type": "uint8"
        }
      ],
      "name": "ShotTaken",
      "type": "event"
    },
    {
      "anonymous": false,
      "inputs": [
        {
          "indexed": false,
          "internalType": "address",
          "name": "player",
          "type": "address"
        }
      ],
      "name": "Winner",
      "type": "event"
    },
    {
      "anonymous": false,
      "inputs": [
        {
          "indexed": false,
          "internalType": "address",
          "name": "player",
          "type": "address"
        }
      ],
      "name": "WinnerVerified",
      "type": "event"
    },
    {
      "inputs": [],
      "name": "BOARD_Normal",
      "outputs": [
        {
          "internalType": "uint8",
          "name": "",
          "type": "uint8"
        }
      ],
      "stateMutability": "view",
      "type": "function"
    },
    {
      "inputs": [],
      "name": "BOARD_Small",
      "outputs": [
        {
          "internalType": "uint8",
          "name": "",
          "type": "uint8"
        }
      ],
      "stateMutability": "view",
      "type": "function"
    },
    {
      "inputs": [],
      "name": "FLEET_Normal",
      "outputs": [
        {
          "internalType": "uint8",
          "name": "",
          "type": "uint8"
        }
      ],
      "stateMutability": "view",
      "type": "function"
    },
    {
      "inputs": [],
      "name": "FLEET_Small",
      "outputs": [
        {
          "internalType": "uint8",
          "name": "",
          "type": "uint8"
        }
      ],
      "stateMutability": "view",
      "type": "function"
    },
    {
      "inputs": [],
      "name": "adversary",
      "outputs": [
        {
          "internalType": "address",
          "name": "",
          "type": "address"
        }
      ],
      "stateMutability": "view",
      "type": "function"
    },
    {
      "inputs": [],
      "name": "afk_timeout",
      "outputs": [
        {
          "internalType": "uint256",
          "name": "",
          "type": "uint256"
        }
      ],
      "stateMutability": "view",
      "type": "function"
    },
    {
      "inputs": [],
      "name": "bet",
      "outputs": [
        {
          "internalType": "uint256",
          "name": "",
          "type": "uint256"
        }
      ],
      "stateMutability": "view",
      "type": "function"
    },
    {
      "inputs": [
        {
          "internalType": "address",
          "name": "",
          "type": "address"
        }
      ],
      "name": "betsQueue",
      "outputs": [
        {
          "internalType": "uint256",
          "name": "",
          "type": "uint256"
        }
      ],
      "stateMutability": "view",
      "type": "function"
    },
    {
      "inputs": [],
      "name": "boardSize",
      "outputs": [
        {
          "internalType": "uint8",
          "name": "",
          "type": "uint8"
        }
      ],
      "stateMutability": "view",
      "type": "function"
    },
    {
      "inputs": [],
      "name": "fleetSize",
      "outputs": [
        {
          "internalType": "uint8",
          "name": "",
          "type": "uint8"
        }
      ],
      "stateMutability": "view",
      "type": "function"
    },
    {
      "inputs": [],
      "name": "gamePhase",
      "outputs": [
        {
          "internalType": "enum Game.Phase",
          "name": "",
          "type": "uint8"
        }
      ],
      "stateMutability": "view",
      "type": "function"
    },
    {
      "inputs": [],
      "name": "owner",
      "outputs": [
        {
          "internalType": "address",
          "name": "",
          "type": "address"
        }
      ],
      "stateMutability": "view",
      "type": "function"
    },
    {
      "inputs": [],
      "name": "turn",
      "outputs": [
        {
          "internalType": "address",
          "name": "",
          "type": "address"
        }
      ],
      "stateMutability": "view",
      "type": "function"
    },
    {
      "inputs": [],
      "name": "winner",
      "outputs": [
        {
          "internalType": "address",
          "name": "",
          "type": "address"
        }
      ],
      "stateMutability": "view",
      "type": "function"
    },
    {
      "inputs": [
        {
          "internalType": "address",
          "name": "_adversary",
          "type": "address"
        }
      ],
      "name": "matchJoin",
      "outputs": [],
      "stateMutability": "nonpayable",
      "type": "function"
    },
    {
      "inputs": [
        {
          "internalType": "uint256",
          "name": "_amount",
          "type": "uint256"
        }
      ],
      "name": "proposeBet",
      "outputs": [],
      "stateMutability": "nonpayable",
      "type": "function"
    },
    {
      "inputs": [
        {
          "internalType": "uint256",
          "name": "_amount",
          "type": "uint256"
        }
      ],
      "name": "acceptBet",
      "outputs": [],
      "stateMutability": "nonpayable",
      "type": "function"
    },
    {
      "inputs": [],
      "name": "betFunds",
      "outputs": [],
      "stateMutability": "payable",
      "type": "function"
    },
    {
      "inputs": [],
      "name": "forfait",
      "outputs": [],
      "stateMutability": "nonpayable",
      "type": "function"
    },
    {
      "inputs": [
        {
          "internalType": "bytes32",
          "name": "_board",
          "type": "bytes32"
        }
      ],
      "name": "commitBoard",
      "outputs": [],
      "stateMutability": "nonpayable",
      "type": "function"
    },
    {
      "inputs": [
        {
          "internalType": "address",
          "name": "_player",
          "type": "address"
        }
      ],
      "name": "getShotsTaken",
      "outputs": [
        {
          "components": [
            {
              "internalType": "uint8",
              "name": "index",
              "type": "uint8"
            },
            {
              "internalType": "enum Game.ShotState",
              "name": "state",
              "type": "uint8"
            }
          ],
          "internalType": "struct Game.Shot[]",
          "name": "",
          "type": "tuple[]"
        }
      ],
      "stateMutability": "view",
      "type": "function"
    },
    {
      "inputs": [
        {
          "internalType": "uint8",
          "name": "_index",
          "type": "uint8"
        }
      ],
      "name": "attack",
      "outputs": [],
      "stateMutability": "nonpayable",
      "type": "function"
    },
    {
      "inputs": [
        {
          "internalType": "bool",
          "name": "_isShip",
          "type": "bool"
        },
        {
          "internalType": "uint256",
          "name": "_salt",
          "type": "uint256"
        },
        {
          "internalType": "uint8",
          "name": "_index",
          "type": "uint8"
        },
        {
          "internalType": "bytes32[]",
          "name": "_proof",
          "type": "bytes32[]"
        },
        {
          "internalType": "uint8",
          "name": "_attackIndex",
          "type": "uint8"
        }
      ],
      "name": "checkAndAttack",
      "outputs": [],
      "stateMutability": "nonpayable",
      "type": "function"
    },
    {
      "inputs": [
        {
          "internalType": "bytes32[]",
          "name": "_proof",
          "type": "bytes32[]"
        },
        {
          "internalType": "bool[]",
          "name": "_proofFlags",
          "type": "bool[]"
        },
        {
          "internalType": "bool[]",
          "name": "_cells",
          "type": "bool[]"
        },
        {
          "internalType": "uint256[]",
          "name": "_salts",
          "type": "uint256[]"
        },
        {
          "internalType": "uint8[]",
          "name": "_indexes",
          "type": "uint8[]"
        }
      ],
      "name": "checkWinnerBoard",
      "outputs": [],
      "stateMutability": "nonpayable",
      "type": "function"
    },
    {
      "inputs": [],
      "name": "withdraw",
      "outputs": [],
      "stateMutability": "nonpayable",
      "type": "function"
    },
    {
      "inputs": [],
      "name": "reportAFK",
      "outputs": [],
      "stateMutability": "nonpayable",
      "type": "function"
    },
    {
      "inputs": [],
      "name": "verifyAFK",
      "outputs": [],
      "stateMutability": "nonpayable",
      "type": "function"
    }
  ],
  "bytecode": "0x60806040523480156200001157600080fd5b506040516200472038038062004720833981810160405281019062000037919062000214565b81600160026101000a81548173ffffffffffffffffffffffffffffffffffffffff021916908373ffffffffffffffffffffffffffffffffffffffff160217905550806200009f576040600160006101000a81548160ff021916908360ff1602179055620000bb565b6010600160006101000a81548160ff021916908360ff16021790555b5080620000e257600a6001806101000a81548160ff021916908360ff1602179055620000fd565b60056001806101000a81548160ff021916908360ff16021790555b506000600760146101000a81548160ff021916908360068111156200012757620001266200025b565b5b02179055507f2ed32fef419990048899fb76d9c3c710ad99dc18911f08a69a3a85807c636673816040516200015d91906200029b565b60405180910390a15050620002b8565b600080fd5b600073ffffffffffffffffffffffffffffffffffffffff82169050919050565b60006200019f8262000172565b9050919050565b620001b18162000192565b8114620001bd57600080fd5b50565b600081519050620001d181620001a6565b92915050565b60008115159050919050565b620001ee81620001d7565b8114620001fa57600080fd5b50565b6000815190506200020e81620001e3565b92915050565b600080604083850312156200022e576200022d6200016d565b5b60006200023e85828601620001c0565b92505060206200025185828601620001fd565b9150509250929050565b7f4e487b7100000000000000000000000000000000000000000000000000000000600052602160045260246000fd5b6200029581620001d7565b82525050565b6000602082019050620002b260008301846200028a565b92915050565b61445880620002c86000396000f3fe60806040526004361061019c5760003560e01c8063a562ea3b116100ec578063e35d284b1161008a578063ea66144a11610064578063ea66144a14610527578063f5126b6b14610550578063f87a63001461057b578063fadca01e146105a65761019c565b8063e35d284b14610496578063e65e8492146104c1578063e75e0e5b146104fe5761019c565b8063cc12f58e116100c6578063cc12f58e14610400578063d43faafd1461042b578063dfbf53ae14610454578063e25387e41461047f5761019c565b8063a562ea3b14610395578063bcc9f3e6146103ac578063c51d69f4146103d55761019c565b80633ccfd60b116101595780638b299903116101335780638b299903146102fd5780638b80aac4146103285780638da5cb5b14610353578063980202d11461037e5761019c565b80633ccfd60b14610292578063577c87cb146102a95780636c0c27e1146102d45761019c565b806311610c25146101a15780631999eca8146101cc5780631bb565d6146101f55780631c253fd2146102205780631e20ddab1461025d5780633951be8714610267575b600080fd5b3480156101ad57600080fd5b506101b66105cf565b6040516101c391906134d7565b60405180910390f35b3480156101d857600080fd5b506101f360048036038101906101ee919061353f565b6105d5565b005b34801561020157600080fd5b5061020a61067b565b60405161021791906134d7565b60405180910390f35b34801561022c57600080fd5b50610247600480360381019061024291906135ca565b610681565b60405161025491906134d7565b60405180910390f35b610265610699565b005b34801561027357600080fd5b5061027c61099f565b604051610289919061366e565b60405180910390f35b34801561029e57600080fd5b506102a76109b2565b005b3480156102b557600080fd5b506102be610abf565b6040516102cb9190613698565b60405180910390f35b3480156102e057600080fd5b506102fb60048036038101906102f691906136df565b610ac4565b005b34801561030957600080fd5b50610312610def565b60405161031f919061371b565b60405180910390f35b34801561033457600080fd5b5061033d610e15565b60405161034a919061371b565b60405180910390f35b34801561035f57600080fd5b50610368610e3b565b604051610375919061371b565b60405180910390f35b34801561038a57600080fd5b50610393610e61565b005b3480156103a157600080fd5b506103aa611050565b005b3480156103b857600080fd5b506103d360048036038101906103ce9190613b46565b6114b6565b005b3480156103e157600080fd5b506103ea61170d565b6040516103f79190613698565b60405180910390f35b34801561040c57600080fd5b50610415611720565b6040516104229190613698565b60405180910390f35b34801561043757600080fd5b50610452600480360381019061044d91906136df565b611725565b005b34801561046057600080fd5b506104696118ac565b604051610476919061371b565b60405180910390f35b34801561048b57600080fd5b506104946118d2565b005b3480156104a257600080fd5b506104ab611b1a565b6040516104b89190613698565b60405180910390f35b3480156104cd57600080fd5b506104e860048036038101906104e391906135ca565b611b1f565b6040516104f59190613d82565b60405180910390f35b34801561050a57600080fd5b5061052560048036038101906105209190613da4565b611c14565b005b34801561053357600080fd5b5061054e60048036038101906105499190613e3b565b61245f565b005b34801561055c57600080fd5b506105656129e0565b6040516105729190613698565b60405180910390f35b34801561058757600080fd5b506105906129e5565b60405161059d9190613698565b60405180910390f35b3480156105b257600080fd5b506105cd60048036038101906105c891906135ca565b6129f6565b005b60055481565b600460068111156105e9576105e86135f7565b5b600760149054906101000a900460ff16600681111561060b5761060a6135f7565b5b1461061557600080fd5b600660009054906101000a900473ffffffffffffffffffffffffffffffffffffffff1673ffffffffffffffffffffffffffffffffffffffff163373ffffffffffffffffffffffffffffffffffffffff161461066f57600080fd5b61067881612b36565b50565b60005481565b60046020528060005260406000206000915090505481565b600160029054906101000a900473ffffffffffffffffffffffffffffffffffffffff1673ffffffffffffffffffffffffffffffffffffffff163373ffffffffffffffffffffffffffffffffffffffff1614806107425750600260009054906101000a900473ffffffffffffffffffffffffffffffffffffffff1673ffffffffffffffffffffffffffffffffffffffff163373ffffffffffffffffffffffffffffffffffffffff16145b61074b57600080fd5b60011515600360003373ffffffffffffffffffffffffffffffffffffffff1673ffffffffffffffffffffffffffffffffffffffff16815260200190815260200160002060000160019054906101000a900460ff161515036107ab57600080fd5b600260068111156107bf576107be6135f7565b5b600760149054906101000a900460ff1660068111156107e1576107e06135f7565b5b146107eb57600080fd5b60055434146107f957600080fd5b6001600360003373ffffffffffffffffffffffffffffffffffffffff1673ffffffffffffffffffffffffffffffffffffffff16815260200190815260200160002060000160016101000a81548160ff02191690831515021790555060036000600160029054906101000a900473ffffffffffffffffffffffffffffffffffffffff1673ffffffffffffffffffffffffffffffffffffffff1673ffffffffffffffffffffffffffffffffffffffff16815260200190815260200160002060000160019054906101000a900460ff168015610940575060036000600260009054906101000a900473ffffffffffffffffffffffffffffffffffffffff1673ffffffffffffffffffffffffffffffffffffffff1673ffffffffffffffffffffffffffffffffffffffff16815260200190815260200160002060000160019054906101000a900460ff165b1561099d577fd2d72fde7537c550b5e85eabb70a65949c78bb66328f56c78ddc8251950a994160405160405180910390a16003600760146101000a81548160ff02191690836006811115610997576109966135f7565b5b02179055505b565b600760149054906101000a900460ff1681565b6006808111156109c5576109c46135f7565b5b600760149054906101000a900460ff1660068111156109e7576109e66135f7565b5b146109f157600080fd5b600760009054906101000a900473ffffffffffffffffffffffffffffffffffffffff1673ffffffffffffffffffffffffffffffffffffffff163373ffffffffffffffffffffffffffffffffffffffff1614610a4b57600080fd5b6006600760146101000a81548160ff02191690836006811115610a7157610a706135f7565b5b02179055503373ffffffffffffffffffffffffffffffffffffffff166108fc479081150290604051600060405180830381858888f19350505050158015610abc573d6000803e3d6000fd5b50565b601081565b600160029054906101000a900473ffffffffffffffffffffffffffffffffffffffff1673ffffffffffffffffffffffffffffffffffffffff163373ffffffffffffffffffffffffffffffffffffffff161480610b6d5750600260009054906101000a900473ffffffffffffffffffffffffffffffffffffffff1673ffffffffffffffffffffffffffffffffffffffff163373ffffffffffffffffffffffffffffffffffffffff16145b610b7657600080fd5b60016006811115610b8a57610b896135f7565b5b600760149054906101000a900460ff166006811115610bac57610bab6135f7565b5b14610bb657600080fd5b60008114158015610d445750600160029054906101000a900473ffffffffffffffffffffffffffffffffffffffff1673ffffffffffffffffffffffffffffffffffffffff163373ffffffffffffffffffffffffffffffffffffffff16148015610c7f57508060046000600260009054906101000a900473ffffffffffffffffffffffffffffffffffffffff1673ffffffffffffffffffffffffffffffffffffffff1673ffffffffffffffffffffffffffffffffffffffff16815260200190815260200160002054145b80610d435750600260009054906101000a900473ffffffffffffffffffffffffffffffffffffffff1673ffffffffffffffffffffffffffffffffffffffff163373ffffffffffffffffffffffffffffffffffffffff16148015610d4257508060046000600160029054906101000a900473ffffffffffffffffffffffffffffffffffffffff1673ffffffffffffffffffffffffffffffffffffffff1673ffffffffffffffffffffffffffffffffffffffff16815260200190815260200160002054145b5b5b610d83576040517f08c379a0000000000000000000000000000000000000000000000000000000008152600401610d7a90613eeb565b60405180910390fd5b806005819055506002600760146101000a81548160ff02191690836006811115610db057610daf6135f7565b5b02179055507f50ac8120affab45c80b99be15eba8c23598651f799d4ad1c2e0c91f92e7e23b181604051610de491906134d7565b60405180910390a150565b600660009054906101000a900473ffffffffffffffffffffffffffffffffffffffff1681565b600260009054906101000a900473ffffffffffffffffffffffffffffffffffffffff1681565b600160029054906101000a900473ffffffffffffffffffffffffffffffffffffffff1681565b600160029054906101000a900473ffffffffffffffffffffffffffffffffffffffff1673ffffffffffffffffffffffffffffffffffffffff163373ffffffffffffffffffffffffffffffffffffffff161480610f0a5750600260009054906101000a900473ffffffffffffffffffffffffffffffffffffffff1673ffffffffffffffffffffffffffffffffffffffff163373ffffffffffffffffffffffffffffffffffffffff16145b610f1357600080fd5b60011515600360003373ffffffffffffffffffffffffffffffffffffffff1673ffffffffffffffffffffffffffffffffffffffff16815260200190815260200160002060000160019054906101000a900460ff16151514610f7357600080fd5b6000600160029054906101000a900473ffffffffffffffffffffffffffffffffffffffff1673ffffffffffffffffffffffffffffffffffffffff163373ffffffffffffffffffffffffffffffffffffffff1614610ff257600160029054906101000a900473ffffffffffffffffffffffffffffffffffffffff16611016565b600260009054906101000a900473ffffffffffffffffffffffffffffffffffffffff165b90507f6c9cf2445bc4d4b02c43eb0924c873077e36d28844f81ffc0111f037d6ce801960405160405180910390a161104d81612ee5565b50565b600160029054906101000a900473ffffffffffffffffffffffffffffffffffffffff1673ffffffffffffffffffffffffffffffffffffffff163373ffffffffffffffffffffffffffffffffffffffff1614806110f95750600260009054906101000a900473ffffffffffffffffffffffffffffffffffffffff1673ffffffffffffffffffffffffffffffffffffffff163373ffffffffffffffffffffffffffffffffffffffff16145b61110257600080fd5b60036006811115611116576111156135f7565b5b600760149054906101000a900460ff166006811115611138576111376135f7565b5b1480611177575060046006811115611153576111526135f7565b5b600760149054906101000a900460ff166006811115611175576111746135f7565b5b145b61118057600080fd5b6000600160029054906101000a900473ffffffffffffffffffffffffffffffffffffffff1673ffffffffffffffffffffffffffffffffffffffff163373ffffffffffffffffffffffffffffffffffffffff16146111ff57600160029054906101000a900473ffffffffffffffffffffffffffffffffffffffff16611223565b600260009054906101000a900473ffffffffffffffffffffffffffffffffffffffff165b9050600360008273ffffffffffffffffffffffffffffffffffffffff1673ffffffffffffffffffffffffffffffffffffffff16815260200190815260200160002060000160009054906101000a900460ff161561127f57600080fd5b60036006811115611293576112926135f7565b5b600760149054906101000a900460ff1660068111156112b5576112b46135f7565b5b03611342576000801b600360008373ffffffffffffffffffffffffffffffffffffffff1673ffffffffffffffffffffffffffffffffffffffff1681526020019081526020016000206001015414611341576040517f08c379a000000000000000000000000000000000000000000000000000000000815260040161133890613f7d565b60405180910390fd5b5b60046006811115611356576113556135f7565b5b600760149054906101000a900460ff166006811115611378576113776135f7565b5b0361140e578073ffffffffffffffffffffffffffffffffffffffff16600660009054906101000a900473ffffffffffffffffffffffffffffffffffffffff1673ffffffffffffffffffffffffffffffffffffffff161461140d576040517f08c379a00000000000000000000000000000000000000000000000000000000081526004016114049061400f565b60405180910390fd5b5b7f1a57b5e70fad11389febe9938025db4c3ee52d0bde2fcf22527149b81444c2ca8160405161143d919061371b565b60405180910390a16001600360008373ffffffffffffffffffffffffffffffffffffffff1673ffffffffffffffffffffffffffffffffffffffff16815260200190815260200160002060000160006101000a81548160ff0219169083151502179055506005436114ad919061405e565b60008190555050565b600560068111156114ca576114c96135f7565b5b600760149054906101000a900460ff1660068111156114ec576114eb6135f7565b5b146114f657600080fd5b600760009054906101000a900473ffffffffffffffffffffffffffffffffffffffff1673ffffffffffffffffffffffffffffffffffffffff163373ffffffffffffffffffffffffffffffffffffffff161461155057600080fd5b815183511461155e57600080fd5b805183511461156c57600080fd5b6000600160029054906101000a900473ffffffffffffffffffffffffffffffffffffffff1673ffffffffffffffffffffffffffffffffffffffff163373ffffffffffffffffffffffffffffffffffffffff16146115eb57600160029054906101000a900473ffffffffffffffffffffffffffffffffffffffff1661160f565b600260009054906101000a900473ffffffffffffffffffffffffffffffffffffffff165b905060006116638787878787600360003373ffffffffffffffffffffffffffffffffffffffff1673ffffffffffffffffffffffffffffffffffffffff16815260200190815260200160002060010154612f8b565b6116775761167082612ee5565b5050611706565b60018054906101000a900460ff1660ff16600360008473ffffffffffffffffffffffffffffffffffffffff1673ffffffffffffffffffffffffffffffffffffffff16815260200190815260200160002060020160009054906101000a900460ff16826116e39190614092565b60ff16036116f9576116f433612ee5565b611703565b61170282612ee5565b5b50505b5050505050565b600160009054906101000a900460ff1681565b604081565b600160029054906101000a900473ffffffffffffffffffffffffffffffffffffffff1673ffffffffffffffffffffffffffffffffffffffff163373ffffffffffffffffffffffffffffffffffffffff1614806117ce5750600260009054906101000a900473ffffffffffffffffffffffffffffffffffffffff1673ffffffffffffffffffffffffffffffffffffffff163373ffffffffffffffffffffffffffffffffffffffff16145b6117d757600080fd5b600160068111156117eb576117ea6135f7565b5b600760149054906101000a900460ff16600681111561180d5761180c6135f7565b5b1461181757600080fd5b80600460003373ffffffffffffffffffffffffffffffffffffffff1673ffffffffffffffffffffffffffffffffffffffff168152602001908152602001600020819055503373ffffffffffffffffffffffffffffffffffffffff167f4a8a2c0cf89add878b8fd9d1a4868d4b9536b6cbedec55c1b1eb3a5fa4cfdca2826040516118a191906134d7565b60405180910390a250565b600760009054906101000a900473ffffffffffffffffffffffffffffffffffffffff1681565b600160029054906101000a900473ffffffffffffffffffffffffffffffffffffffff1673ffffffffffffffffffffffffffffffffffffffff163373ffffffffffffffffffffffffffffffffffffffff16148061197b5750600260009054906101000a900473ffffffffffffffffffffffffffffffffffffffff1673ffffffffffffffffffffffffffffffffffffffff163373ffffffffffffffffffffffffffffffffffffffff16145b61198457600080fd5b60036006811115611998576119976135f7565b5b600760149054906101000a900460ff1660068111156119ba576119b96135f7565b5b14806119f95750600460068111156119d5576119d46135f7565b5b600760149054906101000a900460ff1660068111156119f7576119f66135f7565b5b145b611a0257600080fd5b6000600160029054906101000a900473ffffffffffffffffffffffffffffffffffffffff1673ffffffffffffffffffffffffffffffffffffffff163373ffffffffffffffffffffffffffffffffffffffff1614611a8157600160029054906101000a900473ffffffffffffffffffffffffffffffffffffffff16611aa5565b600260009054906101000a900473ffffffffffffffffffffffffffffffffffffffff165b9050600360008273ffffffffffffffffffffffffffffffffffffffff1673ffffffffffffffffffffffffffffffffffffffff16815260200190815260200160002060000160009054906101000a900460ff168015611b0557506000544310155b611b0e57600080fd5b611b1733612ee5565b50565b600a81565b6060600360008373ffffffffffffffffffffffffffffffffffffffff1673ffffffffffffffffffffffffffffffffffffffff168152602001908152602001600020600301805480602002602001604051908101604052809291908181526020016000905b82821015611c09578382906000526020600020016040518060400160405290816000820160009054906101000a900460ff1660ff1660ff1681526020016000820160019054906101000a900460ff166002811115611be457611be36135f7565b5b6002811115611bf657611bf56135f7565b5b8152505081526020019060010190611b83565b505050509050919050565b60046006811115611c2857611c276135f7565b5b600760149054906101000a900460ff166006811115611c4a57611c496135f7565b5b14611c5457600080fd5b600660009054906101000a900473ffffffffffffffffffffffffffffffffffffffff1673ffffffffffffffffffffffffffffffffffffffff163373ffffffffffffffffffffffffffffffffffffffff1614611cae57600080fd5b6000600160029054906101000a900473ffffffffffffffffffffffffffffffffffffffff1673ffffffffffffffffffffffffffffffffffffffff163373ffffffffffffffffffffffffffffffffffffffff1614611d2d57600160029054906101000a900473ffffffffffffffffffffffffffffffffffffffff16611d51565b600260009054906101000a900473ffffffffffffffffffffffffffffffffffffffff165b9050600360003373ffffffffffffffffffffffffffffffffffffffff1673ffffffffffffffffffffffffffffffffffffffff16815260200190815260200160002060000160009054906101000a900460ff1615611e845760005443108015611e055750600360003373ffffffffffffffffffffffffffffffffffffffff1673ffffffffffffffffffffffffffffffffffffffff16815260200190815260200160002060000160009054906101000a900460ff165b15611e6a576000600360003373ffffffffffffffffffffffffffffffffffffffff1673ffffffffffffffffffffffffffffffffffffffff16815260200190815260200160002060000160006101000a81548160ff021916908315150217905550611e83565b6000544310611e8257611e7c81612ee5565b50612458565b5b5b6000600160029054906101000a900473ffffffffffffffffffffffffffffffffffffffff1673ffffffffffffffffffffffffffffffffffffffff163373ffffffffffffffffffffffffffffffffffffffff1614611f0357600160029054906101000a900473ffffffffffffffffffffffffffffffffffffffff16611f27565b600260009054906101000a900473ffffffffffffffffffffffffffffffffffffffff165b905060006001600360008473ffffffffffffffffffffffffffffffffffffffff1673ffffffffffffffffffffffffffffffffffffffff16815260200190815260200160002060030180549050611f7d91906140c7565b905060006002811115611f9357611f926135f7565b5b600360008473ffffffffffffffffffffffffffffffffffffffff1673ffffffffffffffffffffffffffffffffffffffff1681526020019081526020016000206003018281548110611fe757611fe66140fb565b5b9060005260206000200160000160019054906101000a900460ff166002811115612014576120136135f7565b5b146120225761202161412a565b5b8560ff16600360008473ffffffffffffffffffffffffffffffffffffffff1673ffffffffffffffffffffffffffffffffffffffff168152602001908152602001600020600301828154811061207a576120796140fb565b5b9060005260206000200160000160009054906101000a900460ff1660ff16146120a257600080fd5b6120f188888888600360003373ffffffffffffffffffffffffffffffffffffffff1673ffffffffffffffffffffffffffffffffffffffff1681526020019081526020016000206001015461308b565b61219f577fe48a335438ec9cf1059d7b134553ca861398a18d023bd34b9e4d956f5f7ba00482604051612124919061371b565b60405180910390a16005600760146101000a81548160ff02191690836006811115612152576121516135f7565b5b021790555081600760006101000a81548173ffffffffffffffffffffffffffffffffffffffff021916908373ffffffffffffffffffffffffffffffffffffffff1602179055505050612456565b87156123bf576001600360008473ffffffffffffffffffffffffffffffffffffffff1673ffffffffffffffffffffffffffffffffffffffff16815260200190815260200160002060030182815481106121fb576121fa6140fb565b5b9060005260206000200160000160016101000a81548160ff0219169083600281111561222a576122296135f7565b5b0217905550600360003373ffffffffffffffffffffffffffffffffffffffff1673ffffffffffffffffffffffffffffffffffffffff168152602001908152602001600020600201600081819054906101000a900460ff168092919061228e90614159565b91906101000a81548160ff021916908360ff1602179055505060018054906101000a900460ff1660ff16600360003373ffffffffffffffffffffffffffffffffffffffff1673ffffffffffffffffffffffffffffffffffffffff16815260200190815260200160002060020160009054906101000a900460ff1660ff16036123ba5781600760006101000a81548173ffffffffffffffffffffffffffffffffffffffff021916908373ffffffffffffffffffffffffffffffffffffffff1602179055506005600760146101000a81548160ff02191690836006811115612377576123766135f7565b5b02179055507f745c90b656b4aafe296c8ca35aeacfe56cb96c90e1d320e5da643fff1051b6c0826040516123ab919061371b565b60405180910390a15050612456565b61244a565b6002600360008473ffffffffffffffffffffffffffffffffffffffff1673ffffffffffffffffffffffffffffffffffffffff1681526020019081526020016000206003018281548110612415576124146140fb565b5b9060005260206000200160000160016101000a81548160ff02191690836002811115612444576124436135f7565b5b02179055505b61245384612b36565b50505b505b5050505050565b600160029054906101000a900473ffffffffffffffffffffffffffffffffffffffff1673ffffffffffffffffffffffffffffffffffffffff163373ffffffffffffffffffffffffffffffffffffffff1614806125085750600260009054906101000a900473ffffffffffffffffffffffffffffffffffffffff1673ffffffffffffffffffffffffffffffffffffffff163373ffffffffffffffffffffffffffffffffffffffff16145b61251157600080fd5b6000600160029054906101000a900473ffffffffffffffffffffffffffffffffffffffff1673ffffffffffffffffffffffffffffffffffffffff163373ffffffffffffffffffffffffffffffffffffffff161461259057600160029054906101000a900473ffffffffffffffffffffffffffffffffffffffff166125b4565b600260009054906101000a900473ffffffffffffffffffffffffffffffffffffffff165b9050600360003373ffffffffffffffffffffffffffffffffffffffff1673ffffffffffffffffffffffffffffffffffffffff16815260200190815260200160002060000160009054906101000a900460ff16156126e757600054431080156126685750600360003373ffffffffffffffffffffffffffffffffffffffff1673ffffffffffffffffffffffffffffffffffffffff16815260200190815260200160002060000160009054906101000a900460ff165b156126cd576000600360003373ffffffffffffffffffffffffffffffffffffffff1673ffffffffffffffffffffffffffffffffffffffff16815260200190815260200160002060000160006101000a81548160ff0219169083151502179055506126e6565b60005443106126e5576126df81612ee5565b506129dd565b5b5b600360068111156126fb576126fa6135f7565b5b600760149054906101000a900460ff16600681111561271d5761271c6135f7565b5b1461272757600080fd5b6000801b600360003373ffffffffffffffffffffffffffffffffffffffff1673ffffffffffffffffffffffffffffffffffffffff168152602001908152602001600020600101541461277857600080fd5b81600360003373ffffffffffffffffffffffffffffffffffffffff1673ffffffffffffffffffffffffffffffffffffffff168152602001908152602001600020600101819055506000801b60036000600160029054906101000a900473ffffffffffffffffffffffffffffffffffffffff1673ffffffffffffffffffffffffffffffffffffffff1673ffffffffffffffffffffffffffffffffffffffff168152602001908152602001600020600101541415801561289d57506000801b60036000600260009054906101000a900473ffffffffffffffffffffffffffffffffffffffff1673ffffffffffffffffffffffffffffffffffffffff1673ffffffffffffffffffffffffffffffffffffffff1681526020019081526020016000206001015414155b156129db577f48c0ac148c6adb019cea448b4b78c69778a7b6abdfadce9a6acdc8b983e94bee60405160405180910390a1600060036000600160029054906101000a900473ffffffffffffffffffffffffffffffffffffffff1673ffffffffffffffffffffffffffffffffffffffff1673ffffffffffffffffffffffffffffffffffffffff16815260200190815260200160002060020160006101000a81548160ff021916908360ff1602179055506004600760146101000a81548160ff02191690836006811115612972576129716135f7565b5b0217905550600260009054906101000a900473ffffffffffffffffffffffffffffffffffffffff16600660006101000a81548173ffffffffffffffffffffffffffffffffffffffff021916908373ffffffffffffffffffffffffffffffffffffffff1602179055505b505b50565b600581565b60018054906101000a900460ff1681565b60006006811115612a0a57612a096135f7565b5b600760149054906101000a900460ff166006811115612a2c57612a2b6135f7565b5b14612a3657600080fd5b600073ffffffffffffffffffffffffffffffffffffffff16600260009054906101000a900473ffffffffffffffffffffffffffffffffffffffff1673ffffffffffffffffffffffffffffffffffffffff1614612ac7576040517f08c379a0000000000000000000000000000000000000000000000000000000008152600401612abe906141ce565b60405180910390fd5b80600260006101000a81548173ffffffffffffffffffffffffffffffffffffffff021916908373ffffffffffffffffffffffffffffffffffffffff1602179055506001600760146101000a81548160ff02191690836006811115612b2e57612b2d6135f7565b5b021790555050565b60001515600360003373ffffffffffffffffffffffffffffffffffffffff1673ffffffffffffffffffffffffffffffffffffffff16815260200190815260200160002060040160008360ff1660ff16815260200190815260200160002060009054906101000a900460ff16151514612be3576040517f08c379a0000000000000000000000000000000000000000000000000000000008152600401612bda9061423a565b60405180910390fd5b600160009054906101000a900460ff1660ff168160ff1610612c3a576040517f08c379a0000000000000000000000000000000000000000000000000000000008152600401612c31906142cc565b60405180910390fd5b6001600360003373ffffffffffffffffffffffffffffffffffffffff1673ffffffffffffffffffffffffffffffffffffffff16815260200190815260200160002060040160008360ff1660ff16815260200190815260200160002060006101000a81548160ff021916908315150217905550600360003373ffffffffffffffffffffffffffffffffffffffff1673ffffffffffffffffffffffffffffffffffffffff16815260200190815260200160002060030160405180604001604052808360ff16815260200160006002811115612d1657612d156135f7565b5b8152509080600181540180825580915050600190039060005260206000200160009091909190915060008201518160000160006101000a81548160ff021916908360ff16021790555060208201518160000160016101000a81548160ff02191690836002811115612d8a57612d896135f7565b5b021790555050503373ffffffffffffffffffffffffffffffffffffffff167f665e09da1c684bb4ada2b5c04fe0bb20328ca455aae1928734e0a40dcf0e099e82604051612dd79190613698565b60405180910390a2600160029054906101000a900473ffffffffffffffffffffffffffffffffffffffff1673ffffffffffffffffffffffffffffffffffffffff16600660009054906101000a900473ffffffffffffffffffffffffffffffffffffffff1673ffffffffffffffffffffffffffffffffffffffff1614612e7e57600160029054906101000a900473ffffffffffffffffffffffffffffffffffffffff16612ea2565b600260009054906101000a900473ffffffffffffffffffffffffffffffffffffffff165b600660006101000a81548173ffffffffffffffffffffffffffffffffffffffff021916908373ffffffffffffffffffffffffffffffffffffffff16021790555050565b7fe48a335438ec9cf1059d7b134553ca861398a18d023bd34b9e4d956f5f7ba00481604051612f14919061371b565b60405180910390a180600760006101000a81548173ffffffffffffffffffffffffffffffffffffffff021916908373ffffffffffffffffffffffffffffffffffffffff1602179055506006600760146101000a81548160ff02191690836006811115612f8357612f826135f7565b5b021790555050565b600080855167ffffffffffffffff811115612fa957612fa861374c565b5b604051908082528060200260200182016040528015612fd75781602001602082028036833780820191505090505b50905060005b86518110156130715761303f878281518110612ffc57612ffb6140fb565b5b6020026020010151878381518110613017576130166140fb565b5b6020026020010151878481518110613032576130316140fb565b5b60200260200101516130b2565b828281518110613052576130516140fb565b5b6020026020010181815250508080613069906142ec565b915050612fdd565b5061307e8888858461310e565b9150509695505050505050565b6000806130998787876130b2565b90506130a6848483613127565b91505095945050505050565b60008383836040516020016130c993929190614343565b604051602081830303815290604052805190602001206040516020016130ef919061439b565b6040516020818303038152906040528051906020012090509392505050565b60008261311c86868561313e565b149050949350505050565b6000826131348584613426565b1490509392505050565b600080825190506000855190506000855190508060018385613160919061405e565b61316a91906140c7565b146131aa576040517f08c379a00000000000000000000000000000000000000000000000000000000081526004016131a190614402565b60405180910390fd5b60008167ffffffffffffffff8111156131c6576131c561374c565b5b6040519080825280602002602001820160405280156131f45781602001602082028036833780820191505090505b5090506000806000805b8581101561334e57600088851061323b5785848061321b906142ec565b95508151811061322e5761322d6140fb565b5b6020026020010151613263565b8a8580613247906142ec565b96508151811061325a576132596140fb565b5b60200260200101515b905060008c838151811061327a576132796140fb565b5b60200260200101516132b2578d8480613292906142ec565b9550815181106132a5576132a46140fb565b5b602002602001015161330e565b8986106132e5578685806132c5906142ec565b9650815181106132d8576132d76140fb565b5b602002602001015161330d565b8b86806132f1906142ec565b975081518110613304576133036140fb565b5b60200260200101515b5b905061331a828261347c565b87848151811061332d5761332c6140fb565b5b60200260200101818152505050508080613346906142ec565b9150506131fe565b5060008511156133c65785811461339a576040517f08c379a000000000000000000000000000000000000000000000000000000000815260040161339190614402565b60405180910390fd5b8360018603815181106133b0576133af6140fb565b5b602002602001015197505050505050505061341f565b60008711156133f957886000815181106133e3576133e26140fb565b5b602002602001015197505050505050505061341f565b8a60008151811061340d5761340c6140fb565b5b60200260200101519750505050505050505b9392505050565b60008082905060005b84518110156134715761345c8286838151811061344f5761344e6140fb565b5b602002602001015161347c565b91508080613469906142ec565b91505061342f565b508091505092915050565b60008183106134945761348f82846134a7565b61349f565b61349e83836134a7565b5b905092915050565b600082600052816020526040600020905092915050565b6000819050919050565b6134d1816134be565b82525050565b60006020820190506134ec60008301846134c8565b92915050565b6000604051905090565b600080fd5b600080fd5b600060ff82169050919050565b61351c81613506565b811461352757600080fd5b50565b60008135905061353981613513565b92915050565b600060208284031215613555576135546134fc565b5b60006135638482850161352a565b91505092915050565b600073ffffffffffffffffffffffffffffffffffffffff82169050919050565b60006135978261356c565b9050919050565b6135a78161358c565b81146135b257600080fd5b50565b6000813590506135c48161359e565b92915050565b6000602082840312156135e0576135df6134fc565b5b60006135ee848285016135b5565b91505092915050565b7f4e487b7100000000000000000000000000000000000000000000000000000000600052602160045260246000fd5b60078110613637576136366135f7565b5b50565b600081905061364882613626565b919050565b60006136588261363a565b9050919050565b6136688161364d565b82525050565b6000602082019050613683600083018461365f565b92915050565b61369281613506565b82525050565b60006020820190506136ad6000830184613689565b92915050565b6136bc816134be565b81146136c757600080fd5b50565b6000813590506136d9816136b3565b92915050565b6000602082840312156136f5576136f46134fc565b5b6000613703848285016136ca565b91505092915050565b6137158161358c565b82525050565b6000602082019050613730600083018461370c565b92915050565b600080fd5b6000601f19601f8301169050919050565b7f4e487b7100000000000000000000000000000000000000000000000000000000600052604160045260246000fd5b6137848261373b565b810181811067ffffffffffffffff821117156137a3576137a261374c565b5b80604052505050565b60006137b66134f2565b90506137c2828261377b565b919050565b600067ffffffffffffffff8211156137e2576137e161374c565b5b602082029050602081019050919050565b600080fd5b6000819050919050565b61380b816137f8565b811461381657600080fd5b50565b60008135905061382881613802565b92915050565b600061384161383c846137c7565b6137ac565b90508083825260208201905060208402830185811115613864576138636137f3565b5b835b8181101561388d57806138798882613819565b845260208401935050602081019050613866565b5050509392505050565b600082601f8301126138ac576138ab613736565b5b81356138bc84826020860161382e565b91505092915050565b600067ffffffffffffffff8211156138e0576138df61374c565b5b602082029050602081019050919050565b60008115159050919050565b613906816138f1565b811461391157600080fd5b50565b600081359050613923816138fd565b92915050565b600061393c613937846138c5565b6137ac565b9050808382526020820190506020840283018581111561395f5761395e6137f3565b5b835b8181101561398857806139748882613914565b845260208401935050602081019050613961565b5050509392505050565b600082601f8301126139a7576139a6613736565b5b81356139b7848260208601613929565b91505092915050565b600067ffffffffffffffff8211156139db576139da61374c565b5b602082029050602081019050919050565b60006139ff6139fa846139c0565b6137ac565b90508083825260208201905060208402830185811115613a2257613a216137f3565b5b835b81811015613a4b5780613a3788826136ca565b845260208401935050602081019050613a24565b5050509392505050565b600082601f830112613a6a57613a69613736565b5b8135613a7a8482602086016139ec565b91505092915050565b600067ffffffffffffffff821115613a9e57613a9d61374c565b5b602082029050602081019050919050565b6000613ac2613abd84613a83565b6137ac565b90508083825260208201905060208402830185811115613ae557613ae46137f3565b5b835b81811015613b0e5780613afa888261352a565b845260208401935050602081019050613ae7565b5050509392505050565b600082601f830112613b2d57613b2c613736565b5b8135613b3d848260208601613aaf565b91505092915050565b600080600080600060a08688031215613b6257613b616134fc565b5b600086013567ffffffffffffffff811115613b8057613b7f613501565b5b613b8c88828901613897565b955050602086013567ffffffffffffffff811115613bad57613bac613501565b5b613bb988828901613992565b945050604086013567ffffffffffffffff811115613bda57613bd9613501565b5b613be688828901613992565b935050606086013567ffffffffffffffff811115613c0757613c06613501565b5b613c1388828901613a55565b925050608086013567ffffffffffffffff811115613c3457613c33613501565b5b613c4088828901613b18565b9150509295509295909350565b600081519050919050565b600082825260208201905092915050565b6000819050602082019050919050565b613c8281613506565b82525050565b60038110613c9957613c986135f7565b5b50565b6000819050613caa82613c88565b919050565b6000613cba82613c9c565b9050919050565b613cca81613caf565b82525050565b604082016000820151613ce66000850182613c79565b506020820151613cf96020850182613cc1565b50505050565b6000613d0b8383613cd0565b60408301905092915050565b6000602082019050919050565b6000613d2f82613c4d565b613d398185613c58565b9350613d4483613c69565b8060005b83811015613d75578151613d5c8882613cff565b9750613d6783613d17565b925050600181019050613d48565b5085935050505092915050565b60006020820190508181036000830152613d9c8184613d24565b905092915050565b600080600080600060a08688031215613dc057613dbf6134fc565b5b6000613dce88828901613914565b9550506020613ddf888289016136ca565b9450506040613df08882890161352a565b935050606086013567ffffffffffffffff811115613e1157613e10613501565b5b613e1d88828901613897565b9250506080613e2e8882890161352a565b9150509295509295909350565b600060208284031215613e5157613e506134fc565b5b6000613e5f84828501613819565b91505092915050565b600082825260208201905092915050565b7f54686520616d6f756e742070726f706f736564206973206e6f742076616c696460008201527f2100000000000000000000000000000000000000000000000000000000000000602082015250565b6000613ed5602183613e68565b9150613ee082613e79565b604082019050919050565b60006020820190508181036000830152613f0481613ec8565b9050919050565b7f5468652067616d652069732077616974696e6720666f7220796f757220626f6160008201527f72642120596f752063616e2774207265706f7274206e6f772e00000000000000602082015250565b6000613f67603983613e68565b9150613f7282613f0b565b604082019050919050565b60006020820190508181036000830152613f9681613f5a565b9050919050565b7f497420697320796f7572207475726e2120596f752063616e2774207265706f7260008201527f74206e6f772e0000000000000000000000000000000000000000000000000000602082015250565b6000613ff9602683613e68565b915061400482613f9d565b604082019050919050565b6000602082019050818103600083015261402881613fec565b9050919050565b7f4e487b7100000000000000000000000000000000000000000000000000000000600052601160045260246000fd5b6000614069826134be565b9150614074836134be565b925082820190508082111561408c5761408b61402f565b5b92915050565b600061409d82613506565b91506140a883613506565b9250828201905060ff8111156140c1576140c061402f565b5b92915050565b60006140d2826134be565b91506140dd836134be565b92508282039050818111156140f5576140f461402f565b5b92915050565b7f4e487b7100000000000000000000000000000000000000000000000000000000600052603260045260246000fd5b7f4e487b7100000000000000000000000000000000000000000000000000000000600052600160045260246000fd5b600061416482613506565b915060ff82036141775761417661402f565b5b600182019050919050565b7f546869732067616d65206973206e6f7420617661696c61626c65210000000000600082015250565b60006141b8601b83613e68565b91506141c382614182565b602082019050919050565b600060208201905081810360008301526141e7816141ab565b9050919050565b7f596f75206861766520616c72656164792073686f7420746861742063656c6c00600082015250565b6000614224601f83613e68565b915061422f826141ee565b602082019050919050565b6000602082019050818103600083015261425381614217565b9050919050565b7f5468652073686f7420697320696e76616c696420666f7220746865206375727260008201527f656e74206d61702073697a652100000000000000000000000000000000000000602082015250565b60006142b6602d83613e68565b91506142c18261425a565b604082019050919050565b600060208201905081810360008301526142e5816142a9565b9050919050565b60006142f7826134be565b91507fffffffffffffffffffffffffffffffffffffffffffffffffffffffffffffffff82036143295761432861402f565b5b600182019050919050565b61433d816138f1565b82525050565b60006060820190506143586000830186614334565b61436560208301856134c8565b6143726040830184613689565b949350505050565b6000819050919050565b614395614390826137f8565b61437a565b82525050565b60006143a78284614384565b60208201915081905092915050565b7f4d65726b6c6550726f6f663a20696e76616c6964206d756c746970726f6f6600600082015250565b60006143ec601f83613e68565b91506143f7826143b6565b602082019050919050565b6000602082019050818103600083015261441b816143df565b905091905056fea26469706673582212209c6397fb7fb24a4df6f01cada5397928167ded9144a2ca8749913220fd403ed564736f6c63430008130033",
  "immutableReferences": {},
  "source": "// SPDX-License-Identifier: MIT\npragma solidity >=0.4.22 <0.9.0;\nimport \"@openzeppelin/contracts/utils/cryptography/MerkleProof.sol\";\n\ncontract Game{\n\n    // Field size, the game owner can choose to generate a normal or small (faster) match. \n    uint8 public constant BOARD_Small = 4*4;\n    uint8 public constant BOARD_Normal = 8*8;\n\n    // Fleet size, it is proportional to the game size.\n    uint8 public constant FLEET_Small = 5;\n    uint8 public constant FLEET_Normal = 10;\n\n    // Is the block number after which the player can be considered AFK.\n    uint public afk_timeout;\n\n    // Actual size of the game.\n    uint8 public boardSize;\n    uint8 public fleetSize;\n\n    /* \n    * Different shot state:\n    * Taken represent a shot which result is still not checked.\n    * Hit represent a shot that has hit a ship.\n    * Miss represent a shot that missed.\n    */\n    enum ShotState{\n        Taken,\n        Hit,\n        Miss\n    }\n\n    /* \n    * Shot structure:\n    * index represent the position on the board.\n    * state is the ShotState.\n    */\n    struct Shot{\n        uint8 index;\n        ShotState state;\n    }\n\n    /* \n    * afk is a boolean value taht represent if the player is reported as afk.\n    * Player structure:\n    * hasPaid represent if the player has funded.\n    * board is the merkle tree root of the merkle tree representing the board.\n    * hits is the number of ship the player has hit.\n    * shotsTaken and shotsTakenMap maps the shots taken so far by the player.\n    */\n    struct Player{\n        bool afk;\n        bool hasPaid;\n        bytes32 board;\n        uint8 hits;\n        Shot[] shotsTaken;\n        mapping(uint8 => bool) shotsTakenMap;\n    }\n\n    // Addresses of the two Players.\n    address public owner;\n    address public adversary;\n\n    // Mapping used to store all the information about the Players.\n    mapping(address => Player) players;\n\n    // Queue of all the proposed bets.\n    mapping(address => uint256) public betsQueue;\n\n    // Final agreement on the bet amount.\n    uint256 public bet;\n\n    // Current turn.\n    address public turn;\n\n    // Winner of the game.\n    address public winner;\n\n    /*Different phases of the game\n    * Waiting: game  successfully created and waiting for a second player to join.\n    * Betting: waiting for the two players to reach an agreement on the bet.\n    * Funding: waiting for the two player to deposit the bet amount.\n    * Placement: waiting for the two players to commit their board.\n    * Attack: the players shot a torpedo per turn .\n    * Winner: one of the player has hit all the opponent ships and is declared as winner.\n    * End: the game is terminated and the winner can withdraw the amount he has won.\n    */\n    enum Phase{\n        Waiting,\n        Betting,\n        Funding,\n        Placement,\n        Attack,\n        Winner,\n        End\n    }\n\n    // Current game phase\n    Phase public gamePhase;\n\n    ////////////\n    ///EVENTS///\n    ////////////\n\n    // Emitted when the game owner has selected the game size.\n    event DimensionSelected(bool small);\n\n    // Emitted when a player propos an amount as bet.\n    event BetProposal(address indexed player, uint256 amount);\n\n    // Emitted when players have agreed on the bet.\n    event BetAgreed(uint256 amount);\n\n    // Emitted when both players have deposited the agreed amount.\n    event FundsDeposited();\n\n    // Emitted when a player forfait.\n    event Forfait();\n\n    // Emitted when both players have committed their boards.\n    event BoardsCommitted();\n\n    // Informs the opponent that cell indexed by `cell` has been shot.\n    event ShotTaken(address indexed player, uint8 cell);\n\n    // Informs the opponent that the last shot was an hit.\n    event Hit(uint8 cell);\n\n    // Informs that the game has a winner.\n    event Winner(address player);\n\n    // Winner board has been correctly verified.\n    event WinnerVerified(address player);\n\n    // A player is reported as AFK\n    event PlayerAFK(address player);\n\n    ///////////////\n    ///MODIFIERS///\n    ///////////////\n\n    // Modifiers used to check if a function is called by a legit actor.\n    modifier onlyOwner() {\n        require(msg.sender == owner);\n        _;\n    }\n\n    modifier onlyPlayer() {\n        require(msg.sender == owner || msg.sender == adversary);\n        _;\n    }\n\n    modifier onlyWinner() {\n        require(msg.sender == winner);\n        _;\n    }\n\n    modifier isPlayerTurn() {\n        require(msg.sender == turn);\n        _;\n    }\n\n    modifier noFund(){\n        require(players[msg.sender].hasPaid != true);\n        _;\n    }\n\n    modifier Fund(){\n        require(players[msg.sender].hasPaid == true);\n        _;\n    }\n\n    modifier checkAFK(){\n    address opponent = msg.sender == owner ? adversary : owner;\n    // Check if the player is reported as AFK\n    if (players[msg.sender].afk) {\n    // Check if the player has done an action before the timeout\n    if (block.number < afk_timeout && players[msg.sender].afk) {\n        players[msg.sender].afk = false;\n    } else if (block.number >= afk_timeout) {\n        // The player is verified as afk and the opponent wins\n        _declareWinner(opponent);\n        return;\n    }\n}\n_;\n    }\n\n    // Modifiers used to check if a function is called in a legit game phase.\n    modifier phaseWaiting() {\n        require(gamePhase == Phase.Waiting);\n        _;\n    }\n\n    modifier phaseBetting() {\n        require(gamePhase == Phase.Betting);\n        _;\n    }\n\n    modifier phaseFunding() {\n        require(gamePhase == Phase.Funding);\n        _;\n    }\n\n    modifier phasePlacement() {\n        require(gamePhase == Phase.Placement);\n        _;\n    }\n\n    modifier phaseAttack() {\n        require(gamePhase == Phase.Attack);\n        _;\n    }\n\n    modifier phaseWinner() {\n        require(gamePhase == Phase.Winner);\n        _;\n    }\n\n    modifier phaseEnd() {\n        require(gamePhase == Phase.End);\n        _;\n    }\n\n    // A player can be reported as AFK only during Placement and Attack phases.\n    modifier afkAllowed(){\n        require(gamePhase == Phase.Placement || gamePhase == Phase.Attack);\n        _;\n    }\n\n    ///////////////\n    ////PUBLIC/////\n    ///FUNCTIONS///\n    ///////////////\n\n    /*Constructor, used to initialize a game*/\n    constructor(address _owner, bool _small) {\n        owner = _owner;\n        // Initialize the board and fleet size\n        _small ? boardSize = BOARD_Small : boardSize = BOARD_Normal;\n        _small ? fleetSize = FLEET_Small : fleetSize = FLEET_Normal;\n        gamePhase = Phase.Waiting;\n        emit DimensionSelected(_small);\n    }\n\n\n    /*Function used to match a join as second player.*/\n    function matchJoin(address _adversary) external phaseWaiting{\n        require(adversary == address(0),\"This game is not available!\");\n        adversary = _adversary;\n        gamePhase = Phase.Betting;\n    }\n\n    /*Function callable in betting phase and only by a player to propose a bet amount.*/\n    function proposeBet(uint256 _amount) external onlyPlayer phaseBetting {\n        betsQueue[msg.sender] = _amount;\n        emit BetProposal(msg.sender, _amount);\n    }\n\n    /*Function callable in betting phase by a player to accept the last proposed bet amount.*/\n    function acceptBet(uint256 _amount) external onlyPlayer phaseBetting {\n        require(\n            _amount != 0 &&\n                ((msg.sender == owner && betsQueue[adversary] == _amount) ||\n                    (msg.sender == adversary && betsQueue[owner] == _amount)),\n            \"The amount proposed is not valid!\"\n        );\n\n        // Change game phase and emit BetAgreed event.\n        bet = _amount;\n        gamePhase = Phase.Funding;\n        emit BetAgreed(_amount);\n    }\n\n    /*Function callable in Funding phase by a player that has not fund yet\n    to deposit the bet amount.*/\n    function betFunds() external payable onlyPlayer noFund phaseFunding {\n        require(msg.value == bet);\n        players[msg.sender].hasPaid = true;\n\n            // If both have paid, move on to the next phase and emit FundDeposited event.\n            if (players[owner].hasPaid && players[adversary].hasPaid) {\n                emit FundsDeposited();\n                gamePhase = Phase.Placement;\n            }\n        }\n\n    /*Function that can be used to forfait, the adversary automatically wins. \n    * Can be called only if the player has fund his bet (after Funding phase)*/\n    function forfait() external onlyPlayer Fund {\n        address opponent = msg.sender == owner ? adversary : owner;\n        emit Forfait();\n        _declareWinner(opponent);\n    }\n\n    /*Function callable in Placement phase by a player to commit his board.*/\n    function commitBoard(bytes32 _board) external onlyPlayer checkAFK phasePlacement {\n        require(players[msg.sender].board == 0);\n        players[msg.sender].board = _board;\n\n        // If both have committed their board move on and emit BoardsCommitted event.\n        if (players[owner].board != 0 && players[adversary].board  != 0) {\n\n            emit BoardsCommitted();\n            players[owner].hits = 0;\n            gamePhase = Phase.Attack;\n\n            //The first shot is for the adversary.\n            turn = adversary;\n        }\n    }\n\n    /*Function callable by a player to retrieve the shots taken so far.*/\n    function getShotsTaken(address _player) external view returns (Shot[] memory) {\n        return players[_player].shotsTaken;\n    }\n\n    // Function used only for the first attack (it has not check phase).\n    function attack(uint8 _index) external phaseAttack isPlayerTurn {\n        _attack(_index);\n    }\n\n    /*Function that checks the result of the previous taken shot and perform an attack.*/\n    function checkAndAttack(\n        bool _isShip,\n        uint256 _salt,\n        uint8 _index,\n        bytes32[] memory _proof,\n        uint8 _attackIndex\n    ) external phaseAttack isPlayerTurn checkAFK {\n        // Retrieving the last shot of the opponent.\n        address opponent = msg.sender == owner ? adversary : owner;\n        uint last = players[opponent].shotsTaken.length - 1;\n        assert(players[opponent].shotsTaken[last].state == ShotState.Taken);\n        require(players[opponent].shotsTaken[last].index == _index);\n\n        if (\n            !_checkProof(\n                _isShip,\n                _salt,\n                _index,\n                _proof,\n                players[msg.sender].board\n            )\n        ) {\n            //If the player tried to cheat the opponent wins by default.\n            emit WinnerVerified(opponent);\n            gamePhase = Phase.Winner;\n            winner = opponent;\n            return;\n        }\n\n        if (_isShip) {\n            //Update the shot state and the opponent hits.  \n            players[opponent].shotsTaken[last].state = ShotState.Hit;\n            players[msg.sender].hits++;\n\n            // If the opponent has hit all of our ships he wins.\n            if (players[msg.sender].hits == fleetSize) {\n                // Move on to the next phase and emit Winner event.\n                winner = opponent;\n                gamePhase = Phase.Winner;\n                emit Winner(opponent);\n                return;\n            }\n        } else {\n            players[opponent].shotsTaken[last].state = ShotState.Miss;\n        }\n\n        //Perform the attack on the board.\n        _attack(_attackIndex);\n    }\n\n    /*Function that checks the validity of the winner board.*/\n    function checkWinnerBoard(\n        bytes32[] memory _proof,\n        bool[] memory _proofFlags,\n        bool[] memory _cells,\n        uint256[] memory _salts,\n        uint8[] memory _indexes\n    ) external phaseWinner onlyWinner {\n        require(_cells.length == _salts.length);\n        require(_cells.length == _indexes.length);\n        address opponent = msg.sender == owner ? adversary : owner;\n        uint8 ships = 0;\n\n\n        // As first we verify the multiproof of all the leaves of the board.\n        if (\n            !_checkMultiProof(\n                _proof,\n                _proofFlags,\n                _cells,\n                _salts,\n                _indexes,\n                players[msg.sender].board\n            )\n        ) {\n            _declareWinner(opponent);\n            return;\n        }\n\n        // Check that the required number of ships was placed.\n        if (ships + players[opponent].hits == fleetSize) {\n            _declareWinner(msg.sender);\n        } else {\n            // placement is invalid, player cheated!\n            _declareWinner(opponent);\n        }\n    }\n\n    function withdraw() external phaseEnd onlyWinner {\n        gamePhase = Phase.End;\n        payable(msg.sender).transfer(address(this).balance);\n    }\n\n    function reportAFK() external onlyPlayer afkAllowed {\n        address opponent = msg.sender == owner ? adversary : owner;\n\n        // Verify that the opponent has not been reported before.\n        require(!players[opponent].afk);\n\n        if(gamePhase == Phase.Placement){\n            // Check that the opponent has not committed the board yet.\n            require(players[opponent].board == 0,\"The game is waiting for your board! You can't report now.\");\n        }\n\n        if(gamePhase == Phase.Attack){\n            // Check that is the opponent turn.\n            require(turn == opponent,\"It is your turn! You can't report now.\");\n\n        }\n\n        emit PlayerAFK(opponent);\n        players[opponent].afk = true;\n        afk_timeout  = block.number + 5;\n    }\n\n\n    function verifyAFK() external onlyPlayer afkAllowed{\n        address opponent = msg.sender == owner ? adversary : owner;\n        require(players[opponent].afk && block.number >= afk_timeout);\n        // No actions are taken before the timeout, the opponent wins by default\n        _declareWinner(msg.sender);\n    }\n\n\n    ///////////////\n    ////HELPERS////\n    ///////////////\n\n    function _attack(uint8 _index) internal {\n        // Check if the cell is in range and was not shot before.\n        require(players[msg.sender].shotsTakenMap[_index] == false,\"You have already shot that cell\");\n        require(_index < boardSize, \"The shot is invalid for the current map size!\");\n\n        // Set the shot as taken.\n        players[msg.sender].shotsTakenMap[_index] = true;\n        players[msg.sender].shotsTaken.push(Shot(_index,ShotState.Taken));\n\n        // Emit a ShotTaken event.\n        emit ShotTaken(msg.sender, _index);\n\n        // Change the turn.\n        turn = turn == owner ? adversary : owner;\n    }\n\n    /*\n    * Returns a boolean that is true when the proof verifies\n    * that the value of a leaf is contained in the tree given only\n    * the proof, the merkle root and the encoding of the leaf.\n    */\n    function _checkProof(\n        bool _isShip,\n        uint256 _salt,\n        uint8 _index,\n        bytes32[] memory _proof,\n        bytes32 _root\n    ) internal pure returns (bool) {\n        // Encode the leaf.\n        bytes32 leaf = _encodeLeaf(_isShip, _salt, _index);\n        // Verify the MerkleProof.\n        return MerkleProof.verify(_proof, _root, leaf);\n    }\n\n    /*\n    * Returns a boolean that is true when the multiproof verifies\n    * that all the leaves are contained in the tree given only\n    * the multiproof, the merkle root and the encoding of the leaf.\n    */\n    function _checkMultiProof(\n        bytes32[] memory _proof,\n        bool[] memory _proofFlags,\n        bool[] memory _cells,\n        uint256[] memory _salts,\n        uint8[] memory _indexes,\n        bytes32 _root\n    ) internal pure returns (bool) {\n        // Encode each leaf\n        bytes32[] memory leaves = new bytes32[](_cells.length);\n        for (uint i = 0; i < _cells.length; i++) {\n            leaves[i] = _encodeLeaf(_cells[i], _salts[i], _indexes[i]);\n        }\n        // Verify the multiProof on all the leaves.\n        return MerkleProof.multiProofVerify(_proof, _proofFlags, _root, leaves);\n    }\n\n\n    /*Hashes and encodes the leaf parameters into a 32-byte value.*/\n    function _encodeLeaf(\n        bool _isShip,\n        uint256 _salt,\n        uint8 _index\n    ) internal pure returns (bytes32) {\n        return\n            keccak256(\n                bytes.concat(keccak256(abi.encode(_isShip, _salt, _index)))\n            );\n    }\n\n    /*Set the game winner, set the gamePhase and emit WinnerVerified event*/\n    function _declareWinner(address player) internal {\n        emit WinnerVerified(player);\n        winner = player;\n        gamePhase = Phase.End;\n    }\n\n}\n\n",
  "sourcePath": "/home/azk/Desktop/eth-merkletree-battleship/contracts/Game.sol",
  "compiler": {
    "name": "solc",
    "version": "0.8.19+commit.7dd6d404.Emscripten.clang"
  },
  "schemaVersion": "3.4.13",
  "updatedAt": "2023-07-05T15:29:10.700Z",
  "devdoc": {
    "kind": "dev",
    "methods": {},
    "version": 1
  },
  "userdoc": {
    "events": {
      "DimensionSelected(bool)": {
        "notice": "EVENTS///"
      }
    },
    "kind": "user",
    "methods": {
      "constructor": {
        "notice": "FUNCTIONS///"
      }
    },
    "version": 1
  }
}